{
	"contracts/Tokens.sol": {
		"ERC223ReceivingContract": {
			"abi": [
				{
					"inputs": [
						{
							"internalType": "address",
							"name": "from",
							"type": "address"
						},
						{
							"internalType": "uint256",
							"name": "value",
							"type": "uint256"
						},
						{
							"internalType": "bytes",
							"name": "data",
							"type": "bytes"
						}
					],
					"name": "tokenFallback",
					"outputs": [],
					"stateMutability": "pure",
					"type": "function"
				}
			],
			"devdoc": {
				"kind": "dev",
				"methods": {},
				"version": 1
			},
			"evm": {
				"assembly": "    /* \"contracts/Tokens.sol\":631:1578  contract ERC223ReceivingContract {... */\n  mstore(0x40, 0x80)\n  callvalue\n  dup1\n  iszero\n  tag_1\n  jumpi\n  0x00\n  dup1\n  revert\ntag_1:\n  pop\n  dataSize(sub_0)\n  dup1\n  dataOffset(sub_0)\n  0x00\n  codecopy\n  0x00\n  return\nstop\n\nsub_0: assembly {\n        /* \"contracts/Tokens.sol\":631:1578  contract ERC223ReceivingContract {... */\n      mstore(0x40, 0x80)\n      callvalue\n      dup1\n      iszero\n      tag_1\n      jumpi\n      0x00\n      dup1\n      revert\n    tag_1:\n      pop\n      jumpi(tag_2, lt(calldatasize, 0x04))\n      shr(0xe0, calldataload(0x00))\n      dup1\n      0xc0ee0b8a\n      eq\n      tag_3\n      jumpi\n    tag_2:\n      0x00\n      dup1\n      revert\n        /* \"contracts/Tokens.sol\":942:1576  function tokenFallback(... */\n    tag_3:\n      tag_4\n      0x04\n      dup1\n      calldatasize\n      sub\n      dup2\n      add\n      swap1\n      tag_5\n      swap2\n      swap1\n      tag_6\n      jump\t// in\n    tag_5:\n      tag_7\n      jump\t// in\n    tag_4:\n      stop\n    tag_7:\n        /* \"contracts/Tokens.sol\":1085:1101  Token memory tkn */\n      tag_9\n      tag_10\n      jump\t// in\n    tag_9:\n        /* \"contracts/Tokens.sol\":1124:1128  from */\n      dup4\n        /* \"contracts/Tokens.sol\":1111:1114  tkn */\n      dup2\n        /* \"contracts/Tokens.sol\":1111:1121  tkn.sender */\n      0x00\n      add\n        /* \"contracts/Tokens.sol\":1111:1128  tkn.sender = from */\n      swap1\n      0xffffffffffffffffffffffffffffffffffffffff\n      and\n      swap1\n      dup2\n      0xffffffffffffffffffffffffffffffffffffffff\n      and\n      dup2\n      mstore\n      pop\n      pop\n        /* \"contracts/Tokens.sol\":1150:1155  value */\n      dup3\n        /* \"contracts/Tokens.sol\":1138:1141  tkn */\n      dup2\n        /* \"contracts/Tokens.sol\":1138:1147  tkn.value */\n      0x20\n      add\n        /* \"contracts/Tokens.sol\":1138:1155  tkn.value = value */\n      dup2\n      dup2\n      mstore\n      pop\n      pop\n        /* \"contracts/Tokens.sol\":1176:1180  data */\n      dup2\n        /* \"contracts/Tokens.sol\":1165:1168  tkn */\n      dup2\n        /* \"contracts/Tokens.sol\":1165:1173  tkn.data */\n      0x40\n      add\n        /* \"contracts/Tokens.sol\":1165:1180  tkn.data = data */\n      dup2\n      swap1\n      mstore\n      pop\n        /* \"contracts/Tokens.sol\":1363:1371  uint32 u */\n      0x00\n        /* \"contracts/Tokens.sol\":1537:1539  24 */\n      0x18\n        /* \"contracts/Tokens.sol\":1525:1529  data */\n      dup4\n        /* \"contracts/Tokens.sol\":1530:1531  3 */\n      0x03\n        /* \"contracts/Tokens.sol\":1525:1532  data[3] */\n      dup2\n      mload\n      dup2\n      lt\n      tag_11\n      jumpi\n      tag_12\n      tag_13\n      jump\t// in\n    tag_12:\n    tag_11:\n      0x20\n      add\n      add\n      mload\n      0xf8\n      shr\n      0xf8\n      shl\n        /* \"contracts/Tokens.sol\":1518:1533  bytes4(data[3]) */\n      not(0xffffffffffffffffffffffffffffffffffffffffffffffffffffffffffffff)\n      and\n        /* \"contracts/Tokens.sol\":1518:1539  bytes4(data[3]) >> 24 */\n      not(0xffffffffffffffffffffffffffffffffffffffffffffffffffffffff)\n      and\n      swap1\n      shr\n        /* \"contracts/Tokens.sol\":1511:1540  uint32(bytes4(data[3]) >> 24) */\n      0xe0\n      shr\n        /* \"contracts/Tokens.sol\":1493:1495  16 */\n      0x10\n        /* \"contracts/Tokens.sol\":1481:1485  data */\n      dup5\n        /* \"contracts/Tokens.sol\":1486:1487  2 */\n      0x02\n        /* \"contracts/Tokens.sol\":1481:1488  data[2] */\n      dup2\n      mload\n      dup2\n      lt\n      tag_14\n      jumpi\n      tag_15\n      tag_13\n      jump\t// in\n    tag_15:\n    tag_14:\n      0x20\n      add\n      add\n      mload\n      0xf8\n      shr\n      0xf8\n      shl\n        /* \"contracts/Tokens.sol\":1474:1489  bytes4(data[2]) */\n      not(0xffffffffffffffffffffffffffffffffffffffffffffffffffffffffffffff)\n      and\n        /* \"contracts/Tokens.sol\":1474:1495  bytes4(data[2]) >> 16 */\n      not(0xffffffffffffffffffffffffffffffffffffffffffffffffffffffff)\n      and\n      swap1\n      shr\n        /* \"contracts/Tokens.sol\":1467:1496  uint32(bytes4(data[2]) >> 16) */\n      0xe0\n      shr\n        /* \"contracts/Tokens.sol\":1450:1451  8 */\n      0x08\n        /* \"contracts/Tokens.sol\":1438:1442  data */\n      dup6\n        /* \"contracts/Tokens.sol\":1443:1444  1 */\n      0x01\n        /* \"contracts/Tokens.sol\":1438:1445  data[1] */\n      dup2\n      mload\n      dup2\n      lt\n      tag_16\n      jumpi\n      tag_17\n      tag_13\n      jump\t// in\n    tag_17:\n    tag_16:\n      0x20\n      add\n      add\n      mload\n      0xf8\n      shr\n      0xf8\n      shl\n        /* \"contracts/Tokens.sol\":1431:1446  bytes4(data[1]) */\n      not(0xffffffffffffffffffffffffffffffffffffffffffffffffffffffffffffff)\n      and\n        /* \"contracts/Tokens.sol\":1431:1451  bytes4(data[1]) >> 8 */\n      not(0xffffffffffffffffffffffffffffffffffffffffffffffffffffffff)\n      and\n      swap1\n      shr\n        /* \"contracts/Tokens.sol\":1424:1452  uint32(bytes4(data[1]) >> 8) */\n      0xe0\n      shr\n        /* \"contracts/Tokens.sol\":1400:1404  data */\n      dup6\n        /* \"contracts/Tokens.sol\":1405:1406  0 */\n      0x00\n        /* \"contracts/Tokens.sol\":1400:1407  data[0] */\n      dup2\n      mload\n      dup2\n      lt\n      tag_18\n      jumpi\n      tag_19\n      tag_13\n      jump\t// in\n    tag_19:\n    tag_18:\n      0x20\n      add\n      add\n      mload\n      0xf8\n      shr\n      0xf8\n      shl\n        /* \"contracts/Tokens.sol\":1393:1408  bytes4(data[0]) */\n      not(0xffffffffffffffffffffffffffffffffffffffffffffffffffffffffffffff)\n      and\n        /* \"contracts/Tokens.sol\":1386:1409  uint32(bytes4(data[0])) */\n      0xe0\n      shr\n        /* \"contracts/Tokens.sol\":1386:1452  uint32(bytes4(data[0])) +... */\n      tag_20\n      swap2\n      swap1\n      tag_21\n      jump\t// in\n    tag_20:\n        /* \"contracts/Tokens.sol\":1386:1496  uint32(bytes4(data[0])) +... */\n      tag_22\n      swap2\n      swap1\n      tag_21\n      jump\t// in\n    tag_22:\n        /* \"contracts/Tokens.sol\":1386:1540  uint32(bytes4(data[0])) +... */\n      tag_23\n      swap2\n      swap1\n      tag_21\n      jump\t// in\n    tag_23:\n        /* \"contracts/Tokens.sol\":1363:1540  uint32 u =... */\n      swap1\n      pop\n        /* \"contracts/Tokens.sol\":1567:1568  u */\n      dup1\n        /* \"contracts/Tokens.sol\":1560:1569  bytes4(u) */\n      0xe0\n      shl\n        /* \"contracts/Tokens.sol\":1550:1553  tkn */\n      dup3\n        /* \"contracts/Tokens.sol\":1550:1557  tkn.sig */\n      0x60\n      add\n        /* \"contracts/Tokens.sol\":1550:1569  tkn.sig = bytes4(u) */\n      swap1\n      not(0xffffffffffffffffffffffffffffffffffffffffffffffffffffffff)\n      and\n      swap1\n      dup2\n      not(0xffffffffffffffffffffffffffffffffffffffffffffffffffffffff)\n      and\n      dup2\n      mstore\n      pop\n      pop\n        /* \"contracts/Tokens.sol\":1075:1576  {... */\n      pop\n      pop\n        /* \"contracts/Tokens.sol\":942:1576  function tokenFallback(... */\n      pop\n      pop\n      pop\n      jump\t// out\n    tag_10:\n      mload(0x40)\n      dup1\n      0x80\n      add\n      0x40\n      mstore\n      dup1\n      and(0xffffffffffffffffffffffffffffffffffffffff, 0x00)\n      dup2\n      mstore\n      0x20\n      add\n      0x00\n      dup2\n      mstore\n      0x20\n      add\n      0x60\n      dup2\n      mstore\n      0x20\n      add\n      and(not(0xffffffffffffffffffffffffffffffffffffffffffffffffffffffff), 0x00)\n      dup2\n      mstore\n      pop\n      swap1\n      jump\t// out\n        /* \"#utility.yul\":7:417   */\n    tag_25:\n        /* \"#utility.yul\":84:89   */\n      0x00\n        /* \"#utility.yul\":109:174   */\n      tag_27\n        /* \"#utility.yul\":125:173   */\n      tag_28\n        /* \"#utility.yul\":166:172   */\n      dup5\n        /* \"#utility.yul\":125:173   */\n      tag_29\n      jump\t// in\n    tag_28:\n        /* \"#utility.yul\":109:174   */\n      tag_30\n      jump\t// in\n    tag_27:\n        /* \"#utility.yul\":100:174   */\n      swap1\n      pop\n        /* \"#utility.yul\":197:203   */\n      dup3\n        /* \"#utility.yul\":190:195   */\n      dup2\n        /* \"#utility.yul\":183:204   */\n      mstore\n        /* \"#utility.yul\":235:239   */\n      0x20\n        /* \"#utility.yul\":228:233   */\n      dup2\n        /* \"#utility.yul\":224:240   */\n      add\n        /* \"#utility.yul\":273:276   */\n      dup5\n        /* \"#utility.yul\":264:270   */\n      dup5\n        /* \"#utility.yul\":259:262   */\n      dup5\n        /* \"#utility.yul\":255:271   */\n      add\n        /* \"#utility.yul\":252:277   */\n      gt\n        /* \"#utility.yul\":249:361   */\n      iszero\n      tag_31\n      jumpi\n        /* \"#utility.yul\":280:359   */\n      tag_32\n      tag_33\n      jump\t// in\n    tag_32:\n        /* \"#utility.yul\":249:361   */\n    tag_31:\n        /* \"#utility.yul\":370:411   */\n      tag_34\n        /* \"#utility.yul\":404:410   */\n      dup5\n        /* \"#utility.yul\":399:402   */\n      dup3\n        /* \"#utility.yul\":394:397   */\n      dup6\n        /* \"#utility.yul\":370:411   */\n      tag_35\n      jump\t// in\n    tag_34:\n        /* \"#utility.yul\":90:417   */\n      pop\n        /* \"#utility.yul\":7:417   */\n      swap4\n      swap3\n      pop\n      pop\n      pop\n      jump\t// out\n        /* \"#utility.yul\":423:562   */\n    tag_36:\n        /* \"#utility.yul\":469:474   */\n      0x00\n        /* \"#utility.yul\":507:513   */\n      dup2\n        /* \"#utility.yul\":494:514   */\n      calldataload\n        /* \"#utility.yul\":485:514   */\n      swap1\n      pop\n        /* \"#utility.yul\":523:556   */\n      tag_38\n        /* \"#utility.yul\":550:555   */\n      dup2\n        /* \"#utility.yul\":523:556   */\n      tag_39\n      jump\t// in\n    tag_38:\n        /* \"#utility.yul\":423:562   */\n      swap3\n      swap2\n      pop\n      pop\n      jump\t// out\n        /* \"#utility.yul\":581:919   */\n    tag_40:\n        /* \"#utility.yul\":636:641   */\n      0x00\n        /* \"#utility.yul\":685:688   */\n      dup3\n        /* \"#utility.yul\":678:682   */\n      0x1f\n        /* \"#utility.yul\":670:676   */\n      dup4\n        /* \"#utility.yul\":666:683   */\n      add\n        /* \"#utility.yul\":662:689   */\n      slt\n        /* \"#utility.yul\":652:774   */\n      tag_42\n      jumpi\n        /* \"#utility.yul\":693:772   */\n      tag_43\n      tag_44\n      jump\t// in\n    tag_43:\n        /* \"#utility.yul\":652:774   */\n    tag_42:\n        /* \"#utility.yul\":810:816   */\n      dup2\n        /* \"#utility.yul\":797:817   */\n      calldataload\n        /* \"#utility.yul\":835:913   */\n      tag_45\n        /* \"#utility.yul\":909:912   */\n      dup5\n        /* \"#utility.yul\":901:907   */\n      dup3\n        /* \"#utility.yul\":894:898   */\n      0x20\n        /* \"#utility.yul\":886:892   */\n      dup7\n        /* \"#utility.yul\":882:899   */\n      add\n        /* \"#utility.yul\":835:913   */\n      tag_25\n      jump\t// in\n    tag_45:\n        /* \"#utility.yul\":826:913   */\n      swap2\n      pop\n        /* \"#utility.yul\":642:919   */\n      pop\n        /* \"#utility.yul\":581:919   */\n      swap3\n      swap2\n      pop\n      pop\n      jump\t// out\n        /* \"#utility.yul\":925:1064   */\n    tag_46:\n        /* \"#utility.yul\":971:976   */\n      0x00\n        /* \"#utility.yul\":1009:1015   */\n      dup2\n        /* \"#utility.yul\":996:1016   */\n      calldataload\n        /* \"#utility.yul\":987:1016   */\n      swap1\n      pop\n        /* \"#utility.yul\":1025:1058   */\n      tag_48\n        /* \"#utility.yul\":1052:1057   */\n      dup2\n        /* \"#utility.yul\":1025:1058   */\n      tag_49\n      jump\t// in\n    tag_48:\n        /* \"#utility.yul\":925:1064   */\n      swap3\n      swap2\n      pop\n      pop\n      jump\t// out\n        /* \"#utility.yul\":1070:1867   */\n    tag_6:\n        /* \"#utility.yul\":1156:1162   */\n      0x00\n        /* \"#utility.yul\":1164:1170   */\n      dup1\n        /* \"#utility.yul\":1172:1178   */\n      0x00\n        /* \"#utility.yul\":1221:1223   */\n      0x60\n        /* \"#utility.yul\":1209:1218   */\n      dup5\n        /* \"#utility.yul\":1200:1207   */\n      dup7\n        /* \"#utility.yul\":1196:1219   */\n      sub\n        /* \"#utility.yul\":1192:1224   */\n      slt\n        /* \"#utility.yul\":1189:1308   */\n      iszero\n      tag_51\n      jumpi\n        /* \"#utility.yul\":1227:1306   */\n      tag_52\n      tag_53\n      jump\t// in\n    tag_52:\n        /* \"#utility.yul\":1189:1308   */\n    tag_51:\n        /* \"#utility.yul\":1347:1348   */\n      0x00\n        /* \"#utility.yul\":1372:1425   */\n      tag_54\n        /* \"#utility.yul\":1417:1424   */\n      dup7\n        /* \"#utility.yul\":1408:1414   */\n      dup3\n        /* \"#utility.yul\":1397:1406   */\n      dup8\n        /* \"#utility.yul\":1393:1415   */\n      add\n        /* \"#utility.yul\":1372:1425   */\n      tag_36\n      jump\t// in\n    tag_54:\n        /* \"#utility.yul\":1362:1425   */\n      swap4\n      pop\n        /* \"#utility.yul\":1318:1435   */\n      pop\n        /* \"#utility.yul\":1474:1476   */\n      0x20\n        /* \"#utility.yul\":1500:1553   */\n      tag_55\n        /* \"#utility.yul\":1545:1552   */\n      dup7\n        /* \"#utility.yul\":1536:1542   */\n      dup3\n        /* \"#utility.yul\":1525:1534   */\n      dup8\n        /* \"#utility.yul\":1521:1543   */\n      add\n        /* \"#utility.yul\":1500:1553   */\n      tag_46\n      jump\t// in\n    tag_55:\n        /* \"#utility.yul\":1490:1553   */\n      swap3\n      pop\n        /* \"#utility.yul\":1445:1563   */\n      pop\n        /* \"#utility.yul\":1630:1632   */\n      0x40\n        /* \"#utility.yul\":1619:1628   */\n      dup5\n        /* \"#utility.yul\":1615:1633   */\n      add\n        /* \"#utility.yul\":1602:1634   */\n      calldataload\n        /* \"#utility.yul\":1661:1679   */\n      0xffffffffffffffff\n        /* \"#utility.yul\":1653:1659   */\n      dup2\n        /* \"#utility.yul\":1650:1680   */\n      gt\n        /* \"#utility.yul\":1647:1764   */\n      iszero\n      tag_56\n      jumpi\n        /* \"#utility.yul\":1683:1762   */\n      tag_57\n      tag_58\n      jump\t// in\n    tag_57:\n        /* \"#utility.yul\":1647:1764   */\n    tag_56:\n        /* \"#utility.yul\":1788:1850   */\n      tag_59\n        /* \"#utility.yul\":1842:1849   */\n      dup7\n        /* \"#utility.yul\":1833:1839   */\n      dup3\n        /* \"#utility.yul\":1822:1831   */\n      dup8\n        /* \"#utility.yul\":1818:1840   */\n      add\n        /* \"#utility.yul\":1788:1850   */\n      tag_40\n      jump\t// in\n    tag_59:\n        /* \"#utility.yul\":1778:1850   */\n      swap2\n      pop\n        /* \"#utility.yul\":1573:1860   */\n      pop\n        /* \"#utility.yul\":1070:1867   */\n      swap3\n      pop\n      swap3\n      pop\n      swap3\n      jump\t// out\n        /* \"#utility.yul\":1873:2002   */\n    tag_30:\n        /* \"#utility.yul\":1907:1913   */\n      0x00\n        /* \"#utility.yul\":1934:1954   */\n      tag_61\n      tag_62\n      jump\t// in\n    tag_61:\n        /* \"#utility.yul\":1924:1954   */\n      swap1\n      pop\n        /* \"#utility.yul\":1963:1996   */\n      tag_63\n        /* \"#utility.yul\":1991:1995   */\n      dup3\n        /* \"#utility.yul\":1983:1989   */\n      dup3\n        /* \"#utility.yul\":1963:1996   */\n      tag_64\n      jump\t// in\n    tag_63:\n        /* \"#utility.yul\":1873:2002   */\n      swap2\n      swap1\n      pop\n      jump\t// out\n        /* \"#utility.yul\":2008:2083   */\n    tag_62:\n        /* \"#utility.yul\":2041:2047   */\n      0x00\n        /* \"#utility.yul\":2074:2076   */\n      0x40\n        /* \"#utility.yul\":2068:2077   */\n      mload\n        /* \"#utility.yul\":2058:2077   */\n      swap1\n      pop\n        /* \"#utility.yul\":2008:2083   */\n      swap1\n      jump\t// out\n        /* \"#utility.yul\":2089:2396   */\n    tag_29:\n        /* \"#utility.yul\":2150:2154   */\n      0x00\n        /* \"#utility.yul\":2240:2258   */\n      0xffffffffffffffff\n        /* \"#utility.yul\":2232:2238   */\n      dup3\n        /* \"#utility.yul\":2229:2259   */\n      gt\n        /* \"#utility.yul\":2226:2282   */\n      iszero\n      tag_67\n      jumpi\n        /* \"#utility.yul\":2262:2280   */\n      tag_68\n      tag_69\n      jump\t// in\n    tag_68:\n        /* \"#utility.yul\":2226:2282   */\n    tag_67:\n        /* \"#utility.yul\":2300:2329   */\n      tag_70\n        /* \"#utility.yul\":2322:2328   */\n      dup3\n        /* \"#utility.yul\":2300:2329   */\n      tag_71\n      jump\t// in\n    tag_70:\n        /* \"#utility.yul\":2292:2329   */\n      swap1\n      pop\n        /* \"#utility.yul\":2384:2388   */\n      0x20\n        /* \"#utility.yul\":2378:2382   */\n      dup2\n        /* \"#utility.yul\":2374:2389   */\n      add\n        /* \"#utility.yul\":2366:2389   */\n      swap1\n      pop\n        /* \"#utility.yul\":2089:2396   */\n      swap2\n      swap1\n      pop\n      jump\t// out\n        /* \"#utility.yul\":2402:2648   */\n    tag_21:\n        /* \"#utility.yul\":2441:2444   */\n      0x00\n        /* \"#utility.yul\":2460:2479   */\n      tag_73\n        /* \"#utility.yul\":2477:2478   */\n      dup3\n        /* \"#utility.yul\":2460:2479   */\n      tag_74\n      jump\t// in\n    tag_73:\n        /* \"#utility.yul\":2455:2479   */\n      swap2\n      pop\n        /* \"#utility.yul\":2493:2512   */\n      tag_75\n        /* \"#utility.yul\":2510:2511   */\n      dup4\n        /* \"#utility.yul\":2493:2512   */\n      tag_74\n      jump\t// in\n    tag_75:\n        /* \"#utility.yul\":2488:2512   */\n      swap3\n      pop\n        /* \"#utility.yul\":2590:2591   */\n      dup3\n        /* \"#utility.yul\":2578:2588   */\n      0xffffffff\n        /* \"#utility.yul\":2574:2592   */\n      sub\n        /* \"#utility.yul\":2571:2572   */\n      dup3\n        /* \"#utility.yul\":2568:2593   */\n      gt\n        /* \"#utility.yul\":2565:2616   */\n      iszero\n      tag_76\n      jumpi\n        /* \"#utility.yul\":2596:2614   */\n      tag_77\n      tag_78\n      jump\t// in\n    tag_77:\n        /* \"#utility.yul\":2565:2616   */\n    tag_76:\n        /* \"#utility.yul\":2640:2641   */\n      dup3\n        /* \"#utility.yul\":2637:2638   */\n      dup3\n        /* \"#utility.yul\":2633:2642   */\n      add\n        /* \"#utility.yul\":2626:2642   */\n      swap1\n      pop\n        /* \"#utility.yul\":2402:2648   */\n      swap3\n      swap2\n      pop\n      pop\n      jump\t// out\n        /* \"#utility.yul\":2654:2750   */\n    tag_79:\n        /* \"#utility.yul\":2691:2698   */\n      0x00\n        /* \"#utility.yul\":2720:2744   */\n      tag_81\n        /* \"#utility.yul\":2738:2743   */\n      dup3\n        /* \"#utility.yul\":2720:2744   */\n      tag_82\n      jump\t// in\n    tag_81:\n        /* \"#utility.yul\":2709:2744   */\n      swap1\n      pop\n        /* \"#utility.yul\":2654:2750   */\n      swap2\n      swap1\n      pop\n      jump\t// out\n        /* \"#utility.yul\":2756:2882   */\n    tag_82:\n        /* \"#utility.yul\":2793:2800   */\n      0x00\n        /* \"#utility.yul\":2833:2875   */\n      0xffffffffffffffffffffffffffffffffffffffff\n        /* \"#utility.yul\":2826:2831   */\n      dup3\n        /* \"#utility.yul\":2822:2876   */\n      and\n        /* \"#utility.yul\":2811:2876   */\n      swap1\n      pop\n        /* \"#utility.yul\":2756:2882   */\n      swap2\n      swap1\n      pop\n      jump\t// out\n        /* \"#utility.yul\":2888:2965   */\n    tag_84:\n        /* \"#utility.yul\":2925:2932   */\n      0x00\n        /* \"#utility.yul\":2954:2959   */\n      dup2\n        /* \"#utility.yul\":2943:2959   */\n      swap1\n      pop\n        /* \"#utility.yul\":2888:2965   */\n      swap2\n      swap1\n      pop\n      jump\t// out\n        /* \"#utility.yul\":2971:3064   */\n    tag_74:\n        /* \"#utility.yul\":3007:3014   */\n      0x00\n        /* \"#utility.yul\":3047:3057   */\n      0xffffffff\n        /* \"#utility.yul\":3040:3045   */\n      dup3\n        /* \"#utility.yul\":3036:3058   */\n      and\n        /* \"#utility.yul\":3025:3058   */\n      swap1\n      pop\n        /* \"#utility.yul\":2971:3064   */\n      swap2\n      swap1\n      pop\n      jump\t// out\n        /* \"#utility.yul\":3070:3224   */\n    tag_35:\n        /* \"#utility.yul\":3154:3160   */\n      dup3\n        /* \"#utility.yul\":3149:3152   */\n      dup2\n        /* \"#utility.yul\":3144:3147   */\n      dup4\n        /* \"#utility.yul\":3131:3161   */\n      calldatacopy\n        /* \"#utility.yul\":3216:3217   */\n      0x00\n        /* \"#utility.yul\":3207:3213   */\n      dup4\n        /* \"#utility.yul\":3202:3205   */\n      dup4\n        /* \"#utility.yul\":3198:3214   */\n      add\n        /* \"#utility.yul\":3191:3218   */\n      mstore\n        /* \"#utility.yul\":3070:3224   */\n      pop\n      pop\n      pop\n      jump\t// out\n        /* \"#utility.yul\":3230:3511   */\n    tag_64:\n        /* \"#utility.yul\":3313:3340   */\n      tag_89\n        /* \"#utility.yul\":3335:3339   */\n      dup3\n        /* \"#utility.yul\":3313:3340   */\n      tag_71\n      jump\t// in\n    tag_89:\n        /* \"#utility.yul\":3305:3311   */\n      dup2\n        /* \"#utility.yul\":3301:3341   */\n      add\n        /* \"#utility.yul\":3443:3449   */\n      dup2\n        /* \"#utility.yul\":3431:3441   */\n      dup2\n        /* \"#utility.yul\":3428:3450   */\n      lt\n        /* \"#utility.yul\":3407:3425   */\n      0xffffffffffffffff\n        /* \"#utility.yul\":3395:3405   */\n      dup3\n        /* \"#utility.yul\":3392:3426   */\n      gt\n        /* \"#utility.yul\":3389:3451   */\n      or\n        /* \"#utility.yul\":3386:3474   */\n      iszero\n      tag_90\n      jumpi\n        /* \"#utility.yul\":3454:3472   */\n      tag_91\n      tag_69\n      jump\t// in\n    tag_91:\n        /* \"#utility.yul\":3386:3474   */\n    tag_90:\n        /* \"#utility.yul\":3494:3504   */\n      dup1\n        /* \"#utility.yul\":3490:3492   */\n      0x40\n        /* \"#utility.yul\":3483:3505   */\n      mstore\n        /* \"#utility.yul\":3273:3511   */\n      pop\n        /* \"#utility.yul\":3230:3511   */\n      pop\n      pop\n      jump\t// out\n        /* \"#utility.yul\":3517:3697   */\n    tag_78:\n        /* \"#utility.yul\":3565:3642   */\n      0x4e487b7100000000000000000000000000000000000000000000000000000000\n        /* \"#utility.yul\":3562:3563   */\n      0x00\n        /* \"#utility.yul\":3555:3643   */\n      mstore\n        /* \"#utility.yul\":3662:3666   */\n      0x11\n        /* \"#utility.yul\":3659:3660   */\n      0x04\n        /* \"#utility.yul\":3652:3667   */\n      mstore\n        /* \"#utility.yul\":3686:3690   */\n      0x24\n        /* \"#utility.yul\":3683:3684   */\n      0x00\n        /* \"#utility.yul\":3676:3691   */\n      revert\n        /* \"#utility.yul\":3703:3883   */\n    tag_13:\n        /* \"#utility.yul\":3751:3828   */\n      0x4e487b7100000000000000000000000000000000000000000000000000000000\n        /* \"#utility.yul\":3748:3749   */\n      0x00\n        /* \"#utility.yul\":3741:3829   */\n      mstore\n        /* \"#utility.yul\":3848:3852   */\n      0x32\n        /* \"#utility.yul\":3845:3846   */\n      0x04\n        /* \"#utility.yul\":3838:3853   */\n      mstore\n        /* \"#utility.yul\":3872:3876   */\n      0x24\n        /* \"#utility.yul\":3869:3870   */\n      0x00\n        /* \"#utility.yul\":3862:3877   */\n      revert\n        /* \"#utility.yul\":3889:4069   */\n    tag_69:\n        /* \"#utility.yul\":3937:4014   */\n      0x4e487b7100000000000000000000000000000000000000000000000000000000\n        /* \"#utility.yul\":3934:3935   */\n      0x00\n        /* \"#utility.yul\":3927:4015   */\n      mstore\n        /* \"#utility.yul\":4034:4038   */\n      0x41\n        /* \"#utility.yul\":4031:4032   */\n      0x04\n        /* \"#utility.yul\":4024:4039   */\n      mstore\n        /* \"#utility.yul\":4058:4062   */\n      0x24\n        /* \"#utility.yul\":4055:4056   */\n      0x00\n        /* \"#utility.yul\":4048:4063   */\n      revert\n        /* \"#utility.yul\":4075:4192   */\n    tag_44:\n        /* \"#utility.yul\":4184:4185   */\n      0x00\n        /* \"#utility.yul\":4181:4182   */\n      dup1\n        /* \"#utility.yul\":4174:4186   */\n      revert\n        /* \"#utility.yul\":4198:4315   */\n    tag_33:\n        /* \"#utility.yul\":4307:4308   */\n      0x00\n        /* \"#utility.yul\":4304:4305   */\n      dup1\n        /* \"#utility.yul\":4297:4309   */\n      revert\n        /* \"#utility.yul\":4321:4438   */\n    tag_58:\n        /* \"#utility.yul\":4430:4431   */\n      0x00\n        /* \"#utility.yul\":4427:4428   */\n      dup1\n        /* \"#utility.yul\":4420:4432   */\n      revert\n        /* \"#utility.yul\":4444:4561   */\n    tag_53:\n        /* \"#utility.yul\":4553:4554   */\n      0x00\n        /* \"#utility.yul\":4550:4551   */\n      dup1\n        /* \"#utility.yul\":4543:4555   */\n      revert\n        /* \"#utility.yul\":4567:4669   */\n    tag_71:\n        /* \"#utility.yul\":4608:4614   */\n      0x00\n        /* \"#utility.yul\":4659:4661   */\n      0x1f\n        /* \"#utility.yul\":4655:4662   */\n      not\n        /* \"#utility.yul\":4650:4652   */\n      0x1f\n        /* \"#utility.yul\":4643:4648   */\n      dup4\n        /* \"#utility.yul\":4639:4653   */\n      add\n        /* \"#utility.yul\":4635:4663   */\n      and\n        /* \"#utility.yul\":4625:4663   */\n      swap1\n      pop\n        /* \"#utility.yul\":4567:4669   */\n      swap2\n      swap1\n      pop\n      jump\t// out\n        /* \"#utility.yul\":4675:4797   */\n    tag_39:\n        /* \"#utility.yul\":4748:4772   */\n      tag_101\n        /* \"#utility.yul\":4766:4771   */\n      dup2\n        /* \"#utility.yul\":4748:4772   */\n      tag_79\n      jump\t// in\n    tag_101:\n        /* \"#utility.yul\":4741:4746   */\n      dup2\n        /* \"#utility.yul\":4738:4773   */\n      eq\n        /* \"#utility.yul\":4728:4791   */\n      tag_102\n      jumpi\n        /* \"#utility.yul\":4787:4788   */\n      0x00\n        /* \"#utility.yul\":4784:4785   */\n      dup1\n        /* \"#utility.yul\":4777:4789   */\n      revert\n        /* \"#utility.yul\":4728:4791   */\n    tag_102:\n        /* \"#utility.yul\":4675:4797   */\n      pop\n      jump\t// out\n        /* \"#utility.yul\":4803:4925   */\n    tag_49:\n        /* \"#utility.yul\":4876:4900   */\n      tag_104\n        /* \"#utility.yul\":4894:4899   */\n      dup2\n        /* \"#utility.yul\":4876:4900   */\n      tag_84\n      jump\t// in\n    tag_104:\n        /* \"#utility.yul\":4869:4874   */\n      dup2\n        /* \"#utility.yul\":4866:4901   */\n      eq\n        /* \"#utility.yul\":4856:4919   */\n      tag_105\n      jumpi\n        /* \"#utility.yul\":4915:4916   */\n      0x00\n        /* \"#utility.yul\":4912:4913   */\n      dup1\n        /* \"#utility.yul\":4905:4917   */\n      revert\n        /* \"#utility.yul\":4856:4919   */\n    tag_105:\n        /* \"#utility.yul\":4803:4925   */\n      pop\n      jump\t// out\n\n    auxdata: 0xa26469706673582212204cbda98cef232cccc2f23d6052d3b177be34ee12ec781d93a4ad699408162ebd64736f6c63430008070033\n}\n",
				"bytecode": {
					"linkReferences": {},
					"object": "608060405234801561001057600080fd5b50610626806100206000396000f3fe608060405234801561001057600080fd5b506004361061002b5760003560e01c8063c0ee0b8a14610030575b600080fd5b61004a60048036038101906100459190610385565b61004c565b005b61005461028e565b83816000019073ffffffffffffffffffffffffffffffffffffffff16908173ffffffffffffffffffffffffffffffffffffffff16815250508281602001818152505081816040018190525060006018836003815181106100b7576100b661053f565b5b602001015160f81c60f81b7effffffffffffffffffffffffffffffffffffffffffffffffffffffffffffff19167bffffffffffffffffffffffffffffffffffffffffffffffffffffffff1916901c60e01c60108460028151811061011e5761011d61053f565b5b602001015160f81c60f81b7effffffffffffffffffffffffffffffffffffffffffffffffffffffffffffff19167bffffffffffffffffffffffffffffffffffffffffffffffffffffffff1916901c60e01c6008856001815181106101855761018461053f565b5b602001015160f81c60f81b7effffffffffffffffffffffffffffffffffffffffffffffffffffffffffffff19167bffffffffffffffffffffffffffffffffffffffffffffffffffffffff1916901c60e01c856000815181106101ea576101e961053f565b5b602001015160f81c60f81b7effffffffffffffffffffffffffffffffffffffffffffffffffffffffffffff191660e01c610224919061044a565b61022e919061044a565b610238919061044a565b90508060e01b82606001907bffffffffffffffffffffffffffffffffffffffffffffffffffffffff191690817bffffffffffffffffffffffffffffffffffffffffffffffffffffffff1916815250505050505050565b6040518060800160405280600073ffffffffffffffffffffffffffffffffffffffff168152602001600081526020016060815260200160007bffffffffffffffffffffffffffffffffffffffffffffffffffffffff191681525090565b60006102fe6102f984610419565b6103f4565b90508281526020810184848401111561031a576103196105a2565b5b6103258482856104d0565b509392505050565b60008135905061033c816105c2565b92915050565b600082601f8301126103575761035661059d565b5b81356103678482602086016102eb565b91505092915050565b60008135905061037f816105d9565b92915050565b60008060006060848603121561039e5761039d6105ac565b5b60006103ac8682870161032d565b93505060206103bd86828701610370565b925050604084013567ffffffffffffffff8111156103de576103dd6105a7565b5b6103ea86828701610342565b9150509250925092565b60006103fe61040f565b905061040a82826104df565b919050565b6000604051905090565b600067ffffffffffffffff8211156104345761043361056e565b5b61043d826105b1565b9050602081019050919050565b6000610455826104c0565b9150610460836104c0565b92508263ffffffff0382111561047957610478610510565b5b828201905092915050565b600061048f82610496565b9050919050565b600073ffffffffffffffffffffffffffffffffffffffff82169050919050565b6000819050919050565b600063ffffffff82169050919050565b82818337600083830152505050565b6104e8826105b1565b810181811067ffffffffffffffff821117156105075761050661056e565b5b80604052505050565b7f4e487b7100000000000000000000000000000000000000000000000000000000600052601160045260246000fd5b7f4e487b7100000000000000000000000000000000000000000000000000000000600052603260045260246000fd5b7f4e487b7100000000000000000000000000000000000000000000000000000000600052604160045260246000fd5b600080fd5b600080fd5b600080fd5b600080fd5b6000601f19601f8301169050919050565b6105cb81610484565b81146105d657600080fd5b50565b6105e2816104b6565b81146105ed57600080fd5b5056fea26469706673582212204cbda98cef232cccc2f23d6052d3b177be34ee12ec781d93a4ad699408162ebd64736f6c63430008070033",
					"opcodes": "PUSH1 0x80 PUSH1 0x40 MSTORE CALLVALUE DUP1 ISZERO PUSH2 0x10 JUMPI PUSH1 0x0 DUP1 REVERT JUMPDEST POP PUSH2 0x626 DUP1 PUSH2 0x20 PUSH1 0x0 CODECOPY PUSH1 0x0 RETURN INVALID PUSH1 0x80 PUSH1 0x40 MSTORE CALLVALUE DUP1 ISZERO PUSH2 0x10 JUMPI PUSH1 0x0 DUP1 REVERT JUMPDEST POP PUSH1 0x4 CALLDATASIZE LT PUSH2 0x2B JUMPI PUSH1 0x0 CALLDATALOAD PUSH1 0xE0 SHR DUP1 PUSH4 0xC0EE0B8A EQ PUSH2 0x30 JUMPI JUMPDEST PUSH1 0x0 DUP1 REVERT JUMPDEST PUSH2 0x4A PUSH1 0x4 DUP1 CALLDATASIZE SUB DUP2 ADD SWAP1 PUSH2 0x45 SWAP2 SWAP1 PUSH2 0x385 JUMP JUMPDEST PUSH2 0x4C JUMP JUMPDEST STOP JUMPDEST PUSH2 0x54 PUSH2 0x28E JUMP JUMPDEST DUP4 DUP2 PUSH1 0x0 ADD SWAP1 PUSH20 0xFFFFFFFFFFFFFFFFFFFFFFFFFFFFFFFFFFFFFFFF AND SWAP1 DUP2 PUSH20 0xFFFFFFFFFFFFFFFFFFFFFFFFFFFFFFFFFFFFFFFF AND DUP2 MSTORE POP POP DUP3 DUP2 PUSH1 0x20 ADD DUP2 DUP2 MSTORE POP POP DUP2 DUP2 PUSH1 0x40 ADD DUP2 SWAP1 MSTORE POP PUSH1 0x0 PUSH1 0x18 DUP4 PUSH1 0x3 DUP2 MLOAD DUP2 LT PUSH2 0xB7 JUMPI PUSH2 0xB6 PUSH2 0x53F JUMP JUMPDEST JUMPDEST PUSH1 0x20 ADD ADD MLOAD PUSH1 0xF8 SHR PUSH1 0xF8 SHL PUSH31 0xFFFFFFFFFFFFFFFFFFFFFFFFFFFFFFFFFFFFFFFFFFFFFFFFFFFFFFFFFFFFFF NOT AND PUSH28 0xFFFFFFFFFFFFFFFFFFFFFFFFFFFFFFFFFFFFFFFFFFFFFFFFFFFFFFFF NOT AND SWAP1 SHR PUSH1 0xE0 SHR PUSH1 0x10 DUP5 PUSH1 0x2 DUP2 MLOAD DUP2 LT PUSH2 0x11E JUMPI PUSH2 0x11D PUSH2 0x53F JUMP JUMPDEST JUMPDEST PUSH1 0x20 ADD ADD MLOAD PUSH1 0xF8 SHR PUSH1 0xF8 SHL PUSH31 0xFFFFFFFFFFFFFFFFFFFFFFFFFFFFFFFFFFFFFFFFFFFFFFFFFFFFFFFFFFFFFF NOT AND PUSH28 0xFFFFFFFFFFFFFFFFFFFFFFFFFFFFFFFFFFFFFFFFFFFFFFFFFFFFFFFF NOT AND SWAP1 SHR PUSH1 0xE0 SHR PUSH1 0x8 DUP6 PUSH1 0x1 DUP2 MLOAD DUP2 LT PUSH2 0x185 JUMPI PUSH2 0x184 PUSH2 0x53F JUMP JUMPDEST JUMPDEST PUSH1 0x20 ADD ADD MLOAD PUSH1 0xF8 SHR PUSH1 0xF8 SHL PUSH31 0xFFFFFFFFFFFFFFFFFFFFFFFFFFFFFFFFFFFFFFFFFFFFFFFFFFFFFFFFFFFFFF NOT AND PUSH28 0xFFFFFFFFFFFFFFFFFFFFFFFFFFFFFFFFFFFFFFFFFFFFFFFFFFFFFFFF NOT AND SWAP1 SHR PUSH1 0xE0 SHR DUP6 PUSH1 0x0 DUP2 MLOAD DUP2 LT PUSH2 0x1EA JUMPI PUSH2 0x1E9 PUSH2 0x53F JUMP JUMPDEST JUMPDEST PUSH1 0x20 ADD ADD MLOAD PUSH1 0xF8 SHR PUSH1 0xF8 SHL PUSH31 0xFFFFFFFFFFFFFFFFFFFFFFFFFFFFFFFFFFFFFFFFFFFFFFFFFFFFFFFFFFFFFF NOT AND PUSH1 0xE0 SHR PUSH2 0x224 SWAP2 SWAP1 PUSH2 0x44A JUMP JUMPDEST PUSH2 0x22E SWAP2 SWAP1 PUSH2 0x44A JUMP JUMPDEST PUSH2 0x238 SWAP2 SWAP1 PUSH2 0x44A JUMP JUMPDEST SWAP1 POP DUP1 PUSH1 0xE0 SHL DUP3 PUSH1 0x60 ADD SWAP1 PUSH28 0xFFFFFFFFFFFFFFFFFFFFFFFFFFFFFFFFFFFFFFFFFFFFFFFFFFFFFFFF NOT AND SWAP1 DUP2 PUSH28 0xFFFFFFFFFFFFFFFFFFFFFFFFFFFFFFFFFFFFFFFFFFFFFFFFFFFFFFFF NOT AND DUP2 MSTORE POP POP POP POP POP POP POP JUMP JUMPDEST PUSH1 0x40 MLOAD DUP1 PUSH1 0x80 ADD PUSH1 0x40 MSTORE DUP1 PUSH1 0x0 PUSH20 0xFFFFFFFFFFFFFFFFFFFFFFFFFFFFFFFFFFFFFFFF AND DUP2 MSTORE PUSH1 0x20 ADD PUSH1 0x0 DUP2 MSTORE PUSH1 0x20 ADD PUSH1 0x60 DUP2 MSTORE PUSH1 0x20 ADD PUSH1 0x0 PUSH28 0xFFFFFFFFFFFFFFFFFFFFFFFFFFFFFFFFFFFFFFFFFFFFFFFFFFFFFFFF NOT AND DUP2 MSTORE POP SWAP1 JUMP JUMPDEST PUSH1 0x0 PUSH2 0x2FE PUSH2 0x2F9 DUP5 PUSH2 0x419 JUMP JUMPDEST PUSH2 0x3F4 JUMP JUMPDEST SWAP1 POP DUP3 DUP2 MSTORE PUSH1 0x20 DUP2 ADD DUP5 DUP5 DUP5 ADD GT ISZERO PUSH2 0x31A JUMPI PUSH2 0x319 PUSH2 0x5A2 JUMP JUMPDEST JUMPDEST PUSH2 0x325 DUP5 DUP3 DUP6 PUSH2 0x4D0 JUMP JUMPDEST POP SWAP4 SWAP3 POP POP POP JUMP JUMPDEST PUSH1 0x0 DUP2 CALLDATALOAD SWAP1 POP PUSH2 0x33C DUP2 PUSH2 0x5C2 JUMP JUMPDEST SWAP3 SWAP2 POP POP JUMP JUMPDEST PUSH1 0x0 DUP3 PUSH1 0x1F DUP4 ADD SLT PUSH2 0x357 JUMPI PUSH2 0x356 PUSH2 0x59D JUMP JUMPDEST JUMPDEST DUP2 CALLDATALOAD PUSH2 0x367 DUP5 DUP3 PUSH1 0x20 DUP7 ADD PUSH2 0x2EB JUMP JUMPDEST SWAP2 POP POP SWAP3 SWAP2 POP POP JUMP JUMPDEST PUSH1 0x0 DUP2 CALLDATALOAD SWAP1 POP PUSH2 0x37F DUP2 PUSH2 0x5D9 JUMP JUMPDEST SWAP3 SWAP2 POP POP JUMP JUMPDEST PUSH1 0x0 DUP1 PUSH1 0x0 PUSH1 0x60 DUP5 DUP7 SUB SLT ISZERO PUSH2 0x39E JUMPI PUSH2 0x39D PUSH2 0x5AC JUMP JUMPDEST JUMPDEST PUSH1 0x0 PUSH2 0x3AC DUP7 DUP3 DUP8 ADD PUSH2 0x32D JUMP JUMPDEST SWAP4 POP POP PUSH1 0x20 PUSH2 0x3BD DUP7 DUP3 DUP8 ADD PUSH2 0x370 JUMP JUMPDEST SWAP3 POP POP PUSH1 0x40 DUP5 ADD CALLDATALOAD PUSH8 0xFFFFFFFFFFFFFFFF DUP2 GT ISZERO PUSH2 0x3DE JUMPI PUSH2 0x3DD PUSH2 0x5A7 JUMP JUMPDEST JUMPDEST PUSH2 0x3EA DUP7 DUP3 DUP8 ADD PUSH2 0x342 JUMP JUMPDEST SWAP2 POP POP SWAP3 POP SWAP3 POP SWAP3 JUMP JUMPDEST PUSH1 0x0 PUSH2 0x3FE PUSH2 0x40F JUMP JUMPDEST SWAP1 POP PUSH2 0x40A DUP3 DUP3 PUSH2 0x4DF JUMP JUMPDEST SWAP2 SWAP1 POP JUMP JUMPDEST PUSH1 0x0 PUSH1 0x40 MLOAD SWAP1 POP SWAP1 JUMP JUMPDEST PUSH1 0x0 PUSH8 0xFFFFFFFFFFFFFFFF DUP3 GT ISZERO PUSH2 0x434 JUMPI PUSH2 0x433 PUSH2 0x56E JUMP JUMPDEST JUMPDEST PUSH2 0x43D DUP3 PUSH2 0x5B1 JUMP JUMPDEST SWAP1 POP PUSH1 0x20 DUP2 ADD SWAP1 POP SWAP2 SWAP1 POP JUMP JUMPDEST PUSH1 0x0 PUSH2 0x455 DUP3 PUSH2 0x4C0 JUMP JUMPDEST SWAP2 POP PUSH2 0x460 DUP4 PUSH2 0x4C0 JUMP JUMPDEST SWAP3 POP DUP3 PUSH4 0xFFFFFFFF SUB DUP3 GT ISZERO PUSH2 0x479 JUMPI PUSH2 0x478 PUSH2 0x510 JUMP JUMPDEST JUMPDEST DUP3 DUP3 ADD SWAP1 POP SWAP3 SWAP2 POP POP JUMP JUMPDEST PUSH1 0x0 PUSH2 0x48F DUP3 PUSH2 0x496 JUMP JUMPDEST SWAP1 POP SWAP2 SWAP1 POP JUMP JUMPDEST PUSH1 0x0 PUSH20 0xFFFFFFFFFFFFFFFFFFFFFFFFFFFFFFFFFFFFFFFF DUP3 AND SWAP1 POP SWAP2 SWAP1 POP JUMP JUMPDEST PUSH1 0x0 DUP2 SWAP1 POP SWAP2 SWAP1 POP JUMP JUMPDEST PUSH1 0x0 PUSH4 0xFFFFFFFF DUP3 AND SWAP1 POP SWAP2 SWAP1 POP JUMP JUMPDEST DUP3 DUP2 DUP4 CALLDATACOPY PUSH1 0x0 DUP4 DUP4 ADD MSTORE POP POP POP JUMP JUMPDEST PUSH2 0x4E8 DUP3 PUSH2 0x5B1 JUMP JUMPDEST DUP2 ADD DUP2 DUP2 LT PUSH8 0xFFFFFFFFFFFFFFFF DUP3 GT OR ISZERO PUSH2 0x507 JUMPI PUSH2 0x506 PUSH2 0x56E JUMP JUMPDEST JUMPDEST DUP1 PUSH1 0x40 MSTORE POP POP POP JUMP JUMPDEST PUSH32 0x4E487B7100000000000000000000000000000000000000000000000000000000 PUSH1 0x0 MSTORE PUSH1 0x11 PUSH1 0x4 MSTORE PUSH1 0x24 PUSH1 0x0 REVERT JUMPDEST PUSH32 0x4E487B7100000000000000000000000000000000000000000000000000000000 PUSH1 0x0 MSTORE PUSH1 0x32 PUSH1 0x4 MSTORE PUSH1 0x24 PUSH1 0x0 REVERT JUMPDEST PUSH32 0x4E487B7100000000000000000000000000000000000000000000000000000000 PUSH1 0x0 MSTORE PUSH1 0x41 PUSH1 0x4 MSTORE PUSH1 0x24 PUSH1 0x0 REVERT JUMPDEST PUSH1 0x0 DUP1 REVERT JUMPDEST PUSH1 0x0 DUP1 REVERT JUMPDEST PUSH1 0x0 DUP1 REVERT JUMPDEST PUSH1 0x0 DUP1 REVERT JUMPDEST PUSH1 0x0 PUSH1 0x1F NOT PUSH1 0x1F DUP4 ADD AND SWAP1 POP SWAP2 SWAP1 POP JUMP JUMPDEST PUSH2 0x5CB DUP2 PUSH2 0x484 JUMP JUMPDEST DUP2 EQ PUSH2 0x5D6 JUMPI PUSH1 0x0 DUP1 REVERT JUMPDEST POP JUMP JUMPDEST PUSH2 0x5E2 DUP2 PUSH2 0x4B6 JUMP JUMPDEST DUP2 EQ PUSH2 0x5ED JUMPI PUSH1 0x0 DUP1 REVERT JUMPDEST POP JUMP INVALID LOG2 PUSH5 0x6970667358 0x22 SLT KECCAK256 0x4C 0xBD 0xA9 DUP13 0xEF 0x23 0x2C 0xCC 0xC2 CALLCODE RETURNDATASIZE PUSH1 0x52 0xD3 0xB1 PUSH24 0xBE34EE12EC781D93A4AD699408162EBD64736F6C63430008 SMOD STOP CALLER "
				},
				"gasEstimates": {
					"creation": {
						"codeDepositCost": "314800",
						"executionCost": "355",
						"totalCost": "315155"
					},
					"external": {
						"tokenFallback(address,uint256,bytes)": "infinite"
					}
				},
				"methodIdentifiers": {
					"tokenFallback(address,uint256,bytes)": "c0ee0b8a"
				}
			},
			"storageLayout": {
				"storage": [],
				"types": null
			},
			"userdoc": {
				"kind": "user",
				"methods": {},
				"notice": "ERC223 token compatible contract",
				"version": 1
			}
		}
	}
}