{
  "contractName": "DataTradeContract",
  "abi": [
    {
      "inputs": [
        {
          "internalType": "uint256[]",
          "name": "_registData_vk",
          "type": "uint256[]"
        },
        {
          "internalType": "uint256[]",
          "name": "_orderData_vk",
          "type": "uint256[]"
        },
        {
          "internalType": "uint256[]",
          "name": "_acceptOrder_vk",
          "type": "uint256[]"
        },
        {
          "internalType": "uint256",
          "name": "depth",
          "type": "uint256"
        },
        {
          "internalType": "uint256[]",
          "name": "vk",
          "type": "uint256[]"
        },
        {
          "internalType": "uint256[]",
          "name": "vkNft",
          "type": "uint256[]"
        },
        {
          "internalType": "uint256",
          "name": "price",
          "type": "uint256"
        },
        {
          "internalType": "address",
          "name": "toReceiveFee",
          "type": "address"
        }
      ],
      "stateMutability": "nonpayable",
      "type": "constructor"
    },
    {
      "anonymous": false,
      "inputs": [
        {
          "indexed": false,
          "internalType": "uint256",
          "name": "cm_del",
          "type": "uint256"
        },
        {
          "indexed": false,
          "internalType": "uint256",
          "name": "cm_peer",
          "type": "uint256"
        },
        {
          "indexed": false,
          "internalType": "uint256",
          "name": "index_del",
          "type": "uint256"
        },
        {
          "indexed": false,
          "internalType": "uint256",
          "name": "index_peer",
          "type": "uint256"
        }
      ],
      "name": "LogAcceptTrade",
      "type": "event"
    },
    {
      "anonymous": false,
      "inputs": [
        {
          "indexed": false,
          "internalType": "bytes32",
          "name": "message",
          "type": "bytes32"
        }
      ],
      "name": "LogDebug",
      "type": "event"
    },
    {
      "anonymous": false,
      "inputs": [
        {
          "indexed": false,
          "internalType": "address",
          "name": "tokenAddress",
          "type": "address"
        },
        {
          "indexed": false,
          "internalType": "uint88",
          "name": "tokenId",
          "type": "uint88"
        }
      ],
      "name": "LogNFT",
      "type": "event"
    },
    {
      "anonymous": false,
      "inputs": [
        {
          "indexed": false,
          "internalType": "uint256",
          "name": "addr",
          "type": "uint256"
        },
        {
          "indexed": false,
          "internalType": "uint256",
          "name": "pkOwn",
          "type": "uint256"
        },
        {
          "components": [
            {
              "internalType": "uint256",
              "name": "x",
              "type": "uint256"
            },
            {
              "internalType": "uint256",
              "name": "y",
              "type": "uint256"
            }
          ],
          "indexed": false,
          "internalType": "struct ZklayBase.CurvePoint",
          "name": "pkEnc",
          "type": "tuple"
        }
      ],
      "name": "LogUserRegister",
      "type": "event"
    },
    {
      "anonymous": false,
      "inputs": [
        {
          "indexed": false,
          "internalType": "uint256",
          "name": "nullifier",
          "type": "uint256"
        },
        {
          "indexed": false,
          "internalType": "uint256",
          "name": "com",
          "type": "uint256"
        },
        {
          "indexed": false,
          "internalType": "uint256[9]",
          "name": "ct",
          "type": "uint256[9]"
        },
        {
          "indexed": false,
          "internalType": "uint256",
          "name": "index",
          "type": "uint256"
        },
        {
          "indexed": false,
          "internalType": "address",
          "name": "tokenAddress",
          "type": "address"
        }
      ],
      "name": "LogZkTransfer",
      "type": "event"
    },
    {
      "anonymous": false,
      "inputs": [
        {
          "indexed": false,
          "internalType": "uint256",
          "name": "nullifier",
          "type": "uint256"
        },
        {
          "indexed": false,
          "internalType": "uint256",
          "name": "com",
          "type": "uint256"
        },
        {
          "indexed": false,
          "internalType": "uint256[9]",
          "name": "ct",
          "type": "uint256[9]"
        },
        {
          "indexed": false,
          "internalType": "uint256",
          "name": "index",
          "type": "uint256"
        }
      ],
      "name": "LogZkTransferNft",
      "type": "event"
    },
    {
      "anonymous": false,
      "inputs": [
        {
          "indexed": true,
          "internalType": "address",
          "name": "previousOwner",
          "type": "address"
        },
        {
          "indexed": true,
          "internalType": "address",
          "name": "newOwner",
          "type": "address"
        }
      ],
      "name": "OwnershipTransferred",
      "type": "event"
    },
    {
      "anonymous": false,
      "inputs": [
        {
          "indexed": false,
          "internalType": "address",
          "name": "sender",
          "type": "address"
        },
        {
          "indexed": false,
          "internalType": "uint256",
          "name": "c0",
          "type": "uint256"
        },
        {
          "indexed": false,
          "internalType": "uint256",
          "name": "c1",
          "type": "uint256"
        },
        {
          "indexed": false,
          "internalType": "uint256[]",
          "name": "c2",
          "type": "uint256[]"
        }
      ],
      "name": "logOrder",
      "type": "event"
    },
    {
      "inputs": [
        {
          "internalType": "uint256",
          "name": "index",
          "type": "uint256"
        }
      ],
      "name": "_computeMerklePath",
      "outputs": [
        {
          "internalType": "bytes32[]",
          "name": "",
          "type": "bytes32[]"
        }
      ],
      "stateMutability": "view",
      "type": "function"
    },
    {
      "inputs": [
        {
          "internalType": "uint256",
          "name": "",
          "type": "uint256"
        }
      ],
      "name": "_nodes",
      "outputs": [
        {
          "internalType": "bytes32",
          "name": "",
          "type": "bytes32"
        }
      ],
      "stateMutability": "view",
      "type": "function"
    },
    {
      "inputs": [],
      "name": "getAPK",
      "outputs": [
        {
          "components": [
            {
              "internalType": "uint256",
              "name": "x",
              "type": "uint256"
            },
            {
              "internalType": "uint256",
              "name": "y",
              "type": "uint256"
            }
          ],
          "internalType": "struct ZklayBase.CurvePoint",
          "name": "",
          "type": "tuple"
        },
        {
          "internalType": "uint256",
          "name": "",
          "type": "uint256"
        }
      ],
      "stateMutability": "view",
      "type": "function"
    },
    {
      "inputs": [
        {
          "internalType": "uint256",
          "name": "index",
          "type": "uint256"
        }
      ],
      "name": "getAPKByIndex",
      "outputs": [
        {
          "components": [
            {
              "internalType": "uint256",
              "name": "x",
              "type": "uint256"
            },
            {
              "internalType": "uint256",
              "name": "y",
              "type": "uint256"
            }
          ],
          "internalType": "struct ZklayBase.CurvePoint",
          "name": "",
          "type": "tuple"
        }
      ],
      "stateMutability": "view",
      "type": "function"
    },
    {
      "inputs": [
        {
          "internalType": "uint256",
          "name": "index",
          "type": "uint256"
        }
      ],
      "name": "getAPKfromIndex",
      "outputs": [
        {
          "components": [
            {
              "internalType": "uint256",
              "name": "x",
              "type": "uint256"
            },
            {
              "internalType": "uint256",
              "name": "y",
              "type": "uint256"
            }
          ],
          "internalType": "struct ZklayBase.CurvePoint",
          "name": "",
          "type": "tuple"
        }
      ],
      "stateMutability": "view",
      "type": "function"
    },
    {
      "inputs": [
        {
          "internalType": "address",
          "name": "tokenAddress",
          "type": "address"
        },
        {
          "internalType": "uint256",
          "name": "addr",
          "type": "uint256"
        }
      ],
      "name": "getCiphertext",
      "outputs": [
        {
          "internalType": "uint256",
          "name": "",
          "type": "uint256"
        },
        {
          "internalType": "uint256",
          "name": "",
          "type": "uint256"
        }
      ],
      "stateMutability": "view",
      "type": "function"
    },
    {
      "inputs": [
        {
          "internalType": "uint256",
          "name": "index",
          "type": "uint256"
        }
      ],
      "name": "getMerklePath",
      "outputs": [
        {
          "internalType": "uint256[]",
          "name": "",
          "type": "uint256[]"
        }
      ],
      "stateMutability": "view",
      "type": "function"
    },
    {
      "inputs": [],
      "name": "getRootTop",
      "outputs": [
        {
          "internalType": "uint256",
          "name": "",
          "type": "uint256"
        }
      ],
      "stateMutability": "view",
      "type": "function"
    },
    {
      "inputs": [
        {
          "internalType": "address",
          "name": "eoa",
          "type": "address"
        }
      ],
      "name": "getUserPublicKeys",
      "outputs": [
        {
          "internalType": "uint256",
          "name": "",
          "type": "uint256"
        },
        {
          "internalType": "uint256",
          "name": "",
          "type": "uint256"
        },
        {
          "components": [
            {
              "internalType": "uint256",
              "name": "x",
              "type": "uint256"
            },
            {
              "internalType": "uint256",
              "name": "y",
              "type": "uint256"
            }
          ],
          "internalType": "struct ZklayBase.CurvePoint",
          "name": "",
          "type": "tuple"
        }
      ],
      "stateMutability": "view",
      "type": "function"
    },
    {
      "inputs": [],
      "name": "getZkTransferFee",
      "outputs": [
        {
          "internalType": "uint256",
          "name": "",
          "type": "uint256"
        }
      ],
      "stateMutability": "view",
      "type": "function"
    },
    {
      "inputs": [],
      "name": "getZkTransferFeeAddress",
      "outputs": [
        {
          "internalType": "address",
          "name": "",
          "type": "address"
        }
      ],
      "stateMutability": "view",
      "type": "function"
    },
    {
      "inputs": [
        {
          "internalType": "uint256",
          "name": "nf",
          "type": "uint256"
        }
      ],
      "name": "isNullified",
      "outputs": [
        {
          "internalType": "bool",
          "name": "",
          "type": "bool"
        }
      ],
      "stateMutability": "view",
      "type": "function"
    },
    {
      "inputs": [
        {
          "internalType": "address",
          "name": "operator",
          "type": "address"
        },
        {
          "internalType": "address",
          "name": "from",
          "type": "address"
        },
        {
          "internalType": "uint256[]",
          "name": "ids",
          "type": "uint256[]"
        },
        {
          "internalType": "uint256[]",
          "name": "values",
          "type": "uint256[]"
        },
        {
          "internalType": "bytes",
          "name": "data",
          "type": "bytes"
        }
      ],
      "name": "onERC1155BatchReceived",
      "outputs": [
        {
          "internalType": "bytes4",
          "name": "",
          "type": "bytes4"
        }
      ],
      "stateMutability": "view",
      "type": "function"
    },
    {
      "inputs": [
        {
          "internalType": "address",
          "name": "operator",
          "type": "address"
        },
        {
          "internalType": "address",
          "name": "from",
          "type": "address"
        },
        {
          "internalType": "uint256",
          "name": "id",
          "type": "uint256"
        },
        {
          "internalType": "uint256",
          "name": "value",
          "type": "uint256"
        },
        {
          "internalType": "bytes",
          "name": "data",
          "type": "bytes"
        }
      ],
      "name": "onERC1155Received",
      "outputs": [
        {
          "internalType": "bytes4",
          "name": "",
          "type": "bytes4"
        }
      ],
      "stateMutability": "view",
      "type": "function"
    },
    {
      "inputs": [
        {
          "internalType": "address",
          "name": "operator",
          "type": "address"
        },
        {
          "internalType": "address",
          "name": "from",
          "type": "address"
        },
        {
          "internalType": "uint256",
          "name": "tokenId",
          "type": "uint256"
        },
        {
          "internalType": "bytes",
          "name": "data",
          "type": "bytes"
        }
      ],
      "name": "onERC721Received",
      "outputs": [
        {
          "internalType": "bytes4",
          "name": "",
          "type": "bytes4"
        }
      ],
      "stateMutability": "view",
      "type": "function"
    },
    {
      "inputs": [],
      "name": "owner",
      "outputs": [
        {
          "internalType": "address",
          "name": "",
          "type": "address"
        }
      ],
      "stateMutability": "view",
      "type": "function"
    },
    {
      "inputs": [
        {
          "internalType": "uint256[]",
          "name": "apk",
          "type": "uint256[]"
        }
      ],
      "name": "registerAuditor",
      "outputs": [],
      "stateMutability": "nonpayable",
      "type": "function"
    },
    {
      "inputs": [
        {
          "internalType": "address",
          "name": "tokenAddress",
          "type": "address"
        }
      ],
      "name": "registerToken",
      "outputs": [],
      "stateMutability": "nonpayable",
      "type": "function"
    },
    {
      "inputs": [
        {
          "internalType": "uint256",
          "name": "addr",
          "type": "uint256"
        },
        {
          "internalType": "uint256",
          "name": "pkOwn",
          "type": "uint256"
        },
        {
          "internalType": "uint256[]",
          "name": "pkEnc",
          "type": "uint256[]"
        }
      ],
      "name": "registerUser",
      "outputs": [],
      "stateMutability": "nonpayable",
      "type": "function"
    },
    {
      "inputs": [],
      "name": "renounceOwnership",
      "outputs": [],
      "stateMutability": "nonpayable",
      "type": "function"
    },
    {
      "inputs": [
        {
          "internalType": "address",
          "name": "addr",
          "type": "address"
        }
      ],
      "name": "setAzerothPriceAddress",
      "outputs": [],
      "stateMutability": "nonpayable",
      "type": "function"
    },
    {
      "inputs": [
        {
          "internalType": "uint256",
          "name": "price",
          "type": "uint256"
        }
      ],
      "name": "setZkTransferFee",
      "outputs": [],
      "stateMutability": "nonpayable",
      "type": "function"
    },
    {
      "inputs": [
        {
          "internalType": "address",
          "name": "from",
          "type": "address"
        },
        {
          "internalType": "uint256",
          "name": "value",
          "type": "uint256"
        },
        {
          "internalType": "bytes",
          "name": "data",
          "type": "bytes"
        }
      ],
      "name": "tokenFallback",
      "outputs": [],
      "stateMutability": "pure",
      "type": "function"
    },
    {
      "inputs": [
        {
          "internalType": "address",
          "name": "newOwner",
          "type": "address"
        }
      ],
      "name": "transferOwnership",
      "outputs": [],
      "stateMutability": "nonpayable",
      "type": "function"
    },
    {
      "inputs": [
        {
          "internalType": "uint256[]",
          "name": "proof",
          "type": "uint256[]"
        },
        {
          "internalType": "uint256[]",
          "name": "inputs",
          "type": "uint256[]"
        },
        {
          "internalType": "address",
          "name": "toEoA",
          "type": "address"
        },
        {
          "internalType": "address",
          "name": "tokenAddress",
          "type": "address"
        }
      ],
      "name": "zkTransfer",
      "outputs": [],
      "stateMutability": "payable",
      "type": "function"
    },
    {
      "inputs": [
        {
          "internalType": "uint256[]",
          "name": "proof",
          "type": "uint256[]"
        },
        {
          "internalType": "uint256[]",
          "name": "inputs",
          "type": "uint256[]"
        },
        {
          "internalType": "address",
          "name": "toEoA",
          "type": "address"
        }
      ],
      "name": "zkTransferNft",
      "outputs": [],
      "stateMutability": "payable",
      "type": "function"
    },
    {
      "inputs": [
        {
          "internalType": "uint256",
          "name": "pk_own",
          "type": "uint256"
        },
        {
          "internalType": "uint256",
          "name": "pk_enc",
          "type": "uint256"
        },
        {
          "internalType": "address",
          "name": "eoa",
          "type": "address"
        }
      ],
      "name": "registUserByDelegator",
      "outputs": [],
      "stateMutability": "payable",
      "type": "function"
    },
    {
      "inputs": [
        {
          "internalType": "uint256",
          "name": "pk_own",
          "type": "uint256"
        },
        {
          "internalType": "uint256",
          "name": "pk_enc",
          "type": "uint256"
        }
      ],
      "name": "registUser",
      "outputs": [],
      "stateMutability": "payable",
      "type": "function"
    },
    {
      "inputs": [
        {
          "internalType": "uint256",
          "name": "addr",
          "type": "uint256"
        },
        {
          "internalType": "uint256",
          "name": "pk_own",
          "type": "uint256"
        },
        {
          "internalType": "uint256",
          "name": "pk_enc",
          "type": "uint256"
        },
        {
          "internalType": "address",
          "name": "eoa",
          "type": "address"
        }
      ],
      "name": "_registUser",
      "outputs": [],
      "stateMutability": "payable",
      "type": "function"
    },
    {
      "inputs": [
        {
          "internalType": "uint256",
          "name": "addr",
          "type": "uint256"
        }
      ],
      "name": "isRegisteredUser",
      "outputs": [
        {
          "internalType": "bool",
          "name": "",
          "type": "bool"
        }
      ],
      "stateMutability": "view",
      "type": "function"
    },
    {
      "inputs": [
        {
          "internalType": "uint256[]",
          "name": "proof",
          "type": "uint256[]"
        },
        {
          "internalType": "uint256[]",
          "name": "inputs",
          "type": "uint256[]"
        }
      ],
      "name": "registData",
      "outputs": [
        {
          "internalType": "bool",
          "name": "",
          "type": "bool"
        }
      ],
      "stateMutability": "nonpayable",
      "type": "function"
    },
    {
      "inputs": [
        {
          "internalType": "uint256",
          "name": "_hct",
          "type": "uint256"
        }
      ],
      "name": "isRegistered",
      "outputs": [
        {
          "internalType": "bool",
          "name": "",
          "type": "bool"
        }
      ],
      "stateMutability": "view",
      "type": "function"
    },
    {
      "inputs": [
        {
          "internalType": "uint256[]",
          "name": "proof",
          "type": "uint256[]"
        },
        {
          "internalType": "uint256[]",
          "name": "inputs",
          "type": "uint256[]"
        },
        {
          "internalType": "address",
          "name": "tokenAddress",
          "type": "address"
        }
      ],
      "name": "orderData",
      "outputs": [
        {
          "internalType": "bool",
          "name": "",
          "type": "bool"
        }
      ],
      "stateMutability": "payable",
      "type": "function"
    },
    {
      "inputs": [
        {
          "internalType": "uint256[]",
          "name": "proof",
          "type": "uint256[]"
        },
        {
          "internalType": "uint256[]",
          "name": "inputs",
          "type": "uint256[]"
        }
      ],
      "name": "acceptOrder",
      "outputs": [
        {
          "internalType": "bool",
          "name": "",
          "type": "bool"
        }
      ],
      "stateMutability": "nonpayable",
      "type": "function"
    },
    {
      "inputs": [
        {
          "internalType": "address",
          "name": "tokenAddress",
          "type": "address"
        },
        {
          "internalType": "uint256",
          "name": "addr",
          "type": "uint256"
        },
        {
          "internalType": "uint256",
          "name": "ena_r",
          "type": "uint256"
        },
        {
          "internalType": "uint256",
          "name": "ena_ct",
          "type": "uint256"
        }
      ],
      "name": "setENA",
      "outputs": [
        {
          "internalType": "bool",
          "name": "",
          "type": "bool"
        }
      ],
      "stateMutability": "payable",
      "type": "function"
    }
  ],
  "bytecode": "0x608060405260006007556000600e55630bebc2006016553480156200002357600080fd5b5060405162004e1738038062004e178339810160408190526200004691620005d3565b60008590558484848484846200005e81600262000721565b6001818155906200007190600262000809565b6200007d91906200082b565b6002556000546001600160401b03811115620000a957634e487b7160e01b600052604160045260246000fd5b604051908082528060200260200182016040528015620000d3578160200160208202803683370190505b508051620000ea91600491602090910190620004a9565b50620000f562000210565b50620001013362000389565b60008051602062004df7833981519152546000818152600960209081526040909120805460ff19166001179055600f8290558551620001479160139190880190620004a9565b5083516200015d906014906020870190620004a9565b505060008052601560209081527fa31547ce6245cdb9ecea19cf8c7eb9f5974025bb4075011409251ae855b30aed805460ff19166001179055600792909255600880546001600160a01b03929092166001600160a01b03199092169190911790558b51620001d59450601c9350908c019150620004a9565b508651620001eb90601d9060208a0190620004a9565b5085516200020190601e906020890190620004a9565b5050505050505050506200088f565b6000801b60046000815481106200023757634e487b7160e01b600052603260045260246000fd5b60009182526020909120015560015b6000548110156200031857620002d56004620002646001846200082b565b815481106200028357634e487b7160e01b600052603260045260246000fd5b906000526020600020015460046001846200029f91906200082b565b81548110620002be57634e487b7160e01b600052603260045260246000fd5b9060005260206000200154620003db60201b60201c565b60048281548110620002f757634e487b7160e01b600052603260045260246000fd5b600091825260209091200155806200030f8162000845565b91505062000246565b506200036d600460016000546200033091906200082b565b815481106200034f57634e487b7160e01b600052603260045260246000fd5b9060005260206000200154600460016000546200029f91906200082b565b60008052600360205260008051602062004df783398151915255565b600680546001600160a01b038381166001600160a01b0319831681179093556040519116919082907f8be0079c531659141344cd1fd0a4f28419497f9722a3daafe3b4186f6b6457e090600090a35050565b6000620003f48383620003fb60201b620029e31760201c565b9392505050565b60007f30644e72e131a029b85045b68181585d2833e84879b9709143e1f593f000000180838508818182098282848386858609090991507faed26d6a3f5e0ea662411ddfcde3527479de9cee7a56c656ff5f61df13a3940160005260005b605a81121562000491576020600020806000528487868387080893505083838409915083838584878687090909925060010162000459565b50508184820890508184838784080895945050505050565b828054828255906000526020600020908101928215620004e7579160200282015b82811115620004e7578251825591602001919060010190620004ca565b50620004f5929150620004f9565b5090565b5b80821115620004f55760008155600101620004fa565b80516001600160a01b03811681146200052857600080fd5b919050565b600082601f8301126200053e578081fd5b815160206001600160401b03808311156200055d576200055d62000879565b818302604051601f19603f8301168101818110848211171562000584576200058462000879565b60405284815283810192508684018288018501891015620005a3578687fd5b8692505b85831015620005c7578051845292840192600192909201918401620005a7565b50979650505050505050565b600080600080600080600080610100898b031215620005f0578384fd5b88516001600160401b038082111562000607578586fd5b620006158c838d016200052d565b995060208b01519150808211156200062b578586fd5b620006398c838d016200052d565b985060408b01519150808211156200064f578586fd5b6200065d8c838d016200052d565b975060608b0151965060808b01519150808211156200067a578586fd5b620006888c838d016200052d565b955060a08b01519150808211156200069e578485fd5b50620006ad8b828c016200052d565b93505060c08901519150620006c560e08a0162000510565b90509295985092959890939650565b80825b6001808611620006e8575062000718565b818704821115620006fd57620006fd62000863565b808616156200070b57918102915b9490941c938002620006d7565b94509492505050565b6000620003f460001984846000826200073d57506001620003f4565b816200074c57506000620003f4565b81600181146200076557600281146200077057620007a4565b6001915050620003f4565b60ff84111562000784576200078462000863565b6001841b9150848211156200079d576200079d62000863565b50620003f4565b5060208310610133831016604e8410600b8410161715620007dc575081810a83811115620007d657620007d662000863565b620003f4565b620007eb8484846001620006d4565b80860482111562000800576200080062000863565b02949350505050565b600081600019048311821515161562000826576200082662000863565b500290565b60008282101562000840576200084062000863565b500390565b60006000198214156200085c576200085c62000863565b5060010190565b634e487b7160e01b600052601160045260246000fd5b634e487b7160e01b600052604160045260246000fd5b614558806200089f6000396000f3fe6080604052600436106102045760003560e01c806382135d2c11610118578063c0b8776d116100a0578063d270ecdf1161006f578063d270ecdf14610601578063e4b808cb14610621578063e5e678ea14610656578063f23a6e6114610676578063f2fde38b146106a357610204565b8063c0b8776d14610586578063c0ee0b8a14610599578063c48a13e1146105b9578063d12ad3e1146105cc57610204565b80639d846971116100e75780639d846971146104f1578063a6bb878d14610504578063ad2ff29614610524578063bc197c8114610537578063bffa69301461056657610204565b806382135d2c1461048b578063882712ab146104ab5780638da5cb5b146104be578063941f0c41146104dc57610204565b806355ba20e31161019b57806363dc5ecb1161016a57806363dc5ecb14610407578063645e14151461041a5780636e4d651714610449578063715018a6146104765780637d3f194b1461037a57610204565b806355ba20e31461036557806356e638401461037a578063579a6988146103a757806361318952146103d757610204565b806318cf4630116101d757806318cf4630146102d75780631a422550146102f757806322f05074146103175780632e7d754b1461032a57610204565b8063067922a81461020957806309824a80146102405780631116854514610262578063150b7a0214610292575b600080fd5b34801561021557600080fd5b506008546001600160a01b03165b6040516001600160a01b0390911681526020015b60405180910390f35b34801561024c57600080fd5b5061026061025b366004613bbb565b6106c3565b005b34801561026e57600080fd5b5061028261027d366004613ea8565b6107aa565b6040519015158152602001610237565b34801561029e57600080fd5b506102be6102ad366004613c8b565b630a85bd0160e11b95945050505050565b6040516001600160e01b03199091168152602001610237565b3480156102e357600080fd5b506102606102f2366004613bbb565b6109e2565b34801561030357600080fd5b50610282610312366004613ff9565b610a0c565b610282610325366004613e3e565b610a24565b34801561033657600080fd5b50610357610345366004613ff9565b60036020526000908152604090205481565b604051908152602001610237565b34801561037157600080fd5b50600f54610357565b34801561038657600080fd5b5061039a610395366004613ff9565b610aa6565b604051610237919061425c565b3480156103b357600080fd5b506102826103c2366004613ff9565b60009081526017602052604090205460ff1690565b3480156103e357600080fd5b506102826103f2366004613ff9565b6000908152600a602052604090205460ff1690565b610260610415366004613f78565b610b2d565b34801561042657600080fd5b5061043a610435366004613bbb565b61126b565b604051610237939291906142de565b34801561045557600080fd5b50610469610464366004613ff9565b6112d3565b6040516102379190614100565b34801561048257600080fd5b506102606113b3565b34801561049757600080fd5b506102826104a6366004613ea8565b6113c7565b6102606104b9366004614011565b611787565b3480156104ca57600080fd5b506006546001600160a01b0316610223565b3480156104e857600080fd5b50600754610357565b6102606104ff3660046140aa565b6117a8565b34801561051057600080fd5b5061026061051f366004613ff9565b611933565b610282610532366004613f08565b611940565b34801561054357600080fd5b506102be610552366004613bd5565b63bc197c8160e01b98975050505050505050565b34801561057257600080fd5b5061026061058136600461405d565b611ddd565b610260610594366004613f08565b611f32565b3480156105a557600080fd5b506102606105b4366004613d95565b61243f565b6102606105c7366004614032565b612593565b3480156105d857600080fd5b506105e16125bd565b604080518351815260209384015193810193909352820152606001610237565b34801561060d57600080fd5b5061026061061c366004613e76565b6126dd565b34801561062d57600080fd5b5061064161063c366004613d6c565b612791565b60408051928352602083019190915201610237565b34801561066257600080fd5b50610469610671366004613ff9565b61285d565b34801561068257600080fd5b506102be610691366004613cf7565b63f23a6e6160e01b9695505050505050565b3480156106af57600080fd5b506102606106be366004613bbb565b61296a565b6106cb612a8f565b6001600160a01b0381166107265760405162461bcd60e51b815260206004820152601f60248201527f43616e6e6f742072656769737465722061646472657373206f66207a65726f0060448201526064015b60405180910390fd5b6001600160a01b03811660009081526015602052604090205460ff16156107865760405162461bcd60e51b8152602060048201526014602482015273546f6b656e20616c72656164792065786973747360601b604482015260640161071d565b6001600160a01b03166000908152601560205260409020805460ff19166001179055565b600060048251146107f45760405162461bcd60e51b81526020600482015260146024820152730d2dcecc2d8d2c84092dce0eae840d8cadccee8d60631b604482015260640161071d565b601760008360038151811061081957634e487b7160e01b600052603260045260246000fd5b60209081029190910181015182528101919091526040016000205460ff16156108845760405162461bcd60e51b815260206004820152601760248201527f616c7265616479207265676973746572656420685f6374000000000000000000604482015260640161071d565b60408051600480825260a082019092526000916020820160808036833701905050905060005b6004811015610918578381815181106108d357634e487b7160e01b600052603260045260246000fd5b60200260200101518282815181106108fb57634e487b7160e01b600052603260045260246000fd5b602090810291909101015280610910816144db565b9150506108aa565b50610925601c8583612ae9565b6109415760405162461bcd60e51b815260040161071d90614235565b6001601760008360038151811061096857634e487b7160e01b600052603260045260246000fd5b6020026020010151815260200190815260200160002060006101000a81548160ff02191690831515021790555060176000826003815181106109ba57634e487b7160e01b600052603260045260246000fd5b60209081029190910181015182528101919091526040016000205460ff169150505b92915050565b6109ea612a8f565b600880546001600160a01b0319166001600160a01b0392909216919091179055565b60008181526018602052604090205460ff165b919050565b6001600160a01b038416600090815260156020526040812054859060ff16610a5e5760405162461bcd60e51b815260040161071d90614144565b505060408051808201825292835260208084019283526001600160a01b0395909516600090815260128652818120948152939094529290912090518155905160019182015590565b60408051808201909152600080825260208201526000828152600d602052604090205415801590610ae757506000828152600d602052604090206001015415155b610b035760405162461bcd60e51b815260040161071d90614172565b506000908152600d6020908152604091829020825180840190935280548352600101549082015290565b6001600160a01b038116600090815260156020526040902054819060ff16610b675760405162461bcd60e51b815260040161071d90614144565b83600081518110610b8857634e487b7160e01b600052603260045260246000fd5b602002602001015184600181518110610bb157634e487b7160e01b600052603260045260246000fd5b60200260200101516000600b6000015414158015610bd05750600c5415155b610bec5760405162461bcd60e51b815260040161071d90614172565b60008281526009602052604090205460ff16610c435760405162461bcd60e51b8152602060048201526016602482015275151a1a5cc81c9bdbdd081a5cc81b9bdd081d985b1a5960521b604482015260640161071d565b6000818152600a602052604090205460ff1615610c725760405162461bcd60e51b815260040161071d906141f1565b600086600281518110610c9557634e487b7160e01b600052603260045260246000fd5b6020908102919091018101516000818152601090925260409091205490915060ff16610d195760405162461bcd60e51b815260206004820152602d60248201527f496e76616c696420557365723a2054686520757365722069736e607420696e2060448201526c1d1a19481d5cd95c881b1a5cdd609a1b606482015260840161071d565b6001600160a01b038516600090815260126020908152604080832084845282528083208151808301835281548152600190910154818401528151600480825260a082019093529093929091908201608080368337019050509050600b6000015481600081518110610d9a57634e487b7160e01b600052603260045260246000fd5b602002602001018181525050600b6001015481600181518110610dcd57634e487b7160e01b600052603260045260246000fd5b602002602001018181525050816000015181600281518110610dff57634e487b7160e01b600052603260045260246000fd5b602002602001018181525050816020015181600381518110610e3157634e487b7160e01b600052603260045260246000fd5b602002602001018181525050610e528a610e4b838c612f75565b6000613128565b610e6e5760405162461bcd60e51b815260040161071d9061419e565b610ea289600681518110610e9257634e487b7160e01b600052603260045260246000fd5b602002602001015160001b613157565b6000610eae60016131ff565b9050610eb981613273565b6001600a60008c600181518110610ee057634e487b7160e01b600052603260045260246000fd5b6020026020010151815260200190815260200160002060006101000a81548160ff02191690831515021790555060006040518061012001604052808c600b81518110610f3c57634e487b7160e01b600052603260045260246000fd5b602002602001015181526020018c600c81518110610f6a57634e487b7160e01b600052603260045260246000fd5b602002602001015181526020018c600d81518110610f9857634e487b7160e01b600052603260045260246000fd5b602002602001015181526020018c600e81518110610fc657634e487b7160e01b600052603260045260246000fd5b602002602001015181526020018c600f81518110610ff457634e487b7160e01b600052603260045260246000fd5b602002602001015181526020018c60108151811061102257634e487b7160e01b600052603260045260246000fd5b602002602001015181526020018c60118151811061105057634e487b7160e01b600052603260045260246000fd5b602002602001015181526020018c60128151811061107e57634e487b7160e01b600052603260045260246000fd5b602002602001015181526020018c6013815181106110ac57634e487b7160e01b600052603260045260246000fd5b602002602001015181525090507fdd274a8f09bac9a675f0f4da725a1975aa8140edcddc6254e09c6d15fa0033328b6001815181106110fb57634e487b7160e01b600052603260045260246000fd5b60200260200101518c60068151811061112457634e487b7160e01b600052603260045260246000fd5b6020026020010151836005548d60405161114295949392919061429f565b60405180910390a16111b960405180604001604052808d60098151811061117957634e487b7160e01b600052603260045260246000fd5b602002602001015181526020018d600a815181106111a757634e487b7160e01b600052603260045260246000fd5b60200260200101518152508b8b613291565b6111c161359f565b60405180604001604052808c6007815181106111ed57634e487b7160e01b600052603260045260246000fd5b602002602001015181526020018c60088151811061121b57634e487b7160e01b600052603260045260246000fd5b6020908102919091018101519091526001600160a01b03909a16600090815260128b526040808220978252968b529590952085518155949098015160019094019390935550505050505050505050565b60008061128b604051806040016040528060008152602001600081525090565b5050506001600160a01b031660009081526011602090815260409182902080546001820154845180860190955260028301548552600390920154928401929092529092909190565b606060006112e08361285d565b9050600080546001600160401b0381111561130b57634e487b7160e01b600052604160045260246000fd5b604051908082528060200260200182016040528015611334578160200160208202803683370190505b50905060005b82518110156113ab5782818151811061136357634e487b7160e01b600052603260045260246000fd5b602002602001015160001c82828151811061138e57634e487b7160e01b600052603260045260246000fd5b6020908102919091010152806113a3816144db565b91505061133a565b509392505050565b6113bb612a8f565b6113c56000613644565b565b600060088251146114125760405162461bcd60e51b81526020600482015260156024820152740d2dcecc2d8d2c84092dce0eae8e640d8cadccee8d605b1b604482015260640161071d565b601b60008360018151811061143757634e487b7160e01b600052603260045260246000fd5b60209081029190910181015182528101919091526040016000205460ff166114905760405162461bcd60e51b815260206004820152600c60248201526b18db4c081b9bc8195e1a5cdd60a21b604482015260640161071d565b601b6000836002815181106114b557634e487b7160e01b600052603260045260246000fd5b60209081029190910181015182528101919091526040016000205460ff1661150e5760405162461bcd60e51b815260206004820152600c60248201526b18db4c481b9bc8195e1a5cdd60a21b604482015260640161071d565b6040805160088082526101208201909252600091602082016101008036833701905050905060005b60088110156115a45783818151811061155f57634e487b7160e01b600052603260045260246000fd5b602002602001015182828151811061158757634e487b7160e01b600052603260045260246000fd5b60209081029190910101528061159c816144db565b915050611536565b506115b1601e8583612ae9565b6115cd5760405162461bcd60e51b815260040161071d90614235565b6000601b6000836001815181106115f457634e487b7160e01b600052603260045260246000fd5b6020026020010151815260200190815260200160002060006101000a81548160ff0219169083151502179055506000601b60008360028151811061164857634e487b7160e01b600052603260045260246000fd5b6020026020010151815260200190815260200160002060006101000a81548160ff02191690831515021790555061169981600381518110610e9257634e487b7160e01b600052603260045260246000fd5b6116bd81600481518110610e9257634e487b7160e01b600052603260045260246000fd5b60006116c960026131ff565b90506116d481613273565b7fbb70382e61d38b1076f8f02be1fc48261e021e4aa44bb9b030e83fcb485c2f7a8260038151811061171657634e487b7160e01b600052603260045260246000fd5b60200260200101518360048151811061173f57634e487b7160e01b600052603260045260246000fd5b6020026020010151600160055461175691906144c4565b60055460408051948552602085019390935291830152606082015260800160405180910390a1506001949350505050565b336000818152601160205260409020546117a491849084906117a8565b5050565b60008481526010602052604090205460ff166118065760405162461bcd60e51b815260206004820152601b60248201527f417a65726f746820557365722064656f73206e6f742065786973740000000000604482015260640161071d565b6001600160a01b0381166000908152601960209081526040808320548352601890915290205460ff161561187c5760405162461bcd60e51b815260206004820152601860248201527f6d73672e73656e64657220616c72656164792065786973740000000000000000604482015260640161071d565b60008481526018602052604090205460ff16156118d05760405162461bcd60e51b8152602060048201526012602482015271155cd95c88185b1c9958591e48195e1a5cdd60721b604482015260640161071d565b6000848152601860209081526040808320805460ff191660019081179091556001600160a01b0390941680845260198352818420978855938701949094556002909501849055928352601a909352902080546001600160a01b0319169091179055565b61193b612a8f565b600755565b6000600e83511461198a5760405162461bcd60e51b81526020600482015260146024820152730d2dcecc2d8d2c84092dce0eae840d8cadccee8d60631b604482015260640161071d565b601b6000846003815181106119af57634e487b7160e01b600052603260045260246000fd5b60209081029190910181015182528101919091526040016000205460ff1615611a115760405162461bcd60e51b815260206004820152601460248201527330b63932b0b23c9032bc34b9ba1031b6afb7bbb760611b604482015260640161071d565b601b600084600481518110611a3657634e487b7160e01b600052603260045260246000fd5b60209081029190910181015182528101919091526040016000205460ff1615611a985760405162461bcd60e51b8152602060048201526014602482015273185b1c9958591e48195e1a5cdd0818db57d9195b60621b604482015260640161071d565b82600581518110611ab957634e487b7160e01b600052603260045260246000fd5b6020908102919091018101516001600160a01b038416600090815260128352604080822033835260118552818320548352909352919091205414611b305760405162461bcd60e51b815260206004820152600e60248201526d696e76616c696420454e4128722960901b604482015260640161071d565b82600681518110611b5157634e487b7160e01b600052603260045260246000fd5b6020908102919091018101516001600160a01b038416600090815260128352604080822033835260118552818320548352909352919091206001015414611bcc5760405162461bcd60e51b815260206004820152600f60248201526e696e76616c696420454e412863742960881b604482015260640161071d565b60408051600e8082526101e08201909252600091602082016101c08036833701905050905060005b600e811015611c6257848181518110611c1d57634e487b7160e01b600052603260045260246000fd5b6020026020010151828281518110611c4557634e487b7160e01b600052603260045260246000fd5b602090810291909101015280611c5a816144db565b915050611bf4565b50611c6f601d8683612ae9565b611c8b5760405162461bcd60e51b815260040161071d90614235565b6001601b600086600381518110611cb257634e487b7160e01b600052603260045260246000fd5b6020026020010151815260200190815260200160002060006101000a81548160ff0219169083151502179055506001601b600086600481518110611d0657634e487b7160e01b600052603260045260246000fd5b6020026020010151815260200190815260200160002060006101000a81548160ff021916908315150217905550604051806040016040528085600781518110611d5f57634e487b7160e01b600052603260045260246000fd5b6020026020010151815260200185600881518110611d8d57634e487b7160e01b600052603260045260246000fd5b6020908102919091018101519091526001600160a01b03851660009081526012825260408082203383526011845281832054835283529020825181559101516001918201559150505b9392505050565b60008381526010602052604090205460ff1615611e315760405162461bcd60e51b8152602060048201526012602482015271155cd95c88185b1c9958591e48195e1a5cdd60721b604482015260640161071d565b6000838152601060209081526040808320805460ff19166001908117909155338452601190925280832086815590910184905580518082019091528251819084908490611e8e57634e487b7160e01b600052603260045260246000fd5b6020026020010151815260200183600181518110611ebc57634e487b7160e01b600052603260045260246000fd5b602090810291909101810151909152336000908152601182526040908190208351600282015591830151600390920191909155519091507f5d896b64597a7e2b976482836cafa74ffe64edaabd18611d718d0e81920dc50f90611f24908690869085906142de565b60405180910390a150505050565b81600081518110611f5357634e487b7160e01b600052603260045260246000fd5b602002602001015182600181518110611f7c57634e487b7160e01b600052603260045260246000fd5b60200260200101516000600b6000015414158015611f9b5750600c5415155b611fb75760405162461bcd60e51b815260040161071d90614172565b60008281526009602052604090205460ff1661200e5760405162461bcd60e51b8152602060048201526016602482015275151a1a5cc81c9bdbdd081a5cc81b9bdd081d985b1a5960521b604482015260640161071d565b6000818152600a602052604090205460ff161561203d5760405162461bcd60e51b815260040161071d906141f1565b604080516002808252606082018352600092602083019080368337019050509050600b600001548160008151811061208557634e487b7160e01b600052603260045260246000fd5b602002602001018181525050600b60010154816001815181106120b857634e487b7160e01b600052603260045260246000fd5b6020026020010181815250506120d9866120d28388612f75565b6001613128565b6120f55760405162461bcd60e51b815260040161071d9061419e565b61211985600681518110610e9257634e487b7160e01b600052603260045260246000fd5b600061212560016131ff565b905061213081613273565b6001600a60008860018151811061215757634e487b7160e01b600052603260045260246000fd5b6020026020010151815260200190815260200160002060006101000a81548160ff0219169083151502179055506000604051806101200160405280886009815181106121b357634e487b7160e01b600052603260045260246000fd5b6020026020010151815260200188600a815181106121e157634e487b7160e01b600052603260045260246000fd5b6020026020010151815260200188600b8151811061220f57634e487b7160e01b600052603260045260246000fd5b6020026020010151815260200188600c8151811061223d57634e487b7160e01b600052603260045260246000fd5b6020026020010151815260200188600d8151811061226b57634e487b7160e01b600052603260045260246000fd5b6020026020010151815260200188600e8151811061229957634e487b7160e01b600052603260045260246000fd5b6020026020010151815260200188600f815181106122c757634e487b7160e01b600052603260045260246000fd5b60200260200101518152602001886010815181106122f557634e487b7160e01b600052603260045260246000fd5b602002602001015181526020018860118151811061232357634e487b7160e01b600052603260045260246000fd5b602002602001015181525090507fae22b5eb914c897f4ad77dbe0533a3ee0921add0bb4405c1e246dbec3ba961968760018151811061237257634e487b7160e01b600052603260045260246000fd5b60200260200101518860068151811061239b57634e487b7160e01b600052603260045260246000fd5b6020026020010151836005546040516123b79493929190614273565b60405180910390a161242d6040518060400160405280896007815181106123ee57634e487b7160e01b600052603260045260246000fd5b602002602001015181526020018960088151811061241c57634e487b7160e01b600052603260045260246000fd5b602002602001015181525087613696565b61243561359f565b5050505050505050565b604080516080810182526000606082018190526001600160a01b03861682526020820185905291810183905282519091906018908490600390811061249457634e487b7160e01b600052603260045260246000fd5b016020015184516001600160f81b031990911690911c60e01c90601090859060029081106124d257634e487b7160e01b600052603260045260246000fd5b016020015185516001600160f81b031990911690911c60e01c906008908690600190811061251057634e487b7160e01b600052603260045260246000fd5b016020015186516001600160f81b031990911690911c60e01c90869060009061254957634e487b7160e01b600052603260045260246000fd5b602091010151612562919060e01c63ff00000016614349565b61256c9190614349565b6125769190614349565b60e01b6001600160e01b0319166060929092019190915250505050565b6001600160a01b0381166000908152601160205260409020546125b8908484846117a8565b505050565b6040805180820190915260008082526020820152600b54600090158015906125e65750600c5415155b6126025760405162461bcd60e51b815260040161071d90614172565b600d60006001600e5461261591906144c4565b8152602081019190915260400160002054600b5414801561265e5750600d60006001600e5461264491906144c4565b815260200190815260200160002060010154600b60010154145b6126aa5760405162461bcd60e51b815260206004820152601e60248201527f353030204572726f722c2041504b20736f6d657468696e672077726f6e670000604482015260640161071d565b600b6001600e546126bb91906144c4565b6040805180820190915282548152600190920154602083015290925090509091565b6126e5612a8f565b60405180604001604052808260008151811061271157634e487b7160e01b600052603260045260246000fd5b602002602001015181526020018260018151811061273f57634e487b7160e01b600052603260045260246000fd5b602090810291909101810151909152600e80546000908152600d8352604080822085518155949093015160019485015590548082529190208054600b55820154600c5561278b91614331565b600e5550565b6001600160a01b0382166000908152601560205260408120548190849060ff166127cd5760405162461bcd60e51b815260040161071d90614144565b60008481526010602052604090205460ff1661282b5760405162461bcd60e51b815260206004820152601760248201527f546865207573657220646f6573206e6f74206578697374000000000000000000604482015260640161071d565b5050506001600160a01b0391909116600090815260126020908152604080832093835292905220600181015490549091565b6060600080546001600160401b0381111561288857634e487b7160e01b600052604160045260246000fd5b6040519080825280602002602001820160405280156128b1578160200160208202803683370190505b50905060005b60005481101561296357600184161561290f576128de6128d86001866144c4565b82613843565b8282815181106128fe57634e487b7160e01b600052603260045260246000fd5b60200260200101818152505061294a565b61291d6128d8856001614331565b82828151811061293d57634e487b7160e01b600052603260045260246000fd5b6020026020010181815250505b60019390931c928061295b816144db565b9150506128b7565b5092915050565b612972612a8f565b6001600160a01b0381166129d75760405162461bcd60e51b815260206004820152602660248201527f4f776e61626c653a206e6577206f776e657220697320746865207a65726f206160448201526564647265737360d01b606482015260840161071d565b6129e081613644565b50565b60007f30644e72e131a029b85045b68181585d2833e84879b9709143e1f593f000000180838508818182098282848386858609090991507faed26d6a3f5e0ea662411ddfcde3527479de9cee7a56c656ff5f61df13a3940160005260005b605a811215612a775760206000208060005284878683870808935050838384099150838385848786870909099250600101612a41565b50508184820890508184838784080895945050505050565b6006546001600160a01b031633146113c55760405162461bcd60e51b815260206004820181905260248201527f4f776e61626c653a2063616c6c6572206973206e6f7420746865206f776e6572604482015260640161071d565b60008251600814612b3c5760405162461bcd60e51b815260206004820152601e60248201527f50726f6f662073697a6520696e76616c69642028414c542d424e313238290000604482015260640161071d565b600060016002600a8780549050612b5391906144c4565b612b5d9190614371565b612b6791906144c4565b905080835114612bc45760405162461bcd60e51b815260206004820152602260248201527f496e707574206c656e67746820646966666572732066726f6d20657870656374604482015261195960f21b606482015260840161071d565b60005b81811015612c77577f30644e72e131a029b85045b68181585d2833e84879b9709143e1f593f0000001848281518110612c1057634e487b7160e01b600052603260045260246000fd5b602002602001015110612c655760405162461bcd60e51b815260206004820152601c60248201527f496e707574206973206e6f7420696e207363616c6172206669656c6400000000604482015260640161071d565b80612c6f816144db565b915050612bc7565b50612c80613a7d565b600160006107d05a03888452602084209150600a820160208801885160200281018254875260018301925082546020880152600183019250604087015b81831015612d0c57835481526001840193508354602082015260018401935082516040820152602083019250604081606083600060078af160408960808b600060068bf1169690961695612cbd565b505050505081612d845760405162461bcd60e51b815260206004820152603960248201527f43616c6c20746f2074686520626e323536416464206f7220626e32353653636160448201527f6c61724d756c20707265636f6d70696c6564206661696c656400000000000000606482015260840161071d565b7f198e9393920d483a7260bfb731fb5d25f1aa493335a9e71297e485b7aef312c260408401527f1800deef121f1e76426a00665e5c4479674322d4f75edadd46debd5cd992f6ed60608401527f275dc4a288d1afb3cbb1ac09187524c7db36395df7be3b99e673b13a075a65ec60808401527f1d9befcd05a5323e6da4d435f3b617cdb3af83285c2df711ef39c01571827f9d60a0840152805460c0840152600181015460e08401526002810154610100840152600381015461012084015260048101546101408401526005810154610160840152602087019650865161018084015260208701516101a084015260408701516101c084015260608701516101e0840152608087015161020084015260a087015161022084015260c087015161024084015260e0870151610260840152600681015461028084015260078101546102a084015260088101546102c084015260098101546102e084015260208361030085600060086107d05a03f1915081612f665760405162461bcd60e51b815260206004820152603760248201527f43616c6c20746f20626e3235364164642c20626e3235365363616c61724d756c60448201527f206f7220626e32353650616972696e67206661696c6564000000000000000000606482015260840161071d565b50505160011495945050505050565b60606000835183516001612f899190614331565b612f939190614331565b90506000816001600160401b03811115612fbd57634e487b7160e01b600052604160045260246000fd5b604051908082528060200260200182016040528015612fe6578160200160208202803683370190505b50905060018160008151811061300c57634e487b7160e01b600052603260045260246000fd5b60200260200101818152505060005b85518110156130955785818151811061304457634e487b7160e01b600052603260045260246000fd5b60200260200101518282600161305a9190614331565b8151811061307857634e487b7160e01b600052603260045260246000fd5b60209081029190910101528061308d816144db565b91505061301b565b5060005b845181101561311f578481815181106130c257634e487b7160e01b600052603260045260246000fd5b60200260200101518287518360016130da9190614331565b6130e49190614331565b8151811061310257634e487b7160e01b600052603260045260246000fd5b602090810291909101015280613117816144db565b915050613099565b50949350505050565b600081156131435761313c60148585612ae9565b9050611dd6565b61314f60138585612ae9565b949350505050565b600154600554106131b85760405162461bcd60e51b815260206004820152602560248201527f426173654d65726b6c65547265653a2043616e6e6f7420617070656e6420616e604482015264796d6f726560d81b606482015260840161071d565b600580549060006131c8836144db565b909155506001805460009183916131df91906144c4565b6131e99190614331565b6000908152600360205260409020929092555050565b6005546000908161321084836144c4565b905060005b6000548110156132405761322a818385613910565b9350915080613238816144db565b915050613215565b50506000805250506003602052507f3617319a054d772f909f7c479a2cebe5066e836a939412e32403c99029b92eff5490565b6000818152600960205260409020805460ff19166001179055600f55565b825160208401518115613432576001600160a01b038316156133be576040516323b872dd60e01b81523360048201523060248201526044810183905283906001600160a01b038216906323b872dd90606401600060405180830381600087803b1580156132fd57600080fd5b505af1158015613311573d6000803e3d6000fd5b5050505060003411156133b857604051600090339034908381818185875af1925050503d8060008114613360576040519150601f19603f3d011682016040523d82523d6000602084013e613365565b606091505b50509050806133b65760405162461bcd60e51b815260206004820152601d60248201527f76707562496e2072657475726e207472616e73666572206661696c6564000000604482015260640161071d565b505b5061342d565b6133c96001836144a5565b915081341461342d5760405162461bcd60e51b815260206004820152602a60248201527f57726f6e67206d73672e76616c75653a2056616c75652070616964206973206e6044820152691bdd0818dbdc9c9958dd60b21b606482015260840161071d565b6134d2565b34156134d257604051600090339034908381818185875af1925050503d806000811461347a576040519150601f19603f3d011682016040523d82523d6000602084013e61347f565b606091505b50509050806134d05760405162461bcd60e51b815260206004820152601d60248201527f76707562496e2072657475726e207472616e73666572206661696c6564000000604482015260640161071d565b505b8015613598576001600160a01b038316156135525760405163a9059cbb60e01b81526001600160a01b0385811660048301526024820183905284919082169063a9059cbb90604401600060405180830381600087803b15801561353457600080fd5b505af1158015613548573d6000803e3d6000fd5b5050505050613598565b61355d6001826144a5565b6040519091506001600160a01b0385169082156108fc029083906000818181858888f19350505050158015613596573d6000803e3d6000fd5b505b5050505050565b6008546007546040516000926001600160a01b031691908381818185875af1925050503d80600081146135ee576040519150601f19603f3d011682016040523d82523d6000602084013e6135f3565b606091505b50509050806129e05760405162461bcd60e51b815260206004820152601c60248201527f417a65726f746820666565207472616e73666572206661696c65642e00000000604482015260640161071d565b600680546001600160a01b038381166001600160a01b0319831681179093556040519116919082907f8be0079c531659141344cd1fd0a4f28419497f9722a3daafe3b4186f6b6457e090600090a35050565b81516020830151811561376c5760408051605884901c6001600160a01b03811682526001600160581b038516602083015282519092859284927f681af9f7b3224058a4ddb04dfad4e2daea3997edb51862e7740d1d40fa3f1ec5929181900390910190a16040516323b872dd60e01b81523360048201523060248201526001600160581b03831660448201526001600160a01b038216906323b872dd90606401600060405180830381600087803b15801561375057600080fd5b505af1158015613764573d6000803e3d6000fd5b505050505050505b801561383d5760408051605883901c6001600160a01b03811682526001600160581b038416602083015282519092849284927f681af9f7b3224058a4ddb04dfad4e2daea3997edb51862e7740d1d40fa3f1ec5929181900390910190a16040516323b872dd60e01b81523060048201526001600160a01b0387811660248301526001600160581b03841660448301528216906323b872dd90606401600060405180830381600087803b15801561382157600080fd5b505af1158015613835573d6000803e3d6000fd5b505050505050505b50505050565b60008060001b600360008560018660005461385e91906144c4565b6138699060026143d7565b61387391906144c4565b61387d9190614331565b81526020019081526020016000205414156138c557600482815481106138b357634e487b7160e01b600052603260045260246000fd5b906000526020600020015490506109dc565b60036000846001856000546138da91906144c4565b6138e59060026143d7565b6138ef91906144c4565b6138f99190614331565b815260200190815260200160002054905092915050565b600080600060018660005461392591906144c4565b6139309060026143d7565b61393a91906144c4565b9050600061394c600119871683614331565b9050600060018616156139e85760016139658785614331565b61396f91906144c4565b600081815260036020526040902054600480549293506139b7928b9081106139a757634e487b7160e01b600052603260045260246000fd5b9060005260206000200154613a71565b6003600060026139c86001866144c4565b6139d29190614371565b81526020810191909152604001600020556139f5565b6139f28684614331565b90505b81811115613a4057613a086002826144c4565b60008181526003602081905260408220549293506139b79291613a2c856001614331565b815260200190815260200160002054613a71565b613a4b600288614371565b6002613a58886001614331565b613a629190614371565b94509450505050935093915050565b6000611dd683836129e3565b6040518061030001604052806018906020820280368337509192915050565b80356001600160a01b0381168114610a1f57600080fd5b60008083601f840112613ac4578182fd5b5081356001600160401b03811115613ada578182fd5b6020830191508360208083028501011115613af457600080fd5b9250929050565b600082601f830112613b0b578081fd5b813560206001600160401b03821115613b2657613b2661450c565b808202613b34828201614301565b838152828101908684018388018501891015613b4e578687fd5b8693505b85841015613b70578035835260019390930192918401918401613b52565b50979650505050505050565b60008083601f840112613b8d578182fd5b5081356001600160401b03811115613ba3578182fd5b602083019150836020828501011115613af457600080fd5b600060208284031215613bcc578081fd5b611dd682613a9c565b60008060008060008060008060a0898b031215613bf0578384fd5b613bf989613a9c565b9750613c0760208a01613a9c565b965060408901356001600160401b0380821115613c22578586fd5b613c2e8c838d01613ab3565b909850965060608b0135915080821115613c46578586fd5b613c528c838d01613ab3565b909650945060808b0135915080821115613c6a578384fd5b50613c778b828c01613b7c565b999c989b5096995094979396929594505050565b600080600080600060808688031215613ca2578081fd5b613cab86613a9c565b9450613cb960208701613a9c565b93506040860135925060608601356001600160401b03811115613cda578182fd5b613ce688828901613b7c565b969995985093965092949392505050565b60008060008060008060a08789031215613d0f578182fd5b613d1887613a9c565b9550613d2660208801613a9c565b9450604087013593506060870135925060808701356001600160401b03811115613d4e578283fd5b613d5a89828a01613b7c565b979a9699509497509295939492505050565b60008060408385031215613d7e578182fd5b613d8783613a9c565b946020939093013593505050565b600080600060608486031215613da9578283fd5b613db284613a9c565b9250602080850135925060408501356001600160401b0380821115613dd5578384fd5b818701915087601f830112613de8578384fd5b813581811115613dfa57613dfa61450c565b613e0c601f8201601f19168501614301565b91508082528884828501011115613e21578485fd5b808484018584013784848284010152508093505050509250925092565b60008060008060808587031215613e53578384fd5b613e5c85613a9c565b966020860135965060408601359560600135945092505050565b600060208284031215613e87578081fd5b81356001600160401b03811115613e9c578182fd5b61314f84828501613afb565b60008060408385031215613eba578182fd5b82356001600160401b0380821115613ed0578384fd5b613edc86838701613afb565b93506020850135915080821115613ef1578283fd5b50613efe85828601613afb565b9150509250929050565b600080600060608486031215613f1c578283fd5b83356001600160401b0380821115613f32578485fd5b613f3e87838801613afb565b94506020860135915080821115613f53578384fd5b50613f6086828701613afb565b925050613f6f60408501613a9c565b90509250925092565b60008060008060808587031215613f8d578182fd5b84356001600160401b0380821115613fa3578384fd5b613faf88838901613afb565b95506020870135915080821115613fc4578384fd5b50613fd187828801613afb565b935050613fe060408601613a9c565b9150613fee60608601613a9c565b905092959194509250565b60006020828403121561400a578081fd5b5035919050565b60008060408385031215614023578182fd5b50508035926020909101359150565b600080600060608486031215614046578081fd5b8335925060208401359150613f6f60408501613a9c565b600080600060608486031215614071578081fd5b833592506020840135915060408401356001600160401b03811115614094578182fd5b6140a086828701613afb565b9150509250925092565b600080600080608085870312156140bf578182fd5b843593506020850135925060408501359150613fee60608601613a9c565b8060005b600981101561383d5781518452602093840193909101906001016140e1565b6020808252825182820181905260009190848201906040850190845b818110156141385783518352928401929184019160010161411c565b50909695505050505050565b602080825260149082015273151bdad95b88191bd95cc81b9bdd08195e1a5cdd60621b604082015260600190565b602080825260129082015271105412c8191bd95cc81b9bdd08195e1a5cdd60721b604082015260600190565b60208082526033908201527f496e76616c69642070726f6f663a20556e61626c6520746f20766572696679206040820152727468652070726f6f6620636f72726563746c7960681b606082015260800190565b60208082526024908201527f54686973206e756c6c69666965722068617320616c7265616479206265656e206040820152631d5cd95960e21b606082015260800190565b6020808252600d908201526c34b73b30b634b210383937b7b360991b604082015260600190565b8151815260208083015190820152604081016109dc565b84815260208101849052610180810161428f60408301856140dd565b8261016083015295945050505050565b858152602081018590526101a081016142bb60408301866140dd565b6101608201939093526001600160a01b0391909116610180909101529392505050565b83815260208082018490528251604083015282015160608201526080810161314f565b604051601f8201601f191681016001600160401b03811182821017156143295761432961450c565b604052919050565b60008219821115614344576143446144f6565b500190565b600063ffffffff808316818516808303821115614368576143686144f6565b01949350505050565b60008261438c57634e487b7160e01b81526012600452602481fd5b500490565b80825b60018086116143a357506143ce565b8187048211156143b5576143b56144f6565b808616156143c257918102915b9490941c938002614394565b94509492505050565b6000611dd660001984846000826143f057506001611dd6565b816143fd57506000611dd6565b8160018114614413576002811461441d5761444a565b6001915050611dd6565b60ff84111561442e5761442e6144f6565b6001841b915084821115614444576144446144f6565b50611dd6565b5060208310610133831016604e8410600b841016171561447d575081810a83811115614478576144786144f6565b611dd6565b61448a8484846001614391565b80860482111561449c5761449c6144f6565b02949350505050565b60008160001904831182151516156144bf576144bf6144f6565b500290565b6000828210156144d6576144d66144f6565b500390565b60006000198214156144ef576144ef6144f6565b5060010190565b634e487b7160e01b600052601160045260246000fd5b634e487b7160e01b600052604160045260246000fdfea2646970667358221220f524041a15c76d9cb957e5dee60f39b8ec952f243b23d43cfc2eac797a546a1a64736f6c634300080200333617319a054d772f909f7c479a2cebe5066e836a939412e32403c99029b92eff",
  "immutableReferences": {},
  "source": "// SPDX-License-Identifier: LGPL-3.0+\npragma solidity ^0.8.2;\n\nimport \"./Groth16AltBN128.sol\";\nimport \"./MiMC7.sol\";\nimport \"./ZklayBase.sol\";\nimport \"./BaseMerkleTree.sol\";\n\ncontract DataTradeContract is ZklayBase {\n\n    struct userInfo {\n        uint256 addr; // azeroth address\n        uint256 pk_enc;\n        uint256 pk_own;\n    }\n\n    // struct Order {\n    //     address orderer;\n    //     uint256 cm_pear;\n    //     uint256 cm_del;\n    // }\n\n    // h_ct list\n    mapping(uint256 => bool) internal _hCT_list;\n\n    //addr\n    mapping(uint256 => bool) internal _addr_list;\n\n    // EOA -> user keys\n    mapping(address => userInfo) _userInfoMap;\n\n    // pk_own -> address\n    mapping(uint256 => address) _eoaMap;\n\n    // order number -> order\n    // mapping(bytes32 => Order) _order;\n\n    // to check trade\n    mapping(uint256 => bool) waitTradeList;\n\n    // registData SNARK Proof verify input num\n    uint256 internal constant REGISTDATA_NUM_INPUTS = 4;\n\n    // GenTrade SNARK Proof verify input num\n    uint256 internal constant ORDER_NUM_INPUTS = 14;\n\n    // AcceptTrade SNARK Proof verify input num\n    uint256 internal constant ACCEPT_NUM_INPUTS = 8;\n\n    // registDAta SNARK vk\n    uint256[] private registData_vk;\n\n    // GenTrade SNARK vk\n    uint256[] private orderData_vk;\n\n    // Accept Trade vk\n    uint256[] private acceptOrder_vk;\n\n    event logOrder(\n        address sender,\n        uint256 c0,\n        uint256 c1,\n        uint256[] c2\n    );\n\n    event LogAcceptTrade(\n        uint256 cm_del,\n        uint256 cm_peer,\n        uint256 index_del,\n        uint256 index_peer\n    );\n\n    constructor(\n        uint256[] memory _registData_vk,\n        uint256[] memory _orderData_vk,\n        uint256[] memory _acceptOrder_vk,\n        uint256 depth,\n        uint256[] memory vk,\n        uint256[] memory vkNft,\n        uint256 price,\n        address toReceiveFee\n    ) ZklayBase(depth, vk, vkNft, price, toReceiveFee) {\n        registData_vk = _registData_vk;\n        orderData_vk  = _orderData_vk;\n        acceptOrder_vk = _acceptOrder_vk;\n        // registUser(pk_own_del, pk_enc_del);\n    }\n\n    function registUserByDelegator(\n        uint256 pk_own, \n        uint256 pk_enc,\n        address eoa\n    ) \n        public\n        payable\n    {   \n        // bytes32 _addr = MiMC7._hash(bytes32(pk_own), bytes32(pk_enc));\n        _registUser(_addressMap[eoa].Addr, pk_own, pk_enc, eoa);\n    }\n\n    function registUser(\n        uint256 pk_own, \n        uint256 pk_enc\n    )\n        public\n        payable\n    {   \n        // bytes32 _addr = MiMC7._hash(bytes32(pk_own), bytes32(pk_enc));\n        _registUser(_addressMap[msg.sender].Addr, pk_own, pk_enc, msg.sender);\n    }\n\n    function _registUser(\n        uint256 addr,\n        uint256 pk_own, \n        uint256 pk_enc,\n        address eoa\n    )\n        public\n        payable\n    {   \n        require(_addrList[addr], \"Azeroth User deos not exist\");\n        require(!_addr_list[_userInfoMap[eoa].addr], \"msg.sender already exist\");\n        require(!_addr_list[addr], \"User already exist\");\n\n        _addr_list[addr] = true;\n\n        _userInfoMap[eoa].addr = addr;\n        _userInfoMap[eoa].pk_enc = pk_enc;\n        _userInfoMap[eoa].pk_own = pk_own;\n\n        _eoaMap[pk_own] = eoa;\n    }\n\n    function isRegisteredUser(\n        uint256 addr\n    ) \n        public \n        view \n        returns (bool) \n    {\n        return _addr_list[addr];\n    }\n\n    // function isRegisteredAzerothAddr(\n    //     uint256 addr\n    // )\n    //     public\n    //     view\n    //     returns (bool)\n    // {\n    //     return _addrList[addr];\n    // } \n\n    /*\n        --- inputs ---\n        0 : 1 \n        1 : addr_peer\n        2 : h_k\n        3 : h_ct\n        --------------\n    */\n    function registData(\n        uint256[] memory proof,\n        uint256[] memory inputs\n    ) \n        public  \n        returns(bool)\n    {   \n        // check input length\n        require( inputs.length == REGISTDATA_NUM_INPUTS, \"invalid Input length\");\n        \n        // check hct\n        require( !_hCT_list[inputs[3]], \"already registered h_ct\");\n\n        uint256[] memory input_values = new uint256[](REGISTDATA_NUM_INPUTS);\n        for (uint256 i = 0 ; i < REGISTDATA_NUM_INPUTS; i++) {\n            input_values[i] = inputs[i];\n        }\n        require( Groth16AltBN128._verify(registData_vk, proof, input_values), \"invalid proof\");\n\n        _hCT_list[input_values[3]] = true;\n        return _hCT_list[input_values[3]];\n    }\n\n    function isRegistered(uint256 _hct) \n        public \n        view \n        returns(bool) \n    {\n        return _hCT_list[_hct];\n    }\n\n\n    /**\n        0 : 1 \n        1 : c0 \n        2 : c1\n        3 : cm_own \n        4 : cm_del \n        5 : ENA_r \n        6 : ENA_c \n        7 : ENA'_r \n        8 : ENA'_c \n        9 : CT[0]\n        10: CT[1]\n        11: CT[2]\n        12: CT[3]\n        13: CT[4]\n     */\n    function orderData(\n        uint256[] memory proof,\n        uint256[] memory inputs,\n        address tokenAddress\n    )\n        public\n        payable\n        returns(bool)\n    {\n        require( inputs.length == ORDER_NUM_INPUTS, \"invalid Input length\");\n\n        require( !waitTradeList[inputs[3]], \"already exist cm_own\");\n        require( !waitTradeList[inputs[4]], \"already exist cm_del\");\n        \n        // check ENA is valid   ENA   \n        require(_ENA[tokenAddress][_addressMap[msg.sender].Addr].r == inputs[5], \"invalid ENA(r)\");\n        require(_ENA[tokenAddress][_addressMap[msg.sender].Addr].ct == inputs[6], \"invalid ENA(ct)\");\n\n        uint256[] memory input_values = new uint256[](ORDER_NUM_INPUTS);\n        for (uint256 i = 0 ; i < ORDER_NUM_INPUTS; i++) {\n            input_values[i] = inputs[i];\n        }\n        require( Groth16AltBN128._verify(orderData_vk, proof, input_values), \"invalid proof\");\n        \n        // order number\n        // bytes32 orderNumber = MiMC7._hash(bytes32(inputs[3]), bytes32(inputs[4]));\n        // _order[orderNumber].orderer = msg.sender;\n\n        // insert cm to waitTradeList\n        waitTradeList[inputs[3]] = true;\n        waitTradeList[inputs[4]] = true;\n        // _order[orderNumber].cm_pear = inputs[3];\n        // _order[orderNumber].cm_del = inputs[4];\n        \n        _ENA[tokenAddress][_addressMap[msg.sender].Addr] = ENA(inputs[7], inputs[8]);\n\n        // // emit log\n        // uint256[] memory c2 = new uint256[](6);\n        // for (uint256 i=0; i<6; i++){\n        //     c2[i] = input_values[i+11];\n        // } \n        // emit logOrder(\n        //     msg.sender,\n        //     input_values[1],\n        //     input_values[2],\n        //     c2\n        // );\n\n        return true;\n    }\n\n    // function cancelOrder(\n    //     bytes32 orderNumber\n    // )\n    //     public\n    //     returns (bool)\n    // {\n    //     require(_order[orderNumber].orderer == msg.sender,\"Not match the orderer\");\n    //     require(waitTradeList[_order[orderNumber].cm_pear] == true, \"cm pear no exit\");\n    //     require(waitTradeList[_order[orderNumber].cm_del] == true, \"cm del no exit\");\n\n    //     waitTradeList[_order[orderNumber].cm_pear] = false;\n    //     waitTradeList[_order[orderNumber].cm_del] = false;\n\n    //     return true;\n    // }\n\n    /**\n        0 : 1\n        1 : cm_del  \n        2 : cm_own\n        3 : cm_del_azeroth\n        4 : cm_peer_azeroth\n        5 : ecryptedDataEncKey[0] g^r\n        6 : ecryptedDataEncKey[1] k* pk^r\n        7 : ecryptedDataEncKey[2] enc_k(msg)\n     */\n    function acceptOrder(\n        uint256[] memory proof,\n        uint256[] memory inputs    \n    )\n        public\n        returns(bool)\n    {\n        require(inputs.length == ACCEPT_NUM_INPUTS, \"invalid Inputs length\");\n\n        // check cm\n        require(waitTradeList[inputs[1]], \"cm0 no exist\");\n        require(waitTradeList[inputs[2]], \"cm1 no exist\");\n\n        uint256[] memory input_values = new uint256[](ACCEPT_NUM_INPUTS);\n        for (uint256 i = 0 ; i < ACCEPT_NUM_INPUTS; i++) {\n            input_values[i] = inputs[i];\n        }\n        require( Groth16AltBN128._verify(acceptOrder_vk, proof, input_values), \"invalid proof\");\n\n        waitTradeList[input_values[1]] = false;\n        waitTradeList[input_values[2]] = false;\n\n        _insert(bytes32(input_values[3]));\n        _insert(bytes32(input_values[4]));\n        uint256 new_merkle_root = uint256(_recomputeRoot(2));\n        _addRoot(new_merkle_root);\n        \n        emit LogAcceptTrade(\n            input_values[3], \n            input_values[4], \n            BaseMerkleTree._numLeaves - 1, \n            BaseMerkleTree._numLeaves\n        );\n\n        return true;\n    }\n\n    // function checkCmValidation(\n    //     bytes32 orderNumber\n    // )\n    //     public\n    //     view\n    //     returns (bool,bool)\n    // {\n    //     return (waitTradeList[_order[orderNumber].cm_pear], waitTradeList[_order[orderNumber].cm_del]);\n    // }\n\n    function _hash(bytes32 left, bytes32 right)\n        internal\n        pure\n        override\n        returns (bytes32)\n    {\n        return MiMC7._hash(left, right);\n    }\n\n    function _verifyZKProof(\n        uint256[] memory proof,\n        uint256[] memory inputs,\n        bool isNft\n    ) internal override returns (bool) {\n        if (isNft) {\n            return Groth16AltBN128._verify(_vkNft, proof, inputs);\n        }\n        return Groth16AltBN128._verify(_vk, proof, inputs);\n    }\n\n\n    // =================== TO TEST ===================\n    // YOU MUST DELETE BELOW FUNCTIONS BEFORE DEPLOYING\n\n    function setENA(\n        address tokenAddress,\n        uint256 addr,\n        uint256 ena_r,\n        uint256 ena_ct\n    ) \n        public\n        payable\n        registeredToken(tokenAddress)\n        returns (bool)\n    { \n        _ENA[tokenAddress][addr] = ENA(ena_r, ena_ct);\n        return true;\n    }\n}",
  "sourcePath": "/Users/kim/workspace/zkmarket-backend-kyoungbin/tradeContract/contracts/DataTradeContract.sol",
  "compiler": {
    "name": "solc",
    "version": "0.8.2+commit.661d1103.Emscripten.clang"
  },
  "schemaVersion": "3.4.10",
  "updatedAt": "2024-01-19T09:54:45.038Z",
  "devdoc": {
    "kind": "dev",
    "methods": {
      "onERC1155BatchReceived(address,address,uint256[],uint256[],bytes)": {
        "details": "Handles the receipt of a multiple ERC1155 token types. This function is called at the end of a `safeBatchTransferFrom` after the balances have been updated. NOTE: To accept the transfer(s), this must return `bytes4(keccak256(\"onERC1155BatchReceived(address,address,uint256[],uint256[],bytes)\"))` (i.e. 0xbc197c81, or its own function selector).",
        "params": {
          "data": "Additional data with no specified format",
          "from": "The address which previously owned the token",
          "ids": "An array containing ids of each token being transferred (order and length must match values array)",
          "operator": "The address which initiated the batch transfer (i.e. msg.sender)",
          "values": "An array containing amounts of each token being transferred (order and length must match ids array)"
        },
        "returns": {
          "_0": "`bytes4(keccak256(\"onERC1155BatchReceived(address,address,uint256[],uint256[],bytes)\"))` if transfer is allowed"
        }
      },
      "onERC1155Received(address,address,uint256,uint256,bytes)": {
        "details": "Handles the receipt of a single ERC1155 token type. This function is called at the end of a `safeTransferFrom` after the balance has been updated. NOTE: To accept the transfer, this must return `bytes4(keccak256(\"onERC1155Received(address,address,uint256,uint256,bytes)\"))` (i.e. 0xf23a6e61, or its own function selector).",
        "params": {
          "data": "Additional data with no specified format",
          "from": "The address which previously owned the token",
          "id": "The ID of the token being transferred",
          "operator": "The address which initiated the transfer (i.e. msg.sender)",
          "value": "The amount of tokens being transferred"
        },
        "returns": {
          "_0": "`bytes4(keccak256(\"onERC1155Received(address,address,uint256,uint256,bytes)\"))` if transfer is allowed"
        }
      },
      "onERC721Received(address,address,uint256,bytes)": {
        "details": "Whenever an {IERC721} `tokenId` token is transferred to this contract via {IERC721-safeTransferFrom} by `operator` from `from`, this function is called. It must return its Solidity selector to confirm the token transfer. If any other value is returned or the interface is not implemented by the recipient, the transfer will be reverted. The selector can be obtained in Solidity with `IERC721Receiver.onERC721Received.selector`."
      },
      "owner()": {
        "details": "Returns the address of the current owner."
      },
      "renounceOwnership()": {
        "details": "Leaves the contract without owner. It will not be possible to call `onlyOwner` functions anymore. Can only be called by the current owner. NOTE: Renouncing ownership will leave the contract without an owner, thereby removing any functionality that is only available to the owner."
      },
      "transferOwnership(address)": {
        "details": "Transfers ownership of the contract to a new account (`newOwner`). Can only be called by the current owner."
      }
    },
    "version": 1
  },
  "userdoc": {
    "kind": "user",
    "methods": {
      "acceptOrder(uint256[],uint256[])": {
        "notice": "0 : 1 1 : cm_del   2 : cm_own 3 : cm_del_azeroth 4 : cm_peer_azeroth 5 : ecryptedDataEncKey[0] g^r 6 : ecryptedDataEncKey[1] k* pk^r 7 : ecryptedDataEncKey[2] enc_k(msg)"
      },
      "orderData(uint256[],uint256[],address)": {
        "notice": "0 : 1  1 : c0  2 : c1 3 : cm_own  4 : cm_del  5 : ENA_r  6 : ENA_c  7 : ENA'_r  8 : ENA'_c  9 : CT[0] 10: CT[1] 11: CT[2] 12: CT[3] 13: CT[4]"
      }
    },
    "version": 1
  }
}