{
  "contractName": "DataTradeContract",
  "abi": [
    {
      "inputs": [
        {
          "internalType": "uint256[]",
          "name": "_registData_vk",
          "type": "uint256[]"
        },
        {
          "internalType": "uint256[]",
          "name": "_orderData_vk",
          "type": "uint256[]"
        },
        {
          "internalType": "uint256[]",
          "name": "_acceptOrder_vk",
          "type": "uint256[]"
        }
      ],
      "stateMutability": "nonpayable",
      "type": "constructor"
    },
    {
      "anonymous": false,
      "inputs": [
        {
          "indexed": false,
          "internalType": "address",
          "name": "sender",
          "type": "address"
        },
        {
          "indexed": false,
          "internalType": "uint256",
          "name": "c0",
          "type": "uint256"
        },
        {
          "indexed": false,
          "internalType": "uint256",
          "name": "c1",
          "type": "uint256"
        },
        {
          "indexed": false,
          "internalType": "uint256[]",
          "name": "c2",
          "type": "uint256[]"
        }
      ],
      "name": "logOrder",
      "type": "event"
    },
    {
      "inputs": [
        {
          "internalType": "uint256",
          "name": "pk_own",
          "type": "uint256"
        },
        {
          "internalType": "uint256",
          "name": "pk_enc",
          "type": "uint256"
        },
        {
          "internalType": "address",
          "name": "eoa",
          "type": "address"
        }
      ],
      "name": "registUserByDelegator",
      "outputs": [],
      "stateMutability": "payable",
      "type": "function"
    },
    {
      "inputs": [
        {
          "internalType": "uint256",
          "name": "pk_own",
          "type": "uint256"
        },
        {
          "internalType": "uint256",
          "name": "pk_enc",
          "type": "uint256"
        }
      ],
      "name": "registUser",
      "outputs": [],
      "stateMutability": "payable",
      "type": "function"
    },
    {
      "inputs": [
        {
          "internalType": "uint256",
          "name": "addr",
          "type": "uint256"
        },
        {
          "internalType": "uint256",
          "name": "pk_own",
          "type": "uint256"
        },
        {
          "internalType": "uint256",
          "name": "pk_enc",
          "type": "uint256"
        },
        {
          "internalType": "address",
          "name": "eoa",
          "type": "address"
        }
      ],
      "name": "_registUser",
      "outputs": [],
      "stateMutability": "payable",
      "type": "function"
    },
    {
      "inputs": [
        {
          "internalType": "uint256",
          "name": "addr",
          "type": "uint256"
        }
      ],
      "name": "isRegisteredUser",
      "outputs": [
        {
          "internalType": "bool",
          "name": "",
          "type": "bool"
        }
      ],
      "stateMutability": "view",
      "type": "function"
    },
    {
      "inputs": [
        {
          "internalType": "uint256[]",
          "name": "proof",
          "type": "uint256[]"
        },
        {
          "internalType": "uint256[5]",
          "name": "inputs",
          "type": "uint256[5]"
        }
      ],
      "name": "registData",
      "outputs": [
        {
          "internalType": "bool",
          "name": "",
          "type": "bool"
        }
      ],
      "stateMutability": "payable",
      "type": "function"
    },
    {
      "inputs": [
        {
          "internalType": "uint256",
          "name": "_hct",
          "type": "uint256"
        }
      ],
      "name": "isRegistered",
      "outputs": [
        {
          "internalType": "bool",
          "name": "",
          "type": "bool"
        }
      ],
      "stateMutability": "view",
      "type": "function"
    },
    {
      "inputs": [
        {
          "internalType": "uint256[]",
          "name": "proof",
          "type": "uint256[]"
        },
        {
          "internalType": "uint256[17]",
          "name": "inputs",
          "type": "uint256[17]"
        }
      ],
      "name": "orderData",
      "outputs": [
        {
          "internalType": "bool",
          "name": "",
          "type": "bool"
        }
      ],
      "stateMutability": "payable",
      "type": "function"
    },
    {
      "inputs": [
        {
          "internalType": "bytes32",
          "name": "orderNumber",
          "type": "bytes32"
        }
      ],
      "name": "cancelOrder",
      "outputs": [
        {
          "internalType": "bool",
          "name": "",
          "type": "bool"
        }
      ],
      "stateMutability": "nonpayable",
      "type": "function"
    },
    {
      "inputs": [
        {
          "internalType": "uint256[]",
          "name": "proof",
          "type": "uint256[]"
        },
        {
          "internalType": "uint256[10]",
          "name": "inputs",
          "type": "uint256[10]"
        }
      ],
      "name": "acceptOrder",
      "outputs": [
        {
          "internalType": "bool",
          "name": "",
          "type": "bool"
        }
      ],
      "stateMutability": "payable",
      "type": "function"
    },
    {
      "inputs": [
        {
          "internalType": "bytes32",
          "name": "orderNumber",
          "type": "bytes32"
        }
      ],
      "name": "checkCmValidation",
      "outputs": [
        {
          "internalType": "bool",
          "name": "",
          "type": "bool"
        },
        {
          "internalType": "bool",
          "name": "",
          "type": "bool"
        }
      ],
      "stateMutability": "view",
      "type": "function"
    }
  ],
  "bytecode": "0x60806040523480156200001157600080fd5b5060405162001a1238038062001a1283398101604081905262000034916200018c565b8251620000499060069060208601906200007f565b5081516200005f9060079060208501906200007f565b508051620000759060089060208401906200007f565b505050506200022f565b828054828255906000526020600020908101928215620000bd579160200282015b82811115620000bd578251825591602001919060010190620000a0565b50620000cb929150620000cf565b5090565b5b80821115620000cb5760008155600101620000d0565b600082601f830112620000f7578081fd5b815160206001600160401b038083111562000116576200011662000219565b818302604051601f19603f830116810181811084821117156200013d576200013d62000219565b604052848152838101925086840182880185018910156200015c578687fd5b8692505b858310156200018057805184529284019260019290920191840162000160565b50979650505050505050565b600080600060608486031215620001a1578283fd5b83516001600160401b0380821115620001b8578485fd5b620001c687838801620000e6565b94506020860151915080821115620001dc578384fd5b620001ea87838801620000e6565b9350604086015191508082111562000200578283fd5b506200020f86828701620000e6565b9150509250925092565b634e487b7160e01b600052604160045260246000fd5b6117d3806200023f6000396000f3fe6080604052600436106100915760003560e01c8063579a698811610059578063579a69881461016e5780637489ec231461019e578063882712ab146101be5780639d846971146101d3578063c48a13e1146101e657610091565b80630e39b06f1461009657806317cfa488146101055780631a422550146101285780632f08c4081461014857806330fed15f1461015b575b600080fd5b3480156100a257600080fd5b506100e96100b136600461157e565b60009081526004602090815260408083206001810154845260059092528083205460029092015483529091205460ff91821692911690565b6040805192151583529015156020830152015b60405180910390f35b6101186101133660046114e9565b6101f9565b60405190151581526020016100fc565b34801561013457600080fd5b5061011861014336600461157e565b6103c4565b610118610156366004611492565b6103dc565b6101186101693660046113f2565b610764565b34801561017a57600080fd5b5061011861018936600461157e565b60009081526020819052604090205460ff1690565b3480156101aa57600080fd5b506101186101b936600461157e565b610b31565b6101d16101cc366004611596565b610c9b565b005b6101d16101e13660046115eb565b610cba565b6101d16101f43660046115b7565b610de2565b6000610209565b60405180910390fd5b606082015160009081526020819052604090205460ff161561026d5760405162461bcd60e51b815260206004820152601760248201527f616c7265616479207265676973746572656420685f63740000000000000000006044820152606401610200565b60408051600580825260c082019092526000916020820160a08036833701905050905060005b60058110156102fe578381600581106102bc57634e487b7160e01b600052603260045260246000fd5b60200201518282815181106102e157634e487b7160e01b600052603260045260246000fd5b6020908102919091010152806102f681611756565b915050610293565b5061030b60068583610e02565b6103275760405162461bcd60e51b81526004016102009061168e565b60016000808360038151811061034d57634e487b7160e01b600052603260045260246000fd5b6020026020010151815260200190815260200160002060006101000a81548160ff0219169083151502179055506000808260038151811061039e57634e487b7160e01b600052603260045260246000fd5b60209081029190910181015182528101919091526040016000205460ff16949350505050565b60008181526001602052604090205460ff165b919050565b61014081015161012082015160009182916103f79190611707565b90508034146104365760405162461bcd60e51b815260206004820152600b60248201526a696e76616c69642066656560a81b6044820152606401610200565b606083015160009081526005602052604090205460ff16156104915760405162461bcd60e51b815260206004820152601460248201527330b63932b0b23c9032bc34b9ba1031b6afb7bbb760611b6044820152606401610200565b608083015160009081526005602052604090205460ff16156104ec5760405162461bcd60e51b8152602060048201526014602482015273185b1c9958591e48195e1a5cdd0818db57d9195b60621b6044820152606401610200565b6040805160118082526102408201909252600091602082016102208036833701905050905060005b601181101561057f5784816011811061053d57634e487b7160e01b600052603260045260246000fd5b602002015182828151811061056257634e487b7160e01b600052603260045260246000fd5b60209081029190910101528061057781611756565b915050610514565b5061058c60078683610e02565b6105a85760405162461bcd60e51b81526004016102009061168e565b606084015160808501516000916105be9161128e565b600081815260046020818152604080842080546001600160a01b0319163317815560608b018051865260058452828620805460ff19908116600190811790925560808e018051895285892080549092168317909155915188885295855282019490945592516002909301929092558151600680825260e08201909352939450919291820160c08036833701905050905060005b60068110156106c9578361066682600b611707565b8151811061068457634e487b7160e01b600052603260045260246000fd5b60200260200101518282815181106106ac57634e487b7160e01b600052603260045260246000fd5b6020908102919091010152806106c181611756565b915050610651565b507f62b1242256153330e54c09d31970b25b4d2aeb480b3e260b364a101175ad7106338460018151811061070d57634e487b7160e01b600052603260045260246000fd5b60200260200101518560028151811061073657634e487b7160e01b600052603260045260246000fd5b60200260200101518460405161074f9493929190611629565b60405180910390a15060019695505050505050565b60408051600a8082526101608201909252600091829190602082016101408036833701905050905060005b600a8110156107fa578381600a81106107b857634e487b7160e01b600052603260045260246000fd5b60200201518282815181106107dd57634e487b7160e01b600052603260045260246000fd5b6020908102919091010152806107f281611756565b91505061078f565b50600560008260018151811061082057634e487b7160e01b600052603260045260246000fd5b60209081029190910181015182528101919091526040016000205460ff166108795760405162461bcd60e51b815260206004820152600c60248201526b18db4c081b9bc8195e1a5cdd60a21b6044820152606401610200565b600560008260028151811061089e57634e487b7160e01b600052603260045260246000fd5b60209081029190910181015182528101919091526040016000205460ff166108f75760405162461bcd60e51b815260206004820152600c60248201526b18db4c481b9bc8195e1a5cdd60a21b6044820152606401610200565b61090360088583610e02565b61091f5760405162461bcd60e51b81526004016102009061168e565b6000600560008360018151811061094657634e487b7160e01b600052603260045260246000fd5b6020026020010151815260200190815260200160002060006101000a81548160ff0219169083151502179055506000600560008360028151811061099a57634e487b7160e01b600052603260045260246000fd5b6020026020010151815260200190815260200160002060006101000a81548160ff02191690831515021790555060036000826008815181106109ec57634e487b7160e01b600052603260045260246000fd5b6020026020010151815260200190815260200160002060009054906101000a90046001600160a01b03166001600160a01b03166108fc82600681518110610a4357634e487b7160e01b600052603260045260246000fd5b60200260200101519081150290604051600060405180830381858888f19350505050158015610a76573d6000803e3d6000fd5b506003600082600981518110610a9c57634e487b7160e01b600052603260045260246000fd5b6020026020010151815260200190815260200160002060009054906101000a90046001600160a01b03166001600160a01b03166108fc82600781518110610af357634e487b7160e01b600052603260045260246000fd5b60200260200101519081150290604051600060405180830381858888f19350505050158015610b26573d6000803e3d6000fd5b506001949350505050565b6000818152600460205260408120546001600160a01b03163314610b8f5760405162461bcd60e51b81526020600482015260156024820152742737ba1036b0ba31b4103a34329037b93232b932b960591b6044820152606401610200565b6000828152600460209081526040808320600190810154845260059092529091205460ff16151514610bf55760405162461bcd60e51b815260206004820152600f60248201526e18db481c19585c881b9bc8195e1a5d608a1b6044820152606401610200565b6000828152600460209081526040808320600201548352600590915290205460ff161515600114610c595760405162461bcd60e51b815260206004820152600e60248201526d18db4819195b081b9bc8195e1a5d60921b6044820152606401610200565b50600090815260046020908152604080832060018082015485526005909352818420805460ff1990811690915560029091015484529220805490921690915590565b6000610ca7838361128e565b9050610cb581848433610cba565b505050565b6001600160a01b0381166000908152600260209081526040808320548352600190915290205460ff1615610d305760405162461bcd60e51b815260206004820152601860248201527f6d73672e73656e64657220616c726561647920657869737400000000000000006044820152606401610200565b60008481526001602052604090205460ff1615610d845760405162461bcd60e51b8152602060048201526012602482015271155cd95c88185b1c9958591e48195e1a5cdd60721b6044820152606401610200565b6000848152600160208181526040808420805460ff1916841790556001600160a01b039094168084526002808352858520988955928801959095559501849055928352600390935291902080546001600160a01b0319169091179055565b6000610dee848461128e565b9050610dfc81858585610cba565b50505050565b60008251600814610e555760405162461bcd60e51b815260206004820152601e60248201527f50726f6f662073697a6520696e76616c69642028414c542d424e3132382900006044820152606401610200565b600060016002600a8780549050610e6c919061173f565b610e76919061171f565b610e80919061173f565b905080835114610edd5760405162461bcd60e51b815260206004820152602260248201527f496e707574206c656e67746820646966666572732066726f6d20657870656374604482015261195960f21b6064820152608401610200565b60005b81811015610f90577f30644e72e131a029b85045b68181585d2833e84879b9709143e1f593f0000001848281518110610f2957634e487b7160e01b600052603260045260246000fd5b602002602001015110610f7e5760405162461bcd60e51b815260206004820152601c60248201527f496e707574206973206e6f7420696e207363616c6172206669656c64000000006044820152606401610200565b80610f8881611756565b915050610ee0565b50610f9961133a565b600160006107d05a03888452602084209150600a820160208801885160200281018254875260018301925082546020880152600183019250604087015b8183101561102557835481526001840193508354602082015260018401935082516040820152602083019250604081606083600060078af160408960808b600060068bf1169690961695610fd6565b50505050508161109d5760405162461bcd60e51b815260206004820152603960248201527f43616c6c20746f2074686520626e323536416464206f7220626e32353653636160448201527f6c61724d756c20707265636f6d70696c6564206661696c6564000000000000006064820152608401610200565b7f198e9393920d483a7260bfb731fb5d25f1aa493335a9e71297e485b7aef312c260408401527f1800deef121f1e76426a00665e5c4479674322d4f75edadd46debd5cd992f6ed60608401527f275dc4a288d1afb3cbb1ac09187524c7db36395df7be3b99e673b13a075a65ec60808401527f1d9befcd05a5323e6da4d435f3b617cdb3af83285c2df711ef39c01571827f9d60a0840152805460c0840152600181015460e08401526002810154610100840152600381015461012084015260048101546101408401526005810154610160840152602087019650865161018084015260208701516101a084015260408701516101c084015260608701516101e0840152608087015161020084015260a087015161022084015260c087015161024084015260e0870151610260840152600681015461028084015260078101546102a084015260088101546102c084015260098101546102e084015260208361030085600060086107d05a03f191508161127f5760405162461bcd60e51b815260206004820152603760248201527f43616c6c20746f20626e3235364164642c20626e3235365363616c61724d756c60448201527f206f7220626e32353650616972696e67206661696c65640000000000000000006064820152608401610200565b50505160011495945050505050565b60007f30644e72e131a029b85045b68181585d2833e84879b9709143e1f593f000000180838508818182098282848386858609090991507faed26d6a3f5e0ea662411ddfcde3527479de9cee7a56c656ff5f61df13a3940160005260005b605a81121561132257602060002080600052848786838708089350508383840991508383858487868709090992506001016112ec565b50508184820890508184838784080895945050505050565b6040518061030001604052806018906020820280368337509192915050565b80356001600160a01b03811681146103d757600080fd5b600082601f830112611380578081fd5b8135602067ffffffffffffffff82111561139c5761139c611787565b8082026113aa8282016116b5565b8381528281019086840183880185018910156113c4578687fd5b8693505b858410156113e65780358352600193909301929184019184016113c8565b50979650505050505050565b600080610160808486031215611406578283fd5b833567ffffffffffffffff81111561141c578384fd5b61142886828701611370565b935050602085603f86011261143b578283fd5b600a61144e611449826116e6565b6116b5565b8083880189868a011115611460578687fd5b8695505b83861015611482578035835260019590950194918401918401611464565b5080955050505050509250929050565b6000806102408084860312156114a6578283fd5b833567ffffffffffffffff8111156114bc578384fd5b6114c886828701611370565b935050602085603f8601126114db578283fd5b601161144e611449826116e6565b60008060c083850312156114fb578182fd5b823567ffffffffffffffff811115611511578283fd5b61151d85828601611370565b925050602084603f850112611530578182fd5b600561153e611449826116e6565b808387018860c089011115611551578586fd5b855b8481101561156f57813584529285019290850190600101611553565b50959890975095505050505050565b60006020828403121561158f578081fd5b5035919050565b600080604083850312156115a8578182fd5b50508035926020909101359150565b6000806000606084860312156115cb578081fd5b83359250602084013591506115e260408501611359565b90509250925092565b60008060008060808587031215611600578081fd5b84359350602085013592506040850135915061161e60608601611359565b905092959194509250565b6001600160a01b038516815260208082018590526040820184905260806060830181905283519083018190526000918481019160a0850190845b8181101561167f57845183529383019391830191600101611663565b50909998505050505050505050565b6020808252600d908201526c34b73b30b634b210383937b7b360991b604082015260600190565b604051601f8201601f1916810167ffffffffffffffff811182821017156116de576116de611787565b604052919050565b600067ffffffffffffffff82111561170057611700611787565b5060200290565b6000821982111561171a5761171a611771565b500190565b60008261173a57634e487b7160e01b81526012600452602481fd5b500490565b60008282101561175157611751611771565b500390565b600060001982141561176a5761176a611771565b5060010190565b634e487b7160e01b600052601160045260246000fd5b634e487b7160e01b600052604160045260246000fdfea2646970667358221220a53a87f222bc46c5b14e159f7605eab633d98cbef143cc743be319bea5f76c8c64736f6c63430008020033",
  "immutableReferences": {},
  "source": "// SPDX-License-Identifier: LGPL-3.0+\npragma solidity ^0.8.2;\n\nimport \"./Groth16AltBN128.sol\";\nimport \"./MiMC7.sol\";\n\ncontract DataTradeContract {\n\n    struct ENA {\n        uint256 r;\n        uint256 ct;\n    }\n\n    struct userInfo {\n        uint256 addr;\n        uint256 pk_enc;\n        uint256 pk_own;\n    }\n\n    struct Order {\n        address orderer;\n        uint256 cm_pear;\n        uint256 cm_del;\n    }\n\n    // h_ct list\n    mapping(uint256 => bool) internal _hCT_list;\n\n    //addr\n    mapping(uint256 => bool) internal _addr_list;\n\n    // EOA -> user keys\n    mapping(address => userInfo) _userInfoMap;\n\n    // pk_own -> address\n    mapping(uint256 => address) _eoaMap;\n\n    // order number -> order\n    mapping(bytes32 => Order) _order;\n\n    // to check trade\n    mapping(uint256 => bool) waitTradeList;\n\n    // registData SNARK Proof verify input num\n    uint256 private constant REGISTDATA_NUM_INPUTS = 5;\n\n    // GenTrade SNARK Proof verify input num\n    uint256 private constant ORDER_NUM_INPUTS = 17;\n\n    // AcceptTrade SNARK Proof verify input num\n    uint256 private constant ACCEPT_NUM_INPUTS = 10;\n\n    // registDAta SNARK vk\n    uint256[] private registData_vk;\n\n    // GenTrade SNARK vk\n    uint256[] private orderData_vk;\n\n    // Accept Trade vk\n    uint256[] private acceptOrder_vk;\n\n    event logOrder(\n        address sender,\n        uint256 c0,\n        uint256 c1,\n        uint256[] c2\n    );\n\n    constructor(\n        uint256[] memory _registData_vk,\n        uint256[] memory _orderData_vk,\n        uint256[] memory _acceptOrder_vk\n    ){\n        registData_vk = _registData_vk;\n        orderData_vk  = _orderData_vk;\n        acceptOrder_vk = _acceptOrder_vk;\n    }\n\n    function registUserByDelegator(\n        uint256 pk_own, \n        uint256 pk_enc,\n        address eoa\n    ) \n        public\n        payable\n    {   \n        bytes32 _addr = MiMC7._hash(bytes32(pk_own), bytes32(pk_enc));\n        _registUser(uint256(_addr), pk_own, pk_enc, eoa);\n    }\n\n    function registUser(\n        uint256 pk_own, \n        uint256 pk_enc\n    )\n        public\n        payable\n    {   \n        bytes32 _addr = MiMC7._hash(bytes32(pk_own), bytes32(pk_enc));\n        _registUser(uint256(_addr), pk_own, pk_enc, msg.sender);\n    }\n\n    function _registUser(\n        uint256 addr,\n        uint256 pk_own, \n        uint256 pk_enc,\n        address eoa\n    )\n        public\n        payable\n    {   \n        require(!_addr_list[_userInfoMap[eoa].addr], \"msg.sender already exist\");\n        require(!_addr_list[addr], \"User already exist\");\n\n        _addr_list[addr] = true;\n\n        _userInfoMap[eoa].addr = addr;\n        _userInfoMap[eoa].pk_enc = pk_enc;\n        _userInfoMap[eoa].pk_own = pk_own;\n\n        _eoaMap[pk_own] = eoa;\n    }\n\n    function isRegisteredUser(\n        uint256 addr\n    ) \n        public \n        view \n        returns (bool) \n    {\n        return _addr_list[addr];\n    }\n\n    /*\n        inputs : [ constant(1) , pk_own , h_k , h_ct , id_data ]\n    */\n    function registData(\n        uint256[] memory proof,\n        uint256[REGISTDATA_NUM_INPUTS] memory inputs\n    ) \n        public \n        payable \n        returns(bool)\n    {   \n        // check input length\n        require( inputs.length == REGISTDATA_NUM_INPUTS, \"invalid Input length\");\n        \n        // check hct\n        require( !_hCT_list[inputs[3]], \"already registered h_ct\");\n\n        uint256[] memory input_values = new uint256[](REGISTDATA_NUM_INPUTS);\n        for (uint256 i = 0 ; i < REGISTDATA_NUM_INPUTS; i++) {\n            input_values[i] = inputs[i];\n        }\n        require( Groth16AltBN128._verify(registData_vk, proof, input_values), \"invalid proof\");\n\n        _hCT_list[input_values[3]] = true;\n        return _hCT_list[input_values[3]];\n    }\n\n    function isRegistered(uint256 _hct) \n        public \n        view \n        returns(bool) \n    {\n        return _hCT_list[_hct];\n    }\n\n\n    /**\n        1, \n        c0, c1   \n        cm_own \n        cm_del \n        ENA_r, ENA_c \n        ENA'_r, ENA'_c \n        fee_del, fee_own \n        CT : (size : 6)\n     */\n    function orderData(\n        uint256[] memory proof,\n        uint256[ORDER_NUM_INPUTS] memory inputs\n    )\n        public\n        payable\n        returns(bool)\n    {\n        uint256 fee = inputs[9] + inputs[10];\n        require(msg.value == fee, \"invalid fee\");\n\n        require( inputs.length == ORDER_NUM_INPUTS, \"invalid Input length\");\n\n        require( !waitTradeList[inputs[3]], \"already exist cm_own\");\n        require( !waitTradeList[inputs[4]], \"already exist cm_del\");\n\n        uint256[] memory input_values = new uint256[](ORDER_NUM_INPUTS);\n        for (uint256 i = 0 ; i < ORDER_NUM_INPUTS; i++) {\n            input_values[i] = inputs[i];\n        }\n        require( Groth16AltBN128._verify(orderData_vk, proof, input_values), \"invalid proof\");\n        \n        // order number\n        bytes32 orderNumber = MiMC7._hash(bytes32(inputs[3]), bytes32(inputs[4]));\n        _order[orderNumber].orderer = msg.sender;\n\n        // insert cm to waitTradeList\n        waitTradeList[inputs[3]] = true;\n        waitTradeList[inputs[4]] = true;\n        _order[orderNumber].cm_pear = inputs[3];\n        _order[orderNumber].cm_del = inputs[4];\n        \n        // emit log\n        uint256[] memory c2 = new uint256[](6);\n        for (uint256 i=0; i<6; i++){\n            c2[i] = input_values[i+11];\n        } \n        emit logOrder(\n            msg.sender,\n            input_values[1],\n            input_values[2],\n            c2\n        );\n\n        return true;\n    }\n\n    function cancelOrder(\n        bytes32 orderNumber\n    )\n        public\n        returns (bool)\n    {\n        require(_order[orderNumber].orderer == msg.sender,\"Not match the orderer\");\n        require(waitTradeList[_order[orderNumber].cm_pear] == true, \"cm pear no exit\");\n        require(waitTradeList[_order[orderNumber].cm_del] == true, \"cm del no exit\");\n\n        waitTradeList[_order[orderNumber].cm_pear] = false;\n        waitTradeList[_order[orderNumber].cm_del] = false;\n\n        return true;\n    }\n\n    /**\n        1\n        cm_del  \n        cm_own \n\t\tencryptedDataEncKey size : 3 \n        fee_del, fee_own,\n        pk_own_del, pk_own_peer\n     */\n    function acceptOrder(\n        uint256[] memory proof,\n        uint256[ACCEPT_NUM_INPUTS] memory inputs\n    )\n        public\n        payable\n        returns(bool)\n    {   \n        require(inputs.length == ACCEPT_NUM_INPUTS, \"invalid Inputs length\");\n\n        uint256[] memory input_values = new uint256[](ACCEPT_NUM_INPUTS);\n        for (uint256 i = 0 ; i < ACCEPT_NUM_INPUTS; i++) {\n            input_values[i] = inputs[i];\n        }\n        require(waitTradeList[input_values[1]], \"cm0 no exist\");\n        require(waitTradeList[input_values[2]], \"cm1 no exist\");\n        require( Groth16AltBN128._verify(acceptOrder_vk, proof, input_values), \"invalid proof\");        \n\n        waitTradeList[input_values[1]] = false;\n        waitTradeList[input_values[2]] = false;\n\n        payable(_eoaMap[input_values[8]]).transfer(input_values[6]);\n        payable(_eoaMap[input_values[9]]).transfer(input_values[7]);\n\n        return true;\n    }\n\n    function checkCmValidation(\n        bytes32 orderNumber\n    )\n        public\n        view\n        returns (bool,bool)\n    {\n        return (waitTradeList[_order[orderNumber].cm_pear], waitTradeList[_order[orderNumber].cm_del]);\n    }\n}",
  "sourcePath": "/Users/kim/azeroth-trade-dev/tradeContract/contracts/dataTradeBase.sol",
  "compiler": {
    "name": "solc",
    "version": "0.8.2+commit.661d1103.Emscripten.clang"
  },
  "schemaVersion": "3.4.11",
  "updatedAt": "2023-06-27T05:00:51.708Z",
  "devdoc": {
    "kind": "dev",
    "methods": {},
    "version": 1
  },
  "userdoc": {
    "kind": "user",
    "methods": {
      "acceptOrder(uint256[],uint256[10])": {
        "notice": "1 cm_del   cm_own  encryptedDataEncKey size : 3  fee_del, fee_own, pk_own_del, pk_own_peer"
      },
      "orderData(uint256[],uint256[17])": {
        "notice": "1,  c0, c1    cm_own  cm_del  ENA_r, ENA_c  ENA'_r, ENA'_c  fee_del, fee_own  CT : (size : 6)"
      }
    },
    "version": 1
  }
}