{
  "contractName": "DataTradeContract",
  "abi": [
    {
      "inputs": [
        {
          "internalType": "uint256[]",
          "name": "_registData_vk",
          "type": "uint256[]"
        },
        {
          "internalType": "uint256[]",
          "name": "_orderData_vk",
          "type": "uint256[]"
        },
        {
          "internalType": "uint256[]",
          "name": "_acceptOrder_vk",
          "type": "uint256[]"
        },
        {
          "internalType": "uint256",
          "name": "depth",
          "type": "uint256"
        },
        {
          "internalType": "uint256[]",
          "name": "vk",
          "type": "uint256[]"
        },
        {
          "internalType": "uint256[]",
          "name": "vkNft",
          "type": "uint256[]"
        },
        {
          "internalType": "uint256",
          "name": "price",
          "type": "uint256"
        },
        {
          "internalType": "address",
          "name": "toReceiveFee",
          "type": "address"
        }
      ],
      "stateMutability": "nonpayable",
      "type": "constructor"
    },
    {
      "anonymous": false,
      "inputs": [
        {
          "indexed": false,
          "internalType": "bytes32",
          "name": "message",
          "type": "bytes32"
        }
      ],
      "name": "LogDebug",
      "type": "event"
    },
    {
      "anonymous": false,
      "inputs": [
        {
          "indexed": false,
          "internalType": "address",
          "name": "tokenAddress",
          "type": "address"
        },
        {
          "indexed": false,
          "internalType": "uint88",
          "name": "tokenId",
          "type": "uint88"
        }
      ],
      "name": "LogNFT",
      "type": "event"
    },
    {
      "anonymous": false,
      "inputs": [
        {
          "indexed": false,
          "internalType": "uint256",
          "name": "addr",
          "type": "uint256"
        },
        {
          "indexed": false,
          "internalType": "uint256",
          "name": "pkOwn",
          "type": "uint256"
        },
        {
          "components": [
            {
              "internalType": "uint256",
              "name": "x",
              "type": "uint256"
            },
            {
              "internalType": "uint256",
              "name": "y",
              "type": "uint256"
            }
          ],
          "indexed": false,
          "internalType": "struct ZklayBase.CurvePoint",
          "name": "pkEnc",
          "type": "tuple"
        }
      ],
      "name": "LogUserRegister",
      "type": "event"
    },
    {
      "anonymous": false,
      "inputs": [
        {
          "indexed": false,
          "internalType": "uint256",
          "name": "nullifier",
          "type": "uint256"
        },
        {
          "indexed": false,
          "internalType": "uint256",
          "name": "com",
          "type": "uint256"
        },
        {
          "indexed": false,
          "internalType": "uint256[9]",
          "name": "ct",
          "type": "uint256[9]"
        },
        {
          "indexed": false,
          "internalType": "uint256",
          "name": "index",
          "type": "uint256"
        },
        {
          "indexed": false,
          "internalType": "address",
          "name": "tokenAddress",
          "type": "address"
        }
      ],
      "name": "LogZkTransfer",
      "type": "event"
    },
    {
      "anonymous": false,
      "inputs": [
        {
          "indexed": false,
          "internalType": "uint256",
          "name": "nullifier",
          "type": "uint256"
        },
        {
          "indexed": false,
          "internalType": "uint256",
          "name": "com",
          "type": "uint256"
        },
        {
          "indexed": false,
          "internalType": "uint256[9]",
          "name": "ct",
          "type": "uint256[9]"
        },
        {
          "indexed": false,
          "internalType": "uint256",
          "name": "index",
          "type": "uint256"
        }
      ],
      "name": "LogZkTransferNft",
      "type": "event"
    },
    {
      "anonymous": false,
      "inputs": [
        {
          "indexed": true,
          "internalType": "address",
          "name": "previousOwner",
          "type": "address"
        },
        {
          "indexed": true,
          "internalType": "address",
          "name": "newOwner",
          "type": "address"
        }
      ],
      "name": "OwnershipTransferred",
      "type": "event"
    },
    {
      "anonymous": false,
      "inputs": [
        {
          "indexed": false,
          "internalType": "address",
          "name": "sender",
          "type": "address"
        },
        {
          "indexed": false,
          "internalType": "uint256",
          "name": "c0",
          "type": "uint256"
        },
        {
          "indexed": false,
          "internalType": "uint256",
          "name": "c1",
          "type": "uint256"
        },
        {
          "indexed": false,
          "internalType": "uint256[]",
          "name": "c2",
          "type": "uint256[]"
        }
      ],
      "name": "logOrder",
      "type": "event"
    },
    {
      "inputs": [
        {
          "internalType": "uint256",
          "name": "index",
          "type": "uint256"
        }
      ],
      "name": "_computeMerklePath",
      "outputs": [
        {
          "internalType": "bytes32[]",
          "name": "",
          "type": "bytes32[]"
        }
      ],
      "stateMutability": "view",
      "type": "function"
    },
    {
      "inputs": [
        {
          "internalType": "uint256",
          "name": "",
          "type": "uint256"
        }
      ],
      "name": "_nodes",
      "outputs": [
        {
          "internalType": "bytes32",
          "name": "",
          "type": "bytes32"
        }
      ],
      "stateMutability": "view",
      "type": "function"
    },
    {
      "inputs": [],
      "name": "getAPK",
      "outputs": [
        {
          "components": [
            {
              "internalType": "uint256",
              "name": "x",
              "type": "uint256"
            },
            {
              "internalType": "uint256",
              "name": "y",
              "type": "uint256"
            }
          ],
          "internalType": "struct ZklayBase.CurvePoint",
          "name": "",
          "type": "tuple"
        },
        {
          "internalType": "uint256",
          "name": "",
          "type": "uint256"
        }
      ],
      "stateMutability": "view",
      "type": "function"
    },
    {
      "inputs": [
        {
          "internalType": "uint256",
          "name": "index",
          "type": "uint256"
        }
      ],
      "name": "getAPKByIndex",
      "outputs": [
        {
          "components": [
            {
              "internalType": "uint256",
              "name": "x",
              "type": "uint256"
            },
            {
              "internalType": "uint256",
              "name": "y",
              "type": "uint256"
            }
          ],
          "internalType": "struct ZklayBase.CurvePoint",
          "name": "",
          "type": "tuple"
        }
      ],
      "stateMutability": "view",
      "type": "function"
    },
    {
      "inputs": [
        {
          "internalType": "uint256",
          "name": "index",
          "type": "uint256"
        }
      ],
      "name": "getAPKfromIndex",
      "outputs": [
        {
          "components": [
            {
              "internalType": "uint256",
              "name": "x",
              "type": "uint256"
            },
            {
              "internalType": "uint256",
              "name": "y",
              "type": "uint256"
            }
          ],
          "internalType": "struct ZklayBase.CurvePoint",
          "name": "",
          "type": "tuple"
        }
      ],
      "stateMutability": "view",
      "type": "function"
    },
    {
      "inputs": [
        {
          "internalType": "address",
          "name": "tokenAddress",
          "type": "address"
        },
        {
          "internalType": "uint256",
          "name": "addr",
          "type": "uint256"
        }
      ],
      "name": "getCiphertext",
      "outputs": [
        {
          "internalType": "uint256",
          "name": "",
          "type": "uint256"
        },
        {
          "internalType": "uint256",
          "name": "",
          "type": "uint256"
        }
      ],
      "stateMutability": "view",
      "type": "function"
    },
    {
      "inputs": [
        {
          "internalType": "uint256",
          "name": "index",
          "type": "uint256"
        }
      ],
      "name": "getMerklePath",
      "outputs": [
        {
          "internalType": "uint256[]",
          "name": "",
          "type": "uint256[]"
        }
      ],
      "stateMutability": "view",
      "type": "function"
    },
    {
      "inputs": [],
      "name": "getRootTop",
      "outputs": [
        {
          "internalType": "uint256",
          "name": "",
          "type": "uint256"
        }
      ],
      "stateMutability": "view",
      "type": "function"
    },
    {
      "inputs": [
        {
          "internalType": "address",
          "name": "eoa",
          "type": "address"
        }
      ],
      "name": "getUserPublicKeys",
      "outputs": [
        {
          "internalType": "uint256",
          "name": "",
          "type": "uint256"
        },
        {
          "internalType": "uint256",
          "name": "",
          "type": "uint256"
        },
        {
          "components": [
            {
              "internalType": "uint256",
              "name": "x",
              "type": "uint256"
            },
            {
              "internalType": "uint256",
              "name": "y",
              "type": "uint256"
            }
          ],
          "internalType": "struct ZklayBase.CurvePoint",
          "name": "",
          "type": "tuple"
        }
      ],
      "stateMutability": "view",
      "type": "function"
    },
    {
      "inputs": [],
      "name": "getZkTransferFee",
      "outputs": [
        {
          "internalType": "uint256",
          "name": "",
          "type": "uint256"
        }
      ],
      "stateMutability": "view",
      "type": "function"
    },
    {
      "inputs": [],
      "name": "getZkTransferFeeAddress",
      "outputs": [
        {
          "internalType": "address",
          "name": "",
          "type": "address"
        }
      ],
      "stateMutability": "view",
      "type": "function"
    },
    {
      "inputs": [
        {
          "internalType": "uint256",
          "name": "nf",
          "type": "uint256"
        }
      ],
      "name": "isNullified",
      "outputs": [
        {
          "internalType": "bool",
          "name": "",
          "type": "bool"
        }
      ],
      "stateMutability": "view",
      "type": "function"
    },
    {
      "inputs": [
        {
          "internalType": "address",
          "name": "operator",
          "type": "address"
        },
        {
          "internalType": "address",
          "name": "from",
          "type": "address"
        },
        {
          "internalType": "uint256[]",
          "name": "ids",
          "type": "uint256[]"
        },
        {
          "internalType": "uint256[]",
          "name": "values",
          "type": "uint256[]"
        },
        {
          "internalType": "bytes",
          "name": "data",
          "type": "bytes"
        }
      ],
      "name": "onERC1155BatchReceived",
      "outputs": [
        {
          "internalType": "bytes4",
          "name": "",
          "type": "bytes4"
        }
      ],
      "stateMutability": "view",
      "type": "function"
    },
    {
      "inputs": [
        {
          "internalType": "address",
          "name": "operator",
          "type": "address"
        },
        {
          "internalType": "address",
          "name": "from",
          "type": "address"
        },
        {
          "internalType": "uint256",
          "name": "id",
          "type": "uint256"
        },
        {
          "internalType": "uint256",
          "name": "value",
          "type": "uint256"
        },
        {
          "internalType": "bytes",
          "name": "data",
          "type": "bytes"
        }
      ],
      "name": "onERC1155Received",
      "outputs": [
        {
          "internalType": "bytes4",
          "name": "",
          "type": "bytes4"
        }
      ],
      "stateMutability": "view",
      "type": "function"
    },
    {
      "inputs": [
        {
          "internalType": "address",
          "name": "operator",
          "type": "address"
        },
        {
          "internalType": "address",
          "name": "from",
          "type": "address"
        },
        {
          "internalType": "uint256",
          "name": "tokenId",
          "type": "uint256"
        },
        {
          "internalType": "bytes",
          "name": "data",
          "type": "bytes"
        }
      ],
      "name": "onERC721Received",
      "outputs": [
        {
          "internalType": "bytes4",
          "name": "",
          "type": "bytes4"
        }
      ],
      "stateMutability": "view",
      "type": "function"
    },
    {
      "inputs": [],
      "name": "owner",
      "outputs": [
        {
          "internalType": "address",
          "name": "",
          "type": "address"
        }
      ],
      "stateMutability": "view",
      "type": "function"
    },
    {
      "inputs": [
        {
          "internalType": "uint256[]",
          "name": "apk",
          "type": "uint256[]"
        }
      ],
      "name": "registerAuditor",
      "outputs": [],
      "stateMutability": "nonpayable",
      "type": "function"
    },
    {
      "inputs": [
        {
          "internalType": "address",
          "name": "tokenAddress",
          "type": "address"
        }
      ],
      "name": "registerToken",
      "outputs": [],
      "stateMutability": "nonpayable",
      "type": "function"
    },
    {
      "inputs": [
        {
          "internalType": "uint256",
          "name": "addr",
          "type": "uint256"
        },
        {
          "internalType": "uint256",
          "name": "pkOwn",
          "type": "uint256"
        },
        {
          "internalType": "uint256[]",
          "name": "pkEnc",
          "type": "uint256[]"
        }
      ],
      "name": "registerUser",
      "outputs": [],
      "stateMutability": "nonpayable",
      "type": "function"
    },
    {
      "inputs": [],
      "name": "renounceOwnership",
      "outputs": [],
      "stateMutability": "nonpayable",
      "type": "function"
    },
    {
      "inputs": [
        {
          "internalType": "address",
          "name": "addr",
          "type": "address"
        }
      ],
      "name": "setAzerothPriceAddress",
      "outputs": [],
      "stateMutability": "nonpayable",
      "type": "function"
    },
    {
      "inputs": [
        {
          "internalType": "uint256",
          "name": "price",
          "type": "uint256"
        }
      ],
      "name": "setZkTransferFee",
      "outputs": [],
      "stateMutability": "nonpayable",
      "type": "function"
    },
    {
      "inputs": [
        {
          "internalType": "address",
          "name": "from",
          "type": "address"
        },
        {
          "internalType": "uint256",
          "name": "value",
          "type": "uint256"
        },
        {
          "internalType": "bytes",
          "name": "data",
          "type": "bytes"
        }
      ],
      "name": "tokenFallback",
      "outputs": [],
      "stateMutability": "pure",
      "type": "function"
    },
    {
      "inputs": [
        {
          "internalType": "address",
          "name": "newOwner",
          "type": "address"
        }
      ],
      "name": "transferOwnership",
      "outputs": [],
      "stateMutability": "nonpayable",
      "type": "function"
    },
    {
      "inputs": [
        {
          "internalType": "uint256[]",
          "name": "proof",
          "type": "uint256[]"
        },
        {
          "internalType": "uint256[]",
          "name": "inputs",
          "type": "uint256[]"
        },
        {
          "internalType": "address",
          "name": "toEoA",
          "type": "address"
        },
        {
          "internalType": "address",
          "name": "tokenAddress",
          "type": "address"
        }
      ],
      "name": "zkTransfer",
      "outputs": [],
      "stateMutability": "payable",
      "type": "function"
    },
    {
      "inputs": [
        {
          "internalType": "uint256[]",
          "name": "proof",
          "type": "uint256[]"
        },
        {
          "internalType": "uint256[]",
          "name": "inputs",
          "type": "uint256[]"
        },
        {
          "internalType": "address",
          "name": "toEoA",
          "type": "address"
        }
      ],
      "name": "zkTransferNft",
      "outputs": [],
      "stateMutability": "payable",
      "type": "function"
    },
    {
      "inputs": [
        {
          "internalType": "uint256",
          "name": "pk_own",
          "type": "uint256"
        },
        {
          "internalType": "uint256",
          "name": "pk_enc",
          "type": "uint256"
        },
        {
          "internalType": "address",
          "name": "eoa",
          "type": "address"
        }
      ],
      "name": "registUserByDelegator",
      "outputs": [],
      "stateMutability": "payable",
      "type": "function"
    },
    {
      "inputs": [
        {
          "internalType": "uint256",
          "name": "pk_own",
          "type": "uint256"
        },
        {
          "internalType": "uint256",
          "name": "pk_enc",
          "type": "uint256"
        }
      ],
      "name": "registUser",
      "outputs": [],
      "stateMutability": "payable",
      "type": "function"
    },
    {
      "inputs": [
        {
          "internalType": "uint256",
          "name": "addr",
          "type": "uint256"
        },
        {
          "internalType": "uint256",
          "name": "pk_own",
          "type": "uint256"
        },
        {
          "internalType": "uint256",
          "name": "pk_enc",
          "type": "uint256"
        },
        {
          "internalType": "address",
          "name": "eoa",
          "type": "address"
        }
      ],
      "name": "_registUser",
      "outputs": [],
      "stateMutability": "payable",
      "type": "function"
    },
    {
      "inputs": [
        {
          "internalType": "uint256",
          "name": "addr",
          "type": "uint256"
        }
      ],
      "name": "isRegisteredUser",
      "outputs": [
        {
          "internalType": "bool",
          "name": "",
          "type": "bool"
        }
      ],
      "stateMutability": "view",
      "type": "function"
    },
    {
      "inputs": [
        {
          "internalType": "uint256[]",
          "name": "proof",
          "type": "uint256[]"
        },
        {
          "internalType": "uint256[]",
          "name": "inputs",
          "type": "uint256[]"
        }
      ],
      "name": "registData",
      "outputs": [
        {
          "internalType": "bool",
          "name": "",
          "type": "bool"
        }
      ],
      "stateMutability": "nonpayable",
      "type": "function"
    },
    {
      "inputs": [
        {
          "internalType": "uint256",
          "name": "_hct",
          "type": "uint256"
        }
      ],
      "name": "isRegistered",
      "outputs": [
        {
          "internalType": "bool",
          "name": "",
          "type": "bool"
        }
      ],
      "stateMutability": "view",
      "type": "function"
    },
    {
      "inputs": [
        {
          "internalType": "uint256[]",
          "name": "proof",
          "type": "uint256[]"
        },
        {
          "internalType": "uint256[]",
          "name": "inputs",
          "type": "uint256[]"
        },
        {
          "internalType": "address",
          "name": "tokenAddress",
          "type": "address"
        }
      ],
      "name": "orderData",
      "outputs": [
        {
          "internalType": "bool",
          "name": "",
          "type": "bool"
        }
      ],
      "stateMutability": "payable",
      "type": "function"
    },
    {
      "inputs": [
        {
          "internalType": "bytes32",
          "name": "orderNumber",
          "type": "bytes32"
        }
      ],
      "name": "cancelOrder",
      "outputs": [
        {
          "internalType": "bool",
          "name": "",
          "type": "bool"
        }
      ],
      "stateMutability": "nonpayable",
      "type": "function"
    },
    {
      "inputs": [
        {
          "internalType": "uint256[]",
          "name": "proof",
          "type": "uint256[]"
        },
        {
          "internalType": "uint256[]",
          "name": "inputs",
          "type": "uint256[]"
        }
      ],
      "name": "acceptOrder",
      "outputs": [
        {
          "internalType": "bool",
          "name": "",
          "type": "bool"
        }
      ],
      "stateMutability": "nonpayable",
      "type": "function"
    },
    {
      "inputs": [
        {
          "internalType": "bytes32",
          "name": "orderNumber",
          "type": "bytes32"
        }
      ],
      "name": "checkCmValidation",
      "outputs": [
        {
          "internalType": "bool",
          "name": "",
          "type": "bool"
        },
        {
          "internalType": "bool",
          "name": "",
          "type": "bool"
        }
      ],
      "stateMutability": "view",
      "type": "function"
    }
  ],
  "bytecode": "0x608060405260006007556000600e55630bebc2006016553480156200002357600080fd5b5060405162004fce38038062004fce8339810160408190526200004691620005d3565b60008590558484848484846200005e81600262000721565b6001818155906200007190600262000809565b6200007d91906200082b565b6002556000546001600160401b03811115620000a957634e487b7160e01b600052604160045260246000fd5b604051908082528060200260200182016040528015620000d3578160200160208202803683370190505b508051620000ea91600491602090910190620004a9565b50620000f562000210565b50620001013362000389565b60008051602062004fae833981519152546000818152600960209081526040909120805460ff19166001179055600f8290558551620001479160139190880190620004a9565b5083516200015d906014906020870190620004a9565b505060008052601560209081527fa31547ce6245cdb9ecea19cf8c7eb9f5974025bb4075011409251ae855b30aed805460ff19166001179055600792909255600880546001600160a01b03929092166001600160a01b03199092169190911790558b51620001d59450601d9350908c019150620004a9565b508651620001eb90601e9060208a0190620004a9565b5085516200020190601f906020890190620004a9565b5050505050505050506200088f565b6000801b60046000815481106200023757634e487b7160e01b600052603260045260246000fd5b60009182526020909120015560015b6000548110156200031857620002d56004620002646001846200082b565b815481106200028357634e487b7160e01b600052603260045260246000fd5b906000526020600020015460046001846200029f91906200082b565b81548110620002be57634e487b7160e01b600052603260045260246000fd5b9060005260206000200154620003db60201b60201c565b60048281548110620002f757634e487b7160e01b600052603260045260246000fd5b600091825260209091200155806200030f8162000845565b91505062000246565b506200036d600460016000546200033091906200082b565b815481106200034f57634e487b7160e01b600052603260045260246000fd5b9060005260206000200154600460016000546200029f91906200082b565b60008052600360205260008051602062004fae83398151915255565b600680546001600160a01b038381166001600160a01b0319831681179093556040519116919082907f8be0079c531659141344cd1fd0a4f28419497f9722a3daafe3b4186f6b6457e090600090a35050565b6000620003f48383620003fb60201b62002c001760201c565b9392505050565b60007f30644e72e131a029b85045b68181585d2833e84879b9709143e1f593f000000180838508818182098282848386858609090991507faed26d6a3f5e0ea662411ddfcde3527479de9cee7a56c656ff5f61df13a3940160005260005b605a81121562000491576020600020806000528487868387080893505083838409915083838584878687090909925060010162000459565b50508184820890508184838784080895945050505050565b828054828255906000526020600020908101928215620004e7579160200282015b82811115620004e7578251825591602001919060010190620004ca565b50620004f5929150620004f9565b5090565b5b80821115620004f55760008155600101620004fa565b80516001600160a01b03811681146200052857600080fd5b919050565b600082601f8301126200053e578081fd5b815160206001600160401b03808311156200055d576200055d62000879565b818302604051601f19603f8301168101818110848211171562000584576200058462000879565b60405284815283810192508684018288018501891015620005a3578687fd5b8692505b85831015620005c7578051845292840192600192909201918401620005a7565b50979650505050505050565b600080600080600080600080610100898b031215620005f0578384fd5b88516001600160401b038082111562000607578586fd5b620006158c838d016200052d565b995060208b01519150808211156200062b578586fd5b620006398c838d016200052d565b985060408b01519150808211156200064f578586fd5b6200065d8c838d016200052d565b975060608b0151965060808b01519150808211156200067a578586fd5b620006888c838d016200052d565b955060a08b01519150808211156200069e578485fd5b50620006ad8b828c016200052d565b93505060c08901519150620006c560e08a0162000510565b90509295985092959890939650565b80825b6001808611620006e8575062000718565b818704821115620006fd57620006fd62000863565b808616156200070b57918102915b9490941c938002620006d7565b94509492505050565b6000620003f460001984846000826200073d57506001620003f4565b816200074c57506000620003f4565b81600181146200076557600281146200077057620007a4565b6001915050620003f4565b60ff84111562000784576200078462000863565b6001841b9150848211156200079d576200079d62000863565b50620003f4565b5060208310610133831016604e8410600b8410161715620007dc575081810a83811115620007d657620007d662000863565b620003f4565b620007eb8484846001620006d4565b80860482111562000800576200080062000863565b02949350505050565b600081600019048311821515161562000826576200082662000863565b500290565b60008282101562000840576200084062000863565b500390565b60006000198214156200085c576200085c62000863565b5060010190565b634e487b7160e01b600052601160045260246000fd5b634e487b7160e01b600052604160045260246000fd5b61470f806200089f6000396000f3fe60806040526004361061020f5760003560e01c806382135d2c11610118578063c0b8776d116100a0578063d270ecdf1161006f578063d270ecdf14610683578063e4b808cb146106a3578063e5e678ea146106d8578063f23a6e61146106f8578063f2fde38b146107255761020f565b8063c0b8776d14610608578063c0ee0b8a1461061b578063c48a13e11461063b578063d12ad3e11461064e5761020f565b80639d846971116100e75780639d84697114610573578063a6bb878d14610586578063ad2ff296146105a6578063bc197c81146105b9578063bffa6930146105e85761020f565b806382135d2c1461050d578063882712ab1461052d5780638da5cb5b14610540578063941f0c411461055e5761020f565b806356e638401161019b578063645e14151161016a578063645e14151461047c5780636e4d6517146104ab578063715018a6146104d85780637489ec23146104ed5780637d3f194b146103dc5761020f565b806356e63840146103dc578063579a698814610409578063613189521461043957806363dc5ecb146104695761020f565b8063150b7a02116101e2578063150b7a021461030757806318cf46301461034c5780631a4225501461036c5780632e7d754b1461038c57806355ba20e3146103c75761020f565b8063067922a81461021457806309824a801461024b5780630e39b06f1461026d57806311168545146102d7575b600080fd5b34801561022057600080fd5b506008546001600160a01b03165b6040516001600160a01b0390911681526020015b60405180910390f35b34801561025757600080fd5b5061026b610266366004613dd8565b610745565b005b34801561027957600080fd5b506102c06102883660046141de565b6000908152601b6020908152604080832060018101548452601c9092528083205460029092015483529091205460ff91821692911690565b604080519215158352901515602083015201610242565b3480156102e357600080fd5b506102f76102f236600461408d565b61082c565b6040519015158152602001610242565b34801561031357600080fd5b50610333610322366004613ea8565b630a85bd0160e11b95945050505050565b6040516001600160e01b03199091168152602001610242565b34801561035857600080fd5b5061026b610367366004613dd8565b610a64565b34801561037857600080fd5b506102f76103873660046141de565b610a8e565b34801561039857600080fd5b506103b96103a73660046141de565b60036020526000908152604090205481565b604051908152602001610242565b3480156103d357600080fd5b50600f546103b9565b3480156103e857600080fd5b506103fc6103f73660046141de565b610aa6565b6040516102429190614413565b34801561041557600080fd5b506102f76104243660046141de565b60009081526017602052604090205460ff1690565b34801561044557600080fd5b506102f76104543660046141de565b6000908152600a602052604090205460ff1690565b61026b61047736600461415d565b610b2d565b34801561048857600080fd5b5061049c610497366004613dd8565b611292565b60405161024293929190614495565b3480156104b757600080fd5b506104cb6104c63660046141de565b6112fa565b60405161024291906142e5565b3480156104e457600080fd5b5061026b6113da565b3480156104f957600080fd5b506102f76105083660046141de565b6113ee565b34801561051957600080fd5b506102f761052836600461408d565b611558565b61026b61053b3660046141f6565b611870565b34801561054c57600080fd5b506006546001600160a01b031661022e565b34801561056a57600080fd5b506007546103b9565b61026b61058136600461428f565b611891565b34801561059257600080fd5b5061026b6105a13660046141de565b611a1c565b6102f76105b43660046140ed565b611a29565b3480156105c557600080fd5b506103336105d4366004613df2565b63bc197c8160e01b98975050505050505050565b3480156105f457600080fd5b5061026b610603366004614242565b611fd3565b61026b6106163660046140ed565b612128565b34801561062757600080fd5b5061026b610636366004613fb2565b612635565b61026b610649366004614217565b612789565b34801561065a57600080fd5b506106636127b3565b604080518351815260209384015193810193909352820152606001610242565b34801561068f57600080fd5b5061026b61069e36600461405b565b6128d3565b3480156106af57600080fd5b506106c36106be366004613f89565b612987565b60408051928352602083019190915201610242565b3480156106e457600080fd5b506104cb6106f33660046141de565b612a7a565b34801561070457600080fd5b50610333610713366004613f14565b63f23a6e6160e01b9695505050505050565b34801561073157600080fd5b5061026b610740366004613dd8565b612b87565b61074d612cac565b6001600160a01b0381166107a85760405162461bcd60e51b815260206004820152601f60248201527f43616e6e6f742072656769737465722061646472657373206f66207a65726f0060448201526064015b60405180910390fd5b6001600160a01b03811660009081526015602052604090205460ff16156108085760405162461bcd60e51b8152602060048201526014602482015273546f6b656e20616c72656164792065786973747360601b604482015260640161079f565b6001600160a01b03166000908152601560205260409020805460ff19166001179055565b600060048251146108765760405162461bcd60e51b81526020600482015260146024820152730d2dcecc2d8d2c84092dce0eae840d8cadccee8d60631b604482015260640161079f565b601760008360038151811061089b57634e487b7160e01b600052603260045260246000fd5b60209081029190910181015182528101919091526040016000205460ff16156109065760405162461bcd60e51b815260206004820152601760248201527f616c7265616479207265676973746572656420685f6374000000000000000000604482015260640161079f565b60408051600480825260a082019092526000916020820160808036833701905050905060005b600481101561099a5783818151811061095557634e487b7160e01b600052603260045260246000fd5b602002602001015182828151811061097d57634e487b7160e01b600052603260045260246000fd5b60209081029190910101528061099281614692565b91505061092c565b506109a7601d8583612d06565b6109c35760405162461bcd60e51b815260040161079f906143ec565b600160176000836003815181106109ea57634e487b7160e01b600052603260045260246000fd5b6020026020010151815260200190815260200160002060006101000a81548160ff0219169083151502179055506017600082600381518110610a3c57634e487b7160e01b600052603260045260246000fd5b60209081029190910181015182528101919091526040016000205460ff169150505b92915050565b610a6c612cac565b600880546001600160a01b0319166001600160a01b0392909216919091179055565b60008181526018602052604090205460ff165b919050565b60408051808201909152600080825260208201526000828152600d602052604090205415801590610ae757506000828152600d602052604090206001015415155b610b035760405162461bcd60e51b815260040161079f90614329565b506000908152600d6020908152604091829020825180840190935280548352600101549082015290565b6001600160a01b038116600090815260156020526040902054819060ff16610b8e5760405162461bcd60e51b8152602060048201526014602482015273151bdad95b88191bd95cc81b9bdd08195e1a5cdd60621b604482015260640161079f565b83600081518110610baf57634e487b7160e01b600052603260045260246000fd5b602002602001015184600181518110610bd857634e487b7160e01b600052603260045260246000fd5b60200260200101516000600b6000015414158015610bf75750600c5415155b610c135760405162461bcd60e51b815260040161079f90614329565b60008281526009602052604090205460ff16610c6a5760405162461bcd60e51b8152602060048201526016602482015275151a1a5cc81c9bdbdd081a5cc81b9bdd081d985b1a5960521b604482015260640161079f565b6000818152600a602052604090205460ff1615610c995760405162461bcd60e51b815260040161079f906143a8565b600086600281518110610cbc57634e487b7160e01b600052603260045260246000fd5b6020908102919091018101516000818152601090925260409091205490915060ff16610d405760405162461bcd60e51b815260206004820152602d60248201527f496e76616c696420557365723a2054686520757365722069736e607420696e2060448201526c1d1a19481d5cd95c881b1a5cdd609a1b606482015260840161079f565b6001600160a01b038516600090815260126020908152604080832084845282528083208151808301835281548152600190910154818401528151600480825260a082019093529093929091908201608080368337019050509050600b6000015481600081518110610dc157634e487b7160e01b600052603260045260246000fd5b602002602001018181525050600b6001015481600181518110610df457634e487b7160e01b600052603260045260246000fd5b602002602001018181525050816000015181600281518110610e2657634e487b7160e01b600052603260045260246000fd5b602002602001018181525050816020015181600381518110610e5857634e487b7160e01b600052603260045260246000fd5b602002602001018181525050610e798a610e72838c613192565b6000613345565b610e955760405162461bcd60e51b815260040161079f90614355565b610ec989600681518110610eb957634e487b7160e01b600052603260045260246000fd5b602002602001015160001b613374565b6000610ed5600161341c565b9050610ee081613490565b6001600a60008c600181518110610f0757634e487b7160e01b600052603260045260246000fd5b6020026020010151815260200190815260200160002060006101000a81548160ff02191690831515021790555060006040518061012001604052808c600b81518110610f6357634e487b7160e01b600052603260045260246000fd5b602002602001015181526020018c600c81518110610f9157634e487b7160e01b600052603260045260246000fd5b602002602001015181526020018c600d81518110610fbf57634e487b7160e01b600052603260045260246000fd5b602002602001015181526020018c600e81518110610fed57634e487b7160e01b600052603260045260246000fd5b602002602001015181526020018c600f8151811061101b57634e487b7160e01b600052603260045260246000fd5b602002602001015181526020018c60108151811061104957634e487b7160e01b600052603260045260246000fd5b602002602001015181526020018c60118151811061107757634e487b7160e01b600052603260045260246000fd5b602002602001015181526020018c6012815181106110a557634e487b7160e01b600052603260045260246000fd5b602002602001015181526020018c6013815181106110d357634e487b7160e01b600052603260045260246000fd5b602002602001015181525090507fdd274a8f09bac9a675f0f4da725a1975aa8140edcddc6254e09c6d15fa0033328b60018151811061112257634e487b7160e01b600052603260045260246000fd5b60200260200101518c60068151811061114b57634e487b7160e01b600052603260045260246000fd5b6020026020010151836005548d604051611169959493929190614456565b60405180910390a16111e060405180604001604052808d6009815181106111a057634e487b7160e01b600052603260045260246000fd5b602002602001015181526020018d600a815181106111ce57634e487b7160e01b600052603260045260246000fd5b60200260200101518152508b8b6134ae565b6111e86137bc565b60405180604001604052808c60078151811061121457634e487b7160e01b600052603260045260246000fd5b602002602001015181526020018c60088151811061124257634e487b7160e01b600052603260045260246000fd5b6020908102919091018101519091526001600160a01b03909a16600090815260128b526040808220978252968b529590952085518155949098015160019094019390935550505050505050505050565b6000806112b2604051806040016040528060008152602001600081525090565b5050506001600160a01b031660009081526011602090815260409182902080546001820154845180860190955260028301548552600390920154928401929092529092909190565b6060600061130783612a7a565b9050600080546001600160401b0381111561133257634e487b7160e01b600052604160045260246000fd5b60405190808252806020026020018201604052801561135b578160200160208202803683370190505b50905060005b82518110156113d25782818151811061138a57634e487b7160e01b600052603260045260246000fd5b602002602001015160001c8282815181106113b557634e487b7160e01b600052603260045260246000fd5b6020908102919091010152806113ca81614692565b915050611361565b509392505050565b6113e2612cac565b6113ec6000613861565b565b6000818152601b60205260408120546001600160a01b0316331461144c5760405162461bcd60e51b81526020600482015260156024820152742737ba1036b0ba31b4103a34329037b93232b932b960591b604482015260640161079f565b6000828152601b602090815260408083206001908101548452601c9092529091205460ff161515146114b25760405162461bcd60e51b815260206004820152600f60248201526e18db481c19585c881b9bc8195e1a5d608a1b604482015260640161079f565b6000828152601b60209081526040808320600201548352601c90915290205460ff1615156001146115165760405162461bcd60e51b815260206004820152600e60248201526d18db4819195b081b9bc8195e1a5d60921b604482015260640161079f565b506000908152601b602090815260408083206001808201548552601c909352818420805460ff1990811690915560029091015484529220805490921690915590565b600060088251146115a35760405162461bcd60e51b81526020600482015260156024820152740d2dcecc2d8d2c84092dce0eae8e640d8cadccee8d605b1b604482015260640161079f565b601c6000836001815181106115c857634e487b7160e01b600052603260045260246000fd5b60209081029190910181015182528101919091526040016000205460ff166116215760405162461bcd60e51b815260206004820152600c60248201526b18db4c081b9bc8195e1a5cdd60a21b604482015260640161079f565b601c60008360028151811061164657634e487b7160e01b600052603260045260246000fd5b60209081029190910181015182528101919091526040016000205460ff1661169f5760405162461bcd60e51b815260206004820152600c60248201526b18db4c481b9bc8195e1a5cdd60a21b604482015260640161079f565b6040805160088082526101208201909252600091602082016101008036833701905050905060005b6008811015611735578381815181106116f057634e487b7160e01b600052603260045260246000fd5b602002602001015182828151811061171857634e487b7160e01b600052603260045260246000fd5b60209081029190910101528061172d81614692565b9150506116c7565b50611742601f8583612d06565b61175e5760405162461bcd60e51b815260040161079f906143ec565b6000601c60008560018151811061178557634e487b7160e01b600052603260045260246000fd5b6020026020010151815260200190815260200160002060006101000a81548160ff0219169083151502179055506000601c6000856002815181106117d957634e487b7160e01b600052603260045260246000fd5b6020026020010151815260200190815260200160002060006101000a81548160ff02191690831515021790555061182a83600381518110610eb957634e487b7160e01b600052603260045260246000fd5b61184e83600481518110610eb957634e487b7160e01b600052603260045260246000fd5b600061185a600161341c565b905061186581613490565b506001949350505050565b3360008181526011602052604090205461188d9184908490611891565b5050565b60008481526010602052604090205460ff166118ef5760405162461bcd60e51b815260206004820152601b60248201527f417a65726f746820557365722064656f73206e6f742065786973740000000000604482015260640161079f565b6001600160a01b0381166000908152601960209081526040808320548352601890915290205460ff16156119655760405162461bcd60e51b815260206004820152601860248201527f6d73672e73656e64657220616c72656164792065786973740000000000000000604482015260640161079f565b60008481526018602052604090205460ff16156119b95760405162461bcd60e51b8152602060048201526012602482015271155cd95c88185b1c9958591e48195e1a5cdd60721b604482015260640161079f565b6000848152601860209081526040808320805460ff191660019081179091556001600160a01b0390941680845260198352818420978855938701949094556002909501849055928352601a909352902080546001600160a01b0319169091179055565b611a24612cac565b600755565b6000600e835114611a735760405162461bcd60e51b81526020600482015260146024820152730d2dcecc2d8d2c84092dce0eae840d8cadccee8d60631b604482015260640161079f565b601c600084600381518110611a9857634e487b7160e01b600052603260045260246000fd5b60209081029190910181015182528101919091526040016000205460ff1615611afa5760405162461bcd60e51b815260206004820152601460248201527330b63932b0b23c9032bc34b9ba1031b6afb7bbb760611b604482015260640161079f565b601c600084600481518110611b1f57634e487b7160e01b600052603260045260246000fd5b60209081029190910181015182528101919091526040016000205460ff1615611b815760405162461bcd60e51b8152602060048201526014602482015273185b1c9958591e48195e1a5cdd0818db57d9195b60621b604482015260640161079f565b82600581518110611ba257634e487b7160e01b600052603260045260246000fd5b6020908102919091018101516001600160a01b038416600090815260128352604080822033835260118552818320548352909352919091205414611c195760405162461bcd60e51b815260206004820152600e60248201526d696e76616c696420454e4128722960901b604482015260640161079f565b82600681518110611c3a57634e487b7160e01b600052603260045260246000fd5b6020908102919091018101516001600160a01b038416600090815260128352604080822033835260118552818320548352909352919091206001015414611cb55760405162461bcd60e51b815260206004820152600f60248201526e696e76616c696420454e412863742960881b604482015260640161079f565b60408051600e8082526101e08201909252600091602082016101c08036833701905050905060005b600e811015611d4b57848181518110611d0657634e487b7160e01b600052603260045260246000fd5b6020026020010151828281518110611d2e57634e487b7160e01b600052603260045260246000fd5b602090810291909101015280611d4381614692565b915050611cdd565b50611d58601e8683612d06565b611d745760405162461bcd60e51b815260040161079f906143ec565b6000611dd685600381518110611d9a57634e487b7160e01b600052603260045260246000fd5b602002602001015160001b86600481518110611dc657634e487b7160e01b600052603260045260246000fd5b602002602001015160001b612c00565b6000818152601b6020526040812080546001600160a01b031916331790558651919250600191601c919088906003908110611e2157634e487b7160e01b600052603260045260246000fd5b6020026020010151815260200190815260200160002060006101000a81548160ff0219169083151502179055506001601c600087600481518110611e7557634e487b7160e01b600052603260045260246000fd5b6020026020010151815260200190815260200160002060006101000a81548160ff02191690831515021790555084600381518110611ec357634e487b7160e01b600052603260045260246000fd5b6020026020010151601b60008381526020019081526020016000206001018190555084600481518110611f0657634e487b7160e01b600052603260045260246000fd5b6020026020010151601b600083815260200190815260200160002060020181905550604051806040016040528086600781518110611f5457634e487b7160e01b600052603260045260246000fd5b6020026020010151815260200186600881518110611f8257634e487b7160e01b600052603260045260246000fd5b6020908102919091018101519091526001600160a01b0386166000908152601282526040808220338352601184528183205483528352902082518155910151600191820155925050505b9392505050565b60008381526010602052604090205460ff16156120275760405162461bcd60e51b8152602060048201526012602482015271155cd95c88185b1c9958591e48195e1a5cdd60721b604482015260640161079f565b6000838152601060209081526040808320805460ff1916600190811790915533845260119092528083208681559091018490558051808201909152825181908490849061208457634e487b7160e01b600052603260045260246000fd5b60200260200101518152602001836001815181106120b257634e487b7160e01b600052603260045260246000fd5b602090810291909101810151909152336000908152601182526040908190208351600282015591830151600390920191909155519091507f5d896b64597a7e2b976482836cafa74ffe64edaabd18611d718d0e81920dc50f9061211a90869086908590614495565b60405180910390a150505050565b8160008151811061214957634e487b7160e01b600052603260045260246000fd5b60200260200101518260018151811061217257634e487b7160e01b600052603260045260246000fd5b60200260200101516000600b60000154141580156121915750600c5415155b6121ad5760405162461bcd60e51b815260040161079f90614329565b60008281526009602052604090205460ff166122045760405162461bcd60e51b8152602060048201526016602482015275151a1a5cc81c9bdbdd081a5cc81b9bdd081d985b1a5960521b604482015260640161079f565b6000818152600a602052604090205460ff16156122335760405162461bcd60e51b815260040161079f906143a8565b604080516002808252606082018352600092602083019080368337019050509050600b600001548160008151811061227b57634e487b7160e01b600052603260045260246000fd5b602002602001018181525050600b60010154816001815181106122ae57634e487b7160e01b600052603260045260246000fd5b6020026020010181815250506122cf866122c88388613192565b6001613345565b6122eb5760405162461bcd60e51b815260040161079f90614355565b61230f85600681518110610eb957634e487b7160e01b600052603260045260246000fd5b600061231b600161341c565b905061232681613490565b6001600a60008860018151811061234d57634e487b7160e01b600052603260045260246000fd5b6020026020010151815260200190815260200160002060006101000a81548160ff0219169083151502179055506000604051806101200160405280886009815181106123a957634e487b7160e01b600052603260045260246000fd5b6020026020010151815260200188600a815181106123d757634e487b7160e01b600052603260045260246000fd5b6020026020010151815260200188600b8151811061240557634e487b7160e01b600052603260045260246000fd5b6020026020010151815260200188600c8151811061243357634e487b7160e01b600052603260045260246000fd5b6020026020010151815260200188600d8151811061246157634e487b7160e01b600052603260045260246000fd5b6020026020010151815260200188600e8151811061248f57634e487b7160e01b600052603260045260246000fd5b6020026020010151815260200188600f815181106124bd57634e487b7160e01b600052603260045260246000fd5b60200260200101518152602001886010815181106124eb57634e487b7160e01b600052603260045260246000fd5b602002602001015181526020018860118151811061251957634e487b7160e01b600052603260045260246000fd5b602002602001015181525090507fae22b5eb914c897f4ad77dbe0533a3ee0921add0bb4405c1e246dbec3ba961968760018151811061256857634e487b7160e01b600052603260045260246000fd5b60200260200101518860068151811061259157634e487b7160e01b600052603260045260246000fd5b6020026020010151836005546040516125ad949392919061442a565b60405180910390a16126236040518060400160405280896007815181106125e457634e487b7160e01b600052603260045260246000fd5b602002602001015181526020018960088151811061261257634e487b7160e01b600052603260045260246000fd5b6020026020010151815250876138b3565b61262b6137bc565b5050505050505050565b604080516080810182526000606082018190526001600160a01b03861682526020820185905291810183905282519091906018908490600390811061268a57634e487b7160e01b600052603260045260246000fd5b016020015184516001600160f81b031990911690911c60e01c90601090859060029081106126c857634e487b7160e01b600052603260045260246000fd5b016020015185516001600160f81b031990911690911c60e01c906008908690600190811061270657634e487b7160e01b600052603260045260246000fd5b016020015186516001600160f81b031990911690911c60e01c90869060009061273f57634e487b7160e01b600052603260045260246000fd5b602091010151612758919060e01c63ff00000016614500565b6127629190614500565b61276c9190614500565b60e01b6001600160e01b0319166060929092019190915250505050565b6001600160a01b0381166000908152601160205260409020546127ae90848484611891565b505050565b6040805180820190915260008082526020820152600b54600090158015906127dc5750600c5415155b6127f85760405162461bcd60e51b815260040161079f90614329565b600d60006001600e5461280b919061467b565b8152602081019190915260400160002054600b541480156128545750600d60006001600e5461283a919061467b565b815260200190815260200160002060010154600b60010154145b6128a05760405162461bcd60e51b815260206004820152601e60248201527f353030204572726f722c2041504b20736f6d657468696e672077726f6e670000604482015260640161079f565b600b6001600e546128b1919061467b565b6040805180820190915282548152600190920154602083015290925090509091565b6128db612cac565b60405180604001604052808260008151811061290757634e487b7160e01b600052603260045260246000fd5b602002602001015181526020018260018151811061293557634e487b7160e01b600052603260045260246000fd5b602090810291909101810151909152600e80546000908152600d8352604080822085518155949093015160019485015590548082529190208054600b55820154600c55612981916144e8565b600e5550565b6001600160a01b0382166000908152601560205260408120548190849060ff166129ea5760405162461bcd60e51b8152602060048201526014602482015273151bdad95b88191bd95cc81b9bdd08195e1a5cdd60621b604482015260640161079f565b60008481526010602052604090205460ff16612a485760405162461bcd60e51b815260206004820152601760248201527f546865207573657220646f6573206e6f74206578697374000000000000000000604482015260640161079f565b5050506001600160a01b0391909116600090815260126020908152604080832093835292905220600181015490549091565b6060600080546001600160401b03811115612aa557634e487b7160e01b600052604160045260246000fd5b604051908082528060200260200182016040528015612ace578160200160208202803683370190505b50905060005b600054811015612b80576001841615612b2c57612afb612af560018661467b565b82613a60565b828281518110612b1b57634e487b7160e01b600052603260045260246000fd5b602002602001018181525050612b67565b612b3a612af58560016144e8565b828281518110612b5a57634e487b7160e01b600052603260045260246000fd5b6020026020010181815250505b60019390931c9280612b7881614692565b915050612ad4565b5092915050565b612b8f612cac565b6001600160a01b038116612bf45760405162461bcd60e51b815260206004820152602660248201527f4f776e61626c653a206e6577206f776e657220697320746865207a65726f206160448201526564647265737360d01b606482015260840161079f565b612bfd81613861565b50565b60007f30644e72e131a029b85045b68181585d2833e84879b9709143e1f593f000000180838508818182098282848386858609090991507faed26d6a3f5e0ea662411ddfcde3527479de9cee7a56c656ff5f61df13a3940160005260005b605a811215612c945760206000208060005284878683870808935050838384099150838385848786870909099250600101612c5e565b50508184820890508184838784080895945050505050565b6006546001600160a01b031633146113ec5760405162461bcd60e51b815260206004820181905260248201527f4f776e61626c653a2063616c6c6572206973206e6f7420746865206f776e6572604482015260640161079f565b60008251600814612d595760405162461bcd60e51b815260206004820152601e60248201527f50726f6f662073697a6520696e76616c69642028414c542d424e313238290000604482015260640161079f565b600060016002600a8780549050612d70919061467b565b612d7a9190614528565b612d84919061467b565b905080835114612de15760405162461bcd60e51b815260206004820152602260248201527f496e707574206c656e67746820646966666572732066726f6d20657870656374604482015261195960f21b606482015260840161079f565b60005b81811015612e94577f30644e72e131a029b85045b68181585d2833e84879b9709143e1f593f0000001848281518110612e2d57634e487b7160e01b600052603260045260246000fd5b602002602001015110612e825760405162461bcd60e51b815260206004820152601c60248201527f496e707574206973206e6f7420696e207363616c6172206669656c6400000000604482015260640161079f565b80612e8c81614692565b915050612de4565b50612e9d613c9a565b600160006107d05a03888452602084209150600a820160208801885160200281018254875260018301925082546020880152600183019250604087015b81831015612f2957835481526001840193508354602082015260018401935082516040820152602083019250604081606083600060078af160408960808b600060068bf1169690961695612eda565b505050505081612fa15760405162461bcd60e51b815260206004820152603960248201527f43616c6c20746f2074686520626e323536416464206f7220626e32353653636160448201527f6c61724d756c20707265636f6d70696c6564206661696c656400000000000000606482015260840161079f565b7f198e9393920d483a7260bfb731fb5d25f1aa493335a9e71297e485b7aef312c260408401527f1800deef121f1e76426a00665e5c4479674322d4f75edadd46debd5cd992f6ed60608401527f275dc4a288d1afb3cbb1ac09187524c7db36395df7be3b99e673b13a075a65ec60808401527f1d9befcd05a5323e6da4d435f3b617cdb3af83285c2df711ef39c01571827f9d60a0840152805460c0840152600181015460e08401526002810154610100840152600381015461012084015260048101546101408401526005810154610160840152602087019650865161018084015260208701516101a084015260408701516101c084015260608701516101e0840152608087015161020084015260a087015161022084015260c087015161024084015260e0870151610260840152600681015461028084015260078101546102a084015260088101546102c084015260098101546102e084015260208361030085600060086107d05a03f19150816131835760405162461bcd60e51b815260206004820152603760248201527f43616c6c20746f20626e3235364164642c20626e3235365363616c61724d756c60448201527f206f7220626e32353650616972696e67206661696c6564000000000000000000606482015260840161079f565b50505160011495945050505050565b606060008351835160016131a691906144e8565b6131b091906144e8565b90506000816001600160401b038111156131da57634e487b7160e01b600052604160045260246000fd5b604051908082528060200260200182016040528015613203578160200160208202803683370190505b50905060018160008151811061322957634e487b7160e01b600052603260045260246000fd5b60200260200101818152505060005b85518110156132b25785818151811061326157634e487b7160e01b600052603260045260246000fd5b60200260200101518282600161327791906144e8565b8151811061329557634e487b7160e01b600052603260045260246000fd5b6020908102919091010152806132aa81614692565b915050613238565b5060005b845181101561333c578481815181106132df57634e487b7160e01b600052603260045260246000fd5b60200260200101518287518360016132f791906144e8565b61330191906144e8565b8151811061331f57634e487b7160e01b600052603260045260246000fd5b60209081029190910101528061333481614692565b9150506132b6565b50949350505050565b600081156133605761335960148585612d06565b9050611fcc565b61336c60138585612d06565b949350505050565b600154600554106133d55760405162461bcd60e51b815260206004820152602560248201527f426173654d65726b6c65547265653a2043616e6e6f7420617070656e6420616e604482015264796d6f726560d81b606482015260840161079f565b600580549060006133e583614692565b909155506001805460009183916133fc919061467b565b61340691906144e8565b6000908152600360205260409020929092555050565b6005546000908161342d848361467b565b905060005b60005481101561345d57613447818385613b2d565b935091508061345581614692565b915050613432565b50506000805250506003602052507f3617319a054d772f909f7c479a2cebe5066e836a939412e32403c99029b92eff5490565b6000818152600960205260409020805460ff19166001179055600f55565b82516020840151811561364f576001600160a01b038316156135db576040516323b872dd60e01b81523360048201523060248201526044810183905283906001600160a01b038216906323b872dd90606401600060405180830381600087803b15801561351a57600080fd5b505af115801561352e573d6000803e3d6000fd5b5050505060003411156135d557604051600090339034908381818185875af1925050503d806000811461357d576040519150601f19603f3d011682016040523d82523d6000602084013e613582565b606091505b50509050806135d35760405162461bcd60e51b815260206004820152601d60248201527f76707562496e2072657475726e207472616e73666572206661696c6564000000604482015260640161079f565b505b5061364a565b6135e660018361465c565b915081341461364a5760405162461bcd60e51b815260206004820152602a60248201527f57726f6e67206d73672e76616c75653a2056616c75652070616964206973206e6044820152691bdd0818dbdc9c9958dd60b21b606482015260840161079f565b6136ef565b34156136ef57604051600090339034908381818185875af1925050503d8060008114613697576040519150601f19603f3d011682016040523d82523d6000602084013e61369c565b606091505b50509050806136ed5760405162461bcd60e51b815260206004820152601d60248201527f76707562496e2072657475726e207472616e73666572206661696c6564000000604482015260640161079f565b505b80156137b5576001600160a01b0383161561376f5760405163a9059cbb60e01b81526001600160a01b0385811660048301526024820183905284919082169063a9059cbb90604401600060405180830381600087803b15801561375157600080fd5b505af1158015613765573d6000803e3d6000fd5b50505050506137b5565b61377a60018261465c565b6040519091506001600160a01b0385169082156108fc029083906000818181858888f193505050501580156137b3573d6000803e3d6000fd5b505b5050505050565b6008546007546040516000926001600160a01b031691908381818185875af1925050503d806000811461380b576040519150601f19603f3d011682016040523d82523d6000602084013e613810565b606091505b5050905080612bfd5760405162461bcd60e51b815260206004820152601c60248201527f417a65726f746820666565207472616e73666572206661696c65642e00000000604482015260640161079f565b600680546001600160a01b038381166001600160a01b0319831681179093556040519116919082907f8be0079c531659141344cd1fd0a4f28419497f9722a3daafe3b4186f6b6457e090600090a35050565b8151602083015181156139895760408051605884901c6001600160a01b03811682526001600160581b038516602083015282519092859284927f681af9f7b3224058a4ddb04dfad4e2daea3997edb51862e7740d1d40fa3f1ec5929181900390910190a16040516323b872dd60e01b81523360048201523060248201526001600160581b03831660448201526001600160a01b038216906323b872dd90606401600060405180830381600087803b15801561396d57600080fd5b505af1158015613981573d6000803e3d6000fd5b505050505050505b8015613a5a5760408051605883901c6001600160a01b03811682526001600160581b038416602083015282519092849284927f681af9f7b3224058a4ddb04dfad4e2daea3997edb51862e7740d1d40fa3f1ec5929181900390910190a16040516323b872dd60e01b81523060048201526001600160a01b0387811660248301526001600160581b03841660448301528216906323b872dd90606401600060405180830381600087803b158015613a3e57600080fd5b505af1158015613a52573d6000803e3d6000fd5b505050505050505b50505050565b60008060001b6003600085600186600054613a7b919061467b565b613a8690600261458e565b613a90919061467b565b613a9a91906144e8565b8152602001908152602001600020541415613ae25760048281548110613ad057634e487b7160e01b600052603260045260246000fd5b90600052602060002001549050610a5e565b6003600084600185600054613af7919061467b565b613b0290600261458e565b613b0c919061467b565b613b1691906144e8565b815260200190815260200160002054905092915050565b6000806000600186600054613b42919061467b565b613b4d90600261458e565b613b57919061467b565b90506000613b696001198716836144e8565b905060006001861615613c05576001613b8287856144e8565b613b8c919061467b565b60008181526003602052604090205460048054929350613bd4928b908110613bc457634e487b7160e01b600052603260045260246000fd5b9060005260206000200154613c8e565b600360006002613be560018661467b565b613bef9190614528565b8152602081019190915260400160002055613c12565b613c0f86846144e8565b90505b81811115613c5d57613c2560028261467b565b6000818152600360208190526040822054929350613bd49291613c498560016144e8565b815260200190815260200160002054613c8e565b613c68600288614528565b6002613c758860016144e8565b613c7f9190614528565b94509450505050935093915050565b6000611fcc8383612c00565b6040518061030001604052806018906020820280368337509192915050565b80356001600160a01b0381168114610aa157600080fd5b60008083601f840112613ce1578182fd5b5081356001600160401b03811115613cf7578182fd5b6020830191508360208083028501011115613d1157600080fd5b9250929050565b600082601f830112613d28578081fd5b813560206001600160401b03821115613d4357613d436146c3565b808202613d518282016144b8565b838152828101908684018388018501891015613d6b578687fd5b8693505b85841015613d8d578035835260019390930192918401918401613d6f565b50979650505050505050565b60008083601f840112613daa578182fd5b5081356001600160401b03811115613dc0578182fd5b602083019150836020828501011115613d1157600080fd5b600060208284031215613de9578081fd5b611fcc82613cb9565b60008060008060008060008060a0898b031215613e0d578384fd5b613e1689613cb9565b9750613e2460208a01613cb9565b965060408901356001600160401b0380821115613e3f578586fd5b613e4b8c838d01613cd0565b909850965060608b0135915080821115613e63578586fd5b613e6f8c838d01613cd0565b909650945060808b0135915080821115613e87578384fd5b50613e948b828c01613d99565b999c989b5096995094979396929594505050565b600080600080600060808688031215613ebf578081fd5b613ec886613cb9565b9450613ed660208701613cb9565b93506040860135925060608601356001600160401b03811115613ef7578182fd5b613f0388828901613d99565b969995985093965092949392505050565b60008060008060008060a08789031215613f2c578182fd5b613f3587613cb9565b9550613f4360208801613cb9565b9450604087013593506060870135925060808701356001600160401b03811115613f6b578283fd5b613f7789828a01613d99565b979a9699509497509295939492505050565b60008060408385031215613f9b578182fd5b613fa483613cb9565b946020939093013593505050565b600080600060608486031215613fc6578283fd5b613fcf84613cb9565b9250602080850135925060408501356001600160401b0380821115613ff2578384fd5b818701915087601f830112614005578384fd5b813581811115614017576140176146c3565b614029601f8201601f191685016144b8565b9150808252888482850101111561403e578485fd5b808484018584013784848284010152508093505050509250925092565b60006020828403121561406c578081fd5b81356001600160401b03811115614081578182fd5b61336c84828501613d18565b6000806040838503121561409f578182fd5b82356001600160401b03808211156140b5578384fd5b6140c186838701613d18565b935060208501359150808211156140d6578283fd5b506140e385828601613d18565b9150509250929050565b600080600060608486031215614101578283fd5b83356001600160401b0380821115614117578485fd5b61412387838801613d18565b94506020860135915080821115614138578384fd5b5061414586828701613d18565b92505061415460408501613cb9565b90509250925092565b60008060008060808587031215614172578384fd5b84356001600160401b0380821115614188578586fd5b61419488838901613d18565b955060208701359150808211156141a9578485fd5b506141b687828801613d18565b9350506141c560408601613cb9565b91506141d360608601613cb9565b905092959194509250565b6000602082840312156141ef578081fd5b5035919050565b60008060408385031215614208578182fd5b50508035926020909101359150565b60008060006060848603121561422b578081fd5b833592506020840135915061415460408501613cb9565b600080600060608486031215614256578081fd5b833592506020840135915060408401356001600160401b03811115614279578182fd5b61428586828701613d18565b9150509250925092565b600080600080608085870312156142a4578182fd5b8435935060208501359250604085013591506141d360608601613cb9565b8060005b6009811015613a5a5781518452602093840193909101906001016142c6565b6020808252825182820181905260009190848201906040850190845b8181101561431d57835183529284019291840191600101614301565b50909695505050505050565b602080825260129082015271105412c8191bd95cc81b9bdd08195e1a5cdd60721b604082015260600190565b60208082526033908201527f496e76616c69642070726f6f663a20556e61626c6520746f20766572696679206040820152727468652070726f6f6620636f72726563746c7960681b606082015260800190565b60208082526024908201527f54686973206e756c6c69666965722068617320616c7265616479206265656e206040820152631d5cd95960e21b606082015260800190565b6020808252600d908201526c34b73b30b634b210383937b7b360991b604082015260600190565b815181526020808301519082015260408101610a5e565b84815260208101849052610180810161444660408301856142c2565b8261016083015295945050505050565b858152602081018590526101a0810161447260408301866142c2565b6101608201939093526001600160a01b0391909116610180909101529392505050565b83815260208082018490528251604083015282015160608201526080810161336c565b604051601f8201601f191681016001600160401b03811182821017156144e0576144e06146c3565b604052919050565b600082198211156144fb576144fb6146ad565b500190565b600063ffffffff80831681851680830382111561451f5761451f6146ad565b01949350505050565b60008261454357634e487b7160e01b81526012600452602481fd5b500490565b80825b600180861161455a5750614585565b81870482111561456c5761456c6146ad565b8086161561457957918102915b9490941c93800261454b565b94509492505050565b6000611fcc60001984846000826145a757506001611fcc565b816145b457506000611fcc565b81600181146145ca57600281146145d457614601565b6001915050611fcc565b60ff8411156145e5576145e56146ad565b6001841b9150848211156145fb576145fb6146ad565b50611fcc565b5060208310610133831016604e8410600b8410161715614634575081810a8381111561462f5761462f6146ad565b611fcc565b6146418484846001614548565b808604821115614653576146536146ad565b02949350505050565b6000816000190483118215151615614676576146766146ad565b500290565b60008282101561468d5761468d6146ad565b500390565b60006000198214156146a6576146a66146ad565b5060010190565b634e487b7160e01b600052601160045260246000fd5b634e487b7160e01b600052604160045260246000fdfea2646970667358221220d3cb7b6a09fc5ff8069b9fa8dd37e813632a6def62d3b0b6e2d5c0c8bf93c46264736f6c634300080200333617319a054d772f909f7c479a2cebe5066e836a939412e32403c99029b92eff",
  "immutableReferences": {},
  "source": "// SPDX-License-Identifier: LGPL-3.0+\npragma solidity ^0.8.2;\n\nimport \"./Groth16AltBN128.sol\";\nimport \"./MiMC7.sol\";\nimport \"./ZklayBase.sol\";\n\ncontract DataTradeContract is ZklayBase {\n\n    // struct ENA {\n    //     uint256 r;\n    //     uint256 ct;\n    // }\n\n    struct userInfo {\n        uint256 addr;\n        uint256 pk_enc;\n        uint256 pk_own;\n    }\n\n    struct Order {\n        address orderer;\n        uint256 cm_pear;\n        uint256 cm_del;\n    }\n\n    // h_ct list\n    mapping(uint256 => bool) internal _hCT_list;\n\n    //addr\n    mapping(uint256 => bool) internal _addr_list;\n\n    // EOA -> user keys\n    mapping(address => userInfo) _userInfoMap;\n\n    // pk_own -> address\n    mapping(uint256 => address) _eoaMap;\n\n    // order number -> order\n    mapping(bytes32 => Order) _order;\n\n    // to check trade\n    mapping(uint256 => bool) waitTradeList;\n\n    // registData SNARK Proof verify input num\n    uint256 internal constant REGISTDATA_NUM_INPUTS = 4;\n\n    // GenTrade SNARK Proof verify input num\n    uint256 internal constant ORDER_NUM_INPUTS = 14;\n\n    // AcceptTrade SNARK Proof verify input num\n    uint256 internal constant ACCEPT_NUM_INPUTS = 8;\n\n    // registDAta SNARK vk\n    uint256[] private registData_vk;\n\n    // GenTrade SNARK vk\n    uint256[] private orderData_vk;\n\n    // Accept Trade vk\n    uint256[] private acceptOrder_vk;\n\n    event logOrder(\n        address sender,\n        uint256 c0,\n        uint256 c1,\n        uint256[] c2\n    );\n\n    constructor(\n        uint256[] memory _registData_vk,\n        uint256[] memory _orderData_vk,\n        uint256[] memory _acceptOrder_vk,\n        uint256 depth,\n        uint256[] memory vk,\n        uint256[] memory vkNft,\n        uint256 price,\n        address toReceiveFee\n    ) ZklayBase(depth, vk, vkNft, price, toReceiveFee) {\n        registData_vk = _registData_vk;\n        orderData_vk  = _orderData_vk;\n        acceptOrder_vk = _acceptOrder_vk;\n        // registUser(pk_own_del, pk_enc_del);\n    }\n\n    function registUserByDelegator(\n        uint256 pk_own, \n        uint256 pk_enc,\n        address eoa\n    ) \n        public\n        payable\n    {   \n        // bytes32 _addr = MiMC7._hash(bytes32(pk_own), bytes32(pk_enc));\n        _registUser(_addressMap[eoa].Addr, pk_own, pk_enc, eoa);\n    }\n\n    function registUser(\n        uint256 pk_own, \n        uint256 pk_enc\n    )\n        public\n        payable\n    {   \n        // bytes32 _addr = MiMC7._hash(bytes32(pk_own), bytes32(pk_enc));\n        _registUser(_addressMap[msg.sender].Addr, pk_own, pk_enc, msg.sender);\n    }\n\n    function _registUser(\n        uint256 addr,\n        uint256 pk_own, \n        uint256 pk_enc,\n        address eoa\n    )\n        public\n        payable\n    {   \n        require(_addrList[addr], \"Azeroth User deos not exist\");\n        require(!_addr_list[_userInfoMap[eoa].addr], \"msg.sender already exist\");\n        require(!_addr_list[addr], \"User already exist\");\n\n        _addr_list[addr] = true;\n\n        _userInfoMap[eoa].addr = addr;\n        _userInfoMap[eoa].pk_enc = pk_enc;\n        _userInfoMap[eoa].pk_own = pk_own;\n\n        _eoaMap[pk_own] = eoa;\n    }\n\n    function isRegisteredUser(\n        uint256 addr\n    ) \n        public \n        view \n        returns (bool) \n    {\n        return _addr_list[addr];\n    }\n\n    /*\n        --- inputs ---\n        0 : 1 \n        1 : addr_peer\n        2 : h_k\n        3 : h_ct\n        --------------\n    */\n    function registData(\n        uint256[] memory proof,\n        uint256[] memory inputs\n    ) \n        public  \n        returns(bool)\n    {   \n        // check input length\n        require( inputs.length == REGISTDATA_NUM_INPUTS, \"invalid Input length\");\n        \n        // check hct\n        require( !_hCT_list[inputs[3]], \"already registered h_ct\");\n\n        uint256[] memory input_values = new uint256[](REGISTDATA_NUM_INPUTS);\n        for (uint256 i = 0 ; i < REGISTDATA_NUM_INPUTS; i++) {\n            input_values[i] = inputs[i];\n        }\n        require( Groth16AltBN128._verify(registData_vk, proof, input_values), \"invalid proof\");\n\n        _hCT_list[input_values[3]] = true;\n        return _hCT_list[input_values[3]];\n    }\n\n    function isRegistered(uint256 _hct) \n        public \n        view \n        returns(bool) \n    {\n        return _hCT_list[_hct];\n    }\n\n\n    /**\n        0 : 1 \n        1 : c0 \n        2 : c1\n        3 : cm_own \n        4 : cm_del \n        5 : ENA_r \n        6 : ENA_c \n        7 : ENA'_r \n        8 : ENA'_c \n        9 : CT[0]\n        10: CT[1]\n        11: CT[2]\n        12: CT[3]\n        13: CT[4]\n     */\n    function orderData(\n        uint256[] memory proof,\n        uint256[] memory inputs,\n        address tokenAddress\n    )\n        public\n        payable\n        returns(bool)\n    {\n        require( inputs.length == ORDER_NUM_INPUTS, \"invalid Input length\");\n\n        require( !waitTradeList[inputs[3]], \"already exist cm_own\");\n        require( !waitTradeList[inputs[4]], \"already exist cm_del\");\n        \n        // check ENA is valid   ENA   \n        require(_ENA[tokenAddress][_addressMap[msg.sender].Addr].r == inputs[5], \"invalid ENA(r)\");\n        require(_ENA[tokenAddress][_addressMap[msg.sender].Addr].ct == inputs[6], \"invalid ENA(ct)\");\n\n        uint256[] memory input_values = new uint256[](ORDER_NUM_INPUTS);\n        for (uint256 i = 0 ; i < ORDER_NUM_INPUTS; i++) {\n            input_values[i] = inputs[i];\n        }\n        require( Groth16AltBN128._verify(orderData_vk, proof, input_values), \"invalid proof\");\n        \n        // order number\n        bytes32 orderNumber = MiMC7._hash(bytes32(inputs[3]), bytes32(inputs[4]));\n        _order[orderNumber].orderer = msg.sender;\n\n        // insert cm to waitTradeList\n        waitTradeList[inputs[3]] = true;\n        waitTradeList[inputs[4]] = true;\n        _order[orderNumber].cm_pear = inputs[3];\n        _order[orderNumber].cm_del = inputs[4];\n        \n        _ENA[tokenAddress][_addressMap[msg.sender].Addr] = ENA(inputs[7], inputs[8]);\n\n        // // emit log\n        // uint256[] memory c2 = new uint256[](6);\n        // for (uint256 i=0; i<6; i++){\n        //     c2[i] = input_values[i+11];\n        // } \n        // emit logOrder(\n        //     msg.sender,\n        //     input_values[1],\n        //     input_values[2],\n        //     c2\n        // );\n\n        return true;\n    }\n\n    function cancelOrder(\n        bytes32 orderNumber\n    )\n        public\n        returns (bool)\n    {\n        require(_order[orderNumber].orderer == msg.sender,\"Not match the orderer\");\n        require(waitTradeList[_order[orderNumber].cm_pear] == true, \"cm pear no exit\");\n        require(waitTradeList[_order[orderNumber].cm_del] == true, \"cm del no exit\");\n\n        waitTradeList[_order[orderNumber].cm_pear] = false;\n        waitTradeList[_order[orderNumber].cm_del] = false;\n\n        return true;\n    }\n\n    /**\n        0 : 1\n        1 : cm_del  \n        2 : cm_own\n        3 : cm_del_azeroth\n        4 : cm_peer_azeroth\n        5 : ecryptedDataEncKey[0] g^r\n        6 : ecryptedDataEncKey[1] k* pk^r\n        7 : ecryptedDataEncKey[2] enc_k(msg)\n     */\n    function acceptOrder(\n        uint256[] memory proof,\n        uint256[] memory inputs\n    )\n        public\n        returns(bool)\n    {\n        require(inputs.length == ACCEPT_NUM_INPUTS, \"invalid Inputs length\");\n\n        // check cm\n        require(waitTradeList[inputs[1]], \"cm0 no exist\");\n        require(waitTradeList[inputs[2]], \"cm1 no exist\");\n\n        uint256[] memory input_values = new uint256[](ACCEPT_NUM_INPUTS);\n        for (uint256 i = 0 ; i < ACCEPT_NUM_INPUTS; i++) {\n            input_values[i] = inputs[i];\n        }\n        require( Groth16AltBN128._verify(acceptOrder_vk, proof, input_values), \"invalid proof\");\n\n        waitTradeList[inputs[1]] = false;\n        waitTradeList[inputs[2]] = false;\n\n        _insert(bytes32(inputs[3]));\n        _insert(bytes32(inputs[4]));\n        uint256 new_merkle_root = uint256(_recomputeRoot(1));\n        _addRoot(new_merkle_root);\n        \n        return true;\n    }\n\n    function checkCmValidation(\n        bytes32 orderNumber\n    )\n        public\n        view\n        returns (bool,bool)\n    {\n        return (waitTradeList[_order[orderNumber].cm_pear], waitTradeList[_order[orderNumber].cm_del]);\n    }\n\n    function _hash(bytes32 left, bytes32 right)\n        internal\n        pure\n        override\n        returns (bytes32)\n    {\n        return MiMC7._hash(left, right);\n    }\n\n    function _verifyZKProof(\n        uint256[] memory proof,\n        uint256[] memory inputs,\n        bool isNft\n    ) internal override returns (bool) {\n        if (isNft) {\n            return Groth16AltBN128._verify(_vkNft, proof, inputs);\n        }\n        return Groth16AltBN128._verify(_vk, proof, inputs);\n    }\n}",
  "sourcePath": "/Users/kim/azeroth-trade-dev/tradeContract/contracts/DataTradeContract.sol",
  "compiler": {
    "name": "solc",
    "version": "0.8.2+commit.661d1103.Emscripten.clang"
  },
  "schemaVersion": "3.4.11",
  "updatedAt": "2023-07-09T08:38:45.143Z",
  "devdoc": {
    "kind": "dev",
    "methods": {
      "onERC1155BatchReceived(address,address,uint256[],uint256[],bytes)": {
        "details": "Handles the receipt of a multiple ERC1155 token types. This function is called at the end of a `safeBatchTransferFrom` after the balances have been updated. NOTE: To accept the transfer(s), this must return `bytes4(keccak256(\"onERC1155BatchReceived(address,address,uint256[],uint256[],bytes)\"))` (i.e. 0xbc197c81, or its own function selector).",
        "params": {
          "data": "Additional data with no specified format",
          "from": "The address which previously owned the token",
          "ids": "An array containing ids of each token being transferred (order and length must match values array)",
          "operator": "The address which initiated the batch transfer (i.e. msg.sender)",
          "values": "An array containing amounts of each token being transferred (order and length must match ids array)"
        },
        "returns": {
          "_0": "`bytes4(keccak256(\"onERC1155BatchReceived(address,address,uint256[],uint256[],bytes)\"))` if transfer is allowed"
        }
      },
      "onERC1155Received(address,address,uint256,uint256,bytes)": {
        "details": "Handles the receipt of a single ERC1155 token type. This function is called at the end of a `safeTransferFrom` after the balance has been updated. NOTE: To accept the transfer, this must return `bytes4(keccak256(\"onERC1155Received(address,address,uint256,uint256,bytes)\"))` (i.e. 0xf23a6e61, or its own function selector).",
        "params": {
          "data": "Additional data with no specified format",
          "from": "The address which previously owned the token",
          "id": "The ID of the token being transferred",
          "operator": "The address which initiated the transfer (i.e. msg.sender)",
          "value": "The amount of tokens being transferred"
        },
        "returns": {
          "_0": "`bytes4(keccak256(\"onERC1155Received(address,address,uint256,uint256,bytes)\"))` if transfer is allowed"
        }
      },
      "onERC721Received(address,address,uint256,bytes)": {
        "details": "Whenever an {IERC721} `tokenId` token is transferred to this contract via {IERC721-safeTransferFrom} by `operator` from `from`, this function is called. It must return its Solidity selector to confirm the token transfer. If any other value is returned or the interface is not implemented by the recipient, the transfer will be reverted. The selector can be obtained in Solidity with `IERC721Receiver.onERC721Received.selector`."
      },
      "owner()": {
        "details": "Returns the address of the current owner."
      },
      "renounceOwnership()": {
        "details": "Leaves the contract without owner. It will not be possible to call `onlyOwner` functions anymore. Can only be called by the current owner. NOTE: Renouncing ownership will leave the contract without an owner, thereby removing any functionality that is only available to the owner."
      },
      "transferOwnership(address)": {
        "details": "Transfers ownership of the contract to a new account (`newOwner`). Can only be called by the current owner."
      }
    },
    "version": 1
  },
  "userdoc": {
    "kind": "user",
    "methods": {
      "acceptOrder(uint256[],uint256[])": {
        "notice": "0 : 1 1 : cm_del   2 : cm_own 3 : cm_del_azeroth 4 : cm_peer_azeroth 5 : ecryptedDataEncKey[0] g^r 6 : ecryptedDataEncKey[1] k* pk^r 7 : ecryptedDataEncKey[2] enc_k(msg)"
      },
      "orderData(uint256[],uint256[],address)": {
        "notice": "0 : 1  1 : c0  2 : c1 3 : cm_own  4 : cm_del  5 : ENA_r  6 : ENA_c  7 : ENA'_r  8 : ENA'_c  9 : CT[0] 10: CT[1] 11: CT[2] 12: CT[3] 13: CT[4]"
      }
    },
    "version": 1
  }
}