{
  "contractName": "ERC223ReceivingContract",
  "abi": [
    {
      "inputs": [
        {
          "internalType": "address",
          "name": "from",
          "type": "address"
        },
        {
          "internalType": "uint256",
          "name": "value",
          "type": "uint256"
        },
        {
          "internalType": "bytes",
          "name": "data",
          "type": "bytes"
        }
      ],
      "name": "tokenFallback",
      "outputs": [],
      "stateMutability": "pure",
      "type": "function"
    }
  ],
  "bytecode": "0x608060405234801561001057600080fd5b506102ec806100206000396000f3fe608060405234801561001057600080fd5b506004361061002b5760003560e01c8063c0ee0b8a14610030575b600080fd5b61004361003e366004610199565b610045565b005b604080516080810182526000606082018190526001600160a01b03861682526020820185905291810183905282519091906018908490600390811061009a57634e487b7160e01b600052603260045260246000fd5b016020015184516001600160f81b031990911690911c60e01c90601090859060029081106100d857634e487b7160e01b600052603260045260246000fd5b016020015185516001600160f81b031990911690911c60e01c906008908690600190811061011657634e487b7160e01b600052603260045260246000fd5b016020015186516001600160f81b031990911690911c60e01c90869060009061014f57634e487b7160e01b600052603260045260246000fd5b602091010151610168919060e01c63ff0000001661026c565b610172919061026c565b61017c919061026c565b60e01b6001600160e01b0319166060929092019190915250505050565b6000806000606084860312156101ad578283fd5b83356001600160a01b03811681146101c3578384fd5b925060208401359150604084013567ffffffffffffffff808211156101e6578283fd5b818601915086601f8301126101f9578283fd5b81358181111561020b5761020b6102a0565b604051601f8201601f19908116603f01168101908382118183101715610233576102336102a0565b8160405282815289602084870101111561024b578586fd5b82602086016020830137856020848301015280955050505050509250925092565b600063ffffffff80831681851680830382111561029757634e487b7160e01b84526011600452602484fd5b01949350505050565b634e487b7160e01b600052604160045260246000fdfea26469706673582212204fb1588c04e9b0bbd45ca5f86fdaa98825f8c0b2df6cc3f67b30c58804adf78f64736f6c63430008020033",
  "immutableReferences": {},
  "source": "// Copyright (c) 2015-2020 Clearmatics Technologies Ltd\n//\n// SPDX-License-Identifier: LGPL-3.0+\n\npragma solidity ^0.8.2;\npragma experimental ABIEncoderV2;\n\n/// Declare the ERC20 interface in order to handle ERC20 tokens transfers to\n/// and from the Mixer. Note that we only declare the functions we are\n/// interested in, namely, transferFrom() (used to do a Deposit), and\n/// transfer() (used to do a withdrawal)\nabstract contract ERC20 \n{\n    function transferFrom(address from, address to, uint256 value) public virtual;\n    function transfer(address to, uint256 value) public virtual;\n}\n\n/// ERC223 token compatible contract\ncontract ERC223ReceivingContract {\n    // See:\n    // solhint-disable-next-line max-line-length\n    //   https://github.com/Dexaran/ERC223-token-standard/blob/Recommended/Receiver_Interface.sol\n    struct Token {\n        address sender;\n        uint256 value;\n        bytes data;\n        bytes4 sig;\n    }\n\n    function tokenFallback(\n        address from,\n        uint256 value,\n        bytes memory data\n    )\n        public\n        pure\n    {\n        Token memory tkn;\n        tkn.sender = from;\n        tkn.value = value;\n        tkn.data = data;\n\n        // See:\n        // solhint-disable-next-line max-line-length\n        //   https://solidity.readthedocs.io/en/v0.5.5/types.html#conversions-between-elementary-types\n        uint32 u =\n            uint32(bytes4(data[0])) +\n            uint32(bytes4(data[1]) >> 8) +\n            uint32(bytes4(data[2]) >> 16) +\n            uint32(bytes4(data[3]) >> 24);\n        tkn.sig = bytes4(u);\n    }\n}\n",
  "sourcePath": "/Users/kim/azeroth-trade-dev/tradeContract/contracts/Tokens.sol",
  "compiler": {
    "name": "solc",
    "version": "0.8.2+commit.661d1103.Emscripten.clang"
  },
  "schemaVersion": "3.4.11",
  "updatedAt": "2023-06-27T05:00:51.704Z",
  "devdoc": {
    "kind": "dev",
    "methods": {},
    "version": 1
  },
  "userdoc": {
    "kind": "user",
    "methods": {},
    "notice": "ERC223 token compatible contract",
    "version": 1
  }
}