{
  "contractName": "Groth16AltBN128Test",
  "abi": [
    {
      "inputs": [
        {
          "internalType": "uint256[]",
          "name": "vk",
          "type": "uint256[]"
        }
      ],
      "stateMutability": "nonpayable",
      "type": "constructor"
    },
    {
      "inputs": [
        {
          "internalType": "uint256[]",
          "name": "proof",
          "type": "uint256[]"
        },
        {
          "internalType": "uint256[5]",
          "name": "inputs",
          "type": "uint256[5]"
        }
      ],
      "name": "_verifyZKProof",
      "outputs": [
        {
          "internalType": "bool",
          "name": "",
          "type": "bool"
        }
      ],
      "stateMutability": "nonpayable",
      "type": "function"
    }
  ],
  "bytecode": "0x608060405234801561001057600080fd5b5060405161093238038061093283398101604081905261002f916100a9565b8051610042906000906020840190610049565b505061017d565b828054828255906000526020600020908101928215610084579160200282015b82811115610084578251825591602001919060010190610069565b50610090929150610094565b5090565b5b808211156100905760008155600101610095565b600060208083850312156100bb578182fd5b82516001600160401b03808211156100d1578384fd5b818501915085601f8301126100e4578384fd5b8151818111156100f6576100f6610167565b838102604051601f19603f8301168101818110858211171561011a5761011a610167565b604052828152858101935084860182860187018a1015610138578788fd5b8795505b8386101561015a57805185526001959095019493860193860161013c565b5098975050505050505050565b634e487b7160e01b600052604160045260246000fd5b6107a68061018c6000396000f3fe608060405234801561001057600080fd5b506004361061002b5760003560e01c8063d8f21e7714610030575b600080fd5b61004361003e366004610607565b610057565b604051901515815260200160405180910390f35b60408051600580825260c082019092526000918291906020820160a08036833701905050905060005b60058110156100eb578381600581106100a957634e487b7160e01b600052603260045260246000fd5b60200201518282815181106100ce57634e487b7160e01b600052603260045260246000fd5b6020908102919091010152806100e381610729565b915050610080565b506100f860008583610100565b949350505050565b600082516008146101585760405162461bcd60e51b815260206004820152601e60248201527f50726f6f662073697a6520696e76616c69642028414c542d424e31323829000060448201526064015b60405180910390fd5b600060016002600a878054905061016f9190610712565b61017991906106f2565b6101839190610712565b9050808351146101e05760405162461bcd60e51b815260206004820152602260248201527f496e707574206c656e67746820646966666572732066726f6d20657870656374604482015261195960f21b606482015260840161014f565b60005b81811015610293577f30644e72e131a029b85045b68181585d2833e84879b9709143e1f593f000000184828151811061022c57634e487b7160e01b600052603260045260246000fd5b6020026020010151106102815760405162461bcd60e51b815260206004820152601c60248201527f496e707574206973206e6f7420696e207363616c6172206669656c6400000000604482015260640161014f565b8061028b81610729565b9150506101e3565b5061029c610591565b600160006107d05a03888452602084209150600a820160208801885160200281018254875260018301925082546020880152600183019250604087015b8183101561032857835481526001840193508354602082015260018401935082516040820152602083019250604081606083600060078af160408960808b600060068bf11696909616956102d9565b5050505050816103a05760405162461bcd60e51b815260206004820152603960248201527f43616c6c20746f2074686520626e323536416464206f7220626e32353653636160448201527f6c61724d756c20707265636f6d70696c6564206661696c656400000000000000606482015260840161014f565b7f198e9393920d483a7260bfb731fb5d25f1aa493335a9e71297e485b7aef312c260408401527f1800deef121f1e76426a00665e5c4479674322d4f75edadd46debd5cd992f6ed60608401527f275dc4a288d1afb3cbb1ac09187524c7db36395df7be3b99e673b13a075a65ec60808401527f1d9befcd05a5323e6da4d435f3b617cdb3af83285c2df711ef39c01571827f9d60a0840152805460c0840152600181015460e08401526002810154610100840152600381015461012084015260048101546101408401526005810154610160840152602087019650865161018084015260208701516101a084015260408701516101c084015260608701516101e0840152608087015161020084015260a087015161022084015260c087015161024084015260e0870151610260840152600681015461028084015260078101546102a084015260088101546102c084015260098101546102e084015260208361030085600060086107d05a03f19150816105825760405162461bcd60e51b815260206004820152603760248201527f43616c6c20746f20626e3235364164642c20626e3235365363616c61724d756c60448201527f206f7220626e32353650616972696e67206661696c6564000000000000000000606482015260840161014f565b50505160011495945050505050565b6040518061030001604052806018906020820280368337509192915050565b600082601f8301126105c0578081fd5b6105ca60a06106c1565b80838560a0860111156105db578384fd5b835b60058110156105fc5781358452602093840193909101906001016105dd565b509095945050505050565b60008060c08385031215610619578182fd5b823567ffffffffffffffff80821115610630578384fd5b818501915085601f830112610643578384fd5b81356020828211156106575761065761075a565b80820292506106678184016106c1565b8281528181019085830185870184018b1015610681578889fd5b8896505b848710156106a3578035835260019690960195918301918301610685565b5096506106b49050888883016105b0565b9450505050509250929050565b604051601f8201601f1916810167ffffffffffffffff811182821017156106ea576106ea61075a565b604052919050565b60008261070d57634e487b7160e01b81526012600452602481fd5b500490565b60008282101561072457610724610744565b500390565b600060001982141561073d5761073d610744565b5060010190565b634e487b7160e01b600052601160045260246000fd5b634e487b7160e01b600052604160045260246000fdfea2646970667358221220509e9d093940b6665dbef6cc33f2a6b0e90f4abf44ab7d5db8994a9c12d2ff6d64736f6c63430008020033",
  "immutableReferences": {},
  "source": "// SPDX-License-Identifier: LGPL-3.0+\npragma solidity ^0.8.2;\n// pragma experimental ABIEncoderV2;\n\nimport \"./Groth16AltBN128.sol\";\n\ncontract Groth16AltBN128Test{\n    \n    uint256 internal constant _NUM_INPUTS = 5;\n\n    //ZKP verify key\n    uint256[] internal _vk;\n\n    constructor(uint256[] memory vk){\n        _vk = vk;\n    }\n\n    function _verifyZKProof(\n        uint256[] memory proof,\n        uint256[_NUM_INPUTS] memory inputs\n    )\n        public\n        returns(bool)\n    {   \n        uint256[] memory input_values = new uint256[](_NUM_INPUTS);\n        for (uint256 i = 0 ; i < _NUM_INPUTS; i++) {\n            input_values[i] = inputs[i];\n        }\n        return Groth16AltBN128._verify(_vk, proof, input_values);\n    }\n}",
  "sourcePath": "/Users/kim/azeroth-trade-dev/tradeContract/contracts/Groth16AltBN128Test.sol",
  "compiler": {
    "name": "solc",
    "version": "0.8.2+commit.661d1103.Emscripten.clang"
  },
  "schemaVersion": "3.4.11",
  "updatedAt": "2023-06-27T05:00:51.683Z",
  "devdoc": {
    "kind": "dev",
    "methods": {},
    "version": 1
  },
  "userdoc": {
    "kind": "user",
    "methods": {},
    "version": 1
  }
}