{
  "contractName": "Groth16BLS12_381Mixer",
  "abi": [
    {
      "inputs": [
        {
          "internalType": "uint256",
          "name": "mk_depth",
          "type": "uint256"
        },
        {
          "internalType": "address",
          "name": "token",
          "type": "address"
        },
        {
          "internalType": "uint256[]",
          "name": "vk",
          "type": "uint256[]"
        },
        {
          "internalType": "uint256",
          "name": "hash_type",
          "type": "uint256"
        }
      ],
      "stateMutability": "nonpayable",
      "type": "constructor"
    },
    {
      "anonymous": false,
      "inputs": [
        {
          "indexed": false,
          "internalType": "bytes32",
          "name": "message",
          "type": "bytes32"
        }
      ],
      "name": "LogDebug",
      "type": "event"
    },
    {
      "anonymous": false,
      "inputs": [
        {
          "indexed": false,
          "internalType": "uint256",
          "name": "root",
          "type": "uint256"
        }
      ],
      "name": "LogDebugTree",
      "type": "event"
    },
    {
      "anonymous": false,
      "inputs": [
        {
          "indexed": false,
          "internalType": "uint256",
          "name": "root",
          "type": "uint256"
        },
        {
          "indexed": false,
          "internalType": "uint256",
          "name": "nullifier",
          "type": "uint256"
        },
        {
          "indexed": false,
          "internalType": "uint256",
          "name": "com",
          "type": "uint256"
        },
        {
          "indexed": false,
          "internalType": "uint256",
          "name": "addr",
          "type": "uint256"
        },
        {
          "indexed": false,
          "internalType": "uint256",
          "name": "c_0",
          "type": "uint256"
        },
        {
          "indexed": false,
          "internalType": "uint256",
          "name": "c_1",
          "type": "uint256"
        },
        {
          "indexed": false,
          "internalType": "uint256",
          "name": "c_2",
          "type": "uint256"
        },
        {
          "indexed": false,
          "internalType": "uint256",
          "name": "c_3_0",
          "type": "uint256"
        },
        {
          "indexed": false,
          "internalType": "uint256",
          "name": "c_3_1",
          "type": "uint256"
        },
        {
          "indexed": false,
          "internalType": "uint256",
          "name": "c_3_2",
          "type": "uint256"
        }
      ],
      "name": "LogTrans",
      "type": "event"
    },
    {
      "anonymous": false,
      "inputs": [
        {
          "indexed": false,
          "internalType": "bytes32",
          "name": "pk",
          "type": "bytes32"
        }
      ],
      "name": "LogUserAddr",
      "type": "event"
    },
    {
      "inputs": [
        {
          "internalType": "uint256",
          "name": "index",
          "type": "uint256"
        }
      ],
      "name": "_computeMerklePath",
      "outputs": [
        {
          "internalType": "bytes32[]",
          "name": "",
          "type": "bytes32[]"
        }
      ],
      "stateMutability": "view",
      "type": "function"
    },
    {
      "inputs": [
        {
          "internalType": "uint256",
          "name": "",
          "type": "uint256"
        }
      ],
      "name": "_nodes",
      "outputs": [
        {
          "internalType": "bytes32",
          "name": "",
          "type": "bytes32"
        }
      ],
      "stateMutability": "view",
      "type": "function"
    },
    {
      "inputs": [],
      "name": "getAPK",
      "outputs": [
        {
          "internalType": "uint256",
          "name": "",
          "type": "uint256"
        }
      ],
      "stateMutability": "view",
      "type": "function"
    },
    {
      "inputs": [
        {
          "internalType": "bytes32",
          "name": "addr",
          "type": "bytes32"
        }
      ],
      "name": "getCiphertext",
      "outputs": [
        {
          "internalType": "uint256",
          "name": "",
          "type": "uint256"
        },
        {
          "internalType": "uint256",
          "name": "",
          "type": "uint256"
        }
      ],
      "stateMutability": "view",
      "type": "function"
    },
    {
      "inputs": [
        {
          "internalType": "uint256",
          "name": "index",
          "type": "uint256"
        }
      ],
      "name": "getMerklePath",
      "outputs": [
        {
          "internalType": "uint256[]",
          "name": "",
          "type": "uint256[]"
        }
      ],
      "stateMutability": "view",
      "type": "function"
    },
    {
      "inputs": [],
      "name": "getRootTop",
      "outputs": [
        {
          "internalType": "uint256",
          "name": "",
          "type": "uint256"
        }
      ],
      "stateMutability": "view",
      "type": "function"
    },
    {
      "inputs": [
        {
          "internalType": "uint256",
          "name": "apk",
          "type": "uint256"
        }
      ],
      "name": "registerAuditor",
      "outputs": [],
      "stateMutability": "nonpayable",
      "type": "function"
    },
    {
      "inputs": [
        {
          "internalType": "bytes32",
          "name": "addr",
          "type": "bytes32"
        }
      ],
      "name": "registerUser",
      "outputs": [],
      "stateMutability": "nonpayable",
      "type": "function"
    },
    {
      "inputs": [
        {
          "internalType": "address",
          "name": "from",
          "type": "address"
        },
        {
          "internalType": "uint256",
          "name": "value",
          "type": "uint256"
        },
        {
          "internalType": "bytes",
          "name": "data",
          "type": "bytes"
        }
      ],
      "name": "tokenFallback",
      "outputs": [],
      "stateMutability": "pure",
      "type": "function"
    },
    {
      "inputs": [
        {
          "internalType": "uint256[]",
          "name": "proof",
          "type": "uint256[]"
        },
        {
          "internalType": "uint256",
          "name": "rt",
          "type": "uint256"
        },
        {
          "internalType": "uint256",
          "name": "nf",
          "type": "uint256"
        },
        {
          "internalType": "uint256[3]",
          "name": "pk",
          "type": "uint256[3]"
        },
        {
          "internalType": "uint256",
          "name": "cm",
          "type": "uint256"
        },
        {
          "internalType": "uint256[2]",
          "name": "ct",
          "type": "uint256[2]"
        },
        {
          "internalType": "uint256[2]",
          "name": "values",
          "type": "uint256[2]"
        },
        {
          "internalType": "uint256[6]",
          "name": "CT",
          "type": "uint256[6]"
        },
        {
          "internalType": "address",
          "name": "toEoA",
          "type": "address"
        }
      ],
      "name": "zkTransfer",
      "outputs": [],
      "stateMutability": "payable",
      "type": "function"
    }
  ],
  "bytecode": "0x60806040523480156200001157600080fd5b5060405162006b2738038062006b278339810160408190526200003491620025b4565b6001819055600084905583838383838383838381620000558260026200273a565b600281815560019162000068916200282f565b62000074919062002851565b6003556000546001600160401b03811115620000a057634e487b7160e01b600052604160045260246000fd5b604051908082528060200260200182016040528015620000ca578160200160208202803683370190505b508051620000e19160059160209091019062002516565b50620000ec62000196565b5050600080516020620069e7833981519152546000818152600760209081526040909120805460ff19166001179055600a82905583516200013491600d919086019062002516565b50600e80546001600160a01b0319166001600160a01b0386161790556040518181527f53aa6933ace3bba747d5489b4c93c777b2c6fcf540cb6fcd183a5279ef8359bc9060200160405180910390a150505050505050505050505050620028b5565b6000801b6005600081548110620001bd57634e487b7160e01b600052603260045260246000fd5b60009182526020909120015560015b6000548110156200029e576200025b6005620001ea60018462002851565b815481106200020957634e487b7160e01b600052603260045260246000fd5b9060005260206000200154600560018462000225919062002851565b815481106200024457634e487b7160e01b600052603260045260246000fd5b90600052602060002001546200030f60201b60201c565b600582815481106200027d57634e487b7160e01b600052603260045260246000fd5b6000918252602090912001558062000295816200286b565b915050620001cc565b50620002f360056001600054620002b6919062002851565b81548110620002d557634e487b7160e01b600052603260045260246000fd5b90600052602060002001546005600160005462000225919062002851565b600080526004602052600080516020620069e783398151915255565b60006001805414156200033b576200033383836200038760201b62000d6c1760201c565b905062000381565b600260015414156200035e576200033383836200042460201b62000e061760201c565b600360015414156200038157620003338383620004c560201b62000ea01760201c565b92915050565b600060008051602062006a8783398151915280838508818182098282848386858609090991507faed26d6a3f5e0ea662411ddfcde3527479de9cee7a56c656ff5f61df13a3940160005260005b605a8112156200040c5760206000208060005284878683870808935050838384099150838385848786870909099250600101620003d4565b50508184820890508184838784080895945050505050565b6000806002848460405160200162000446929190918252602082015260400190565b60408051601f19818403018152908290526200046291620026b1565b602060405180830381855afa15801562000480573d6000803e3d6000fd5b5050506040513d601f19601f82011682018060405250810190620004a591906200259b565b905060008051602062006a87833981519152806000830895945050505050565b6000620004d162002566565b62000917565b80516020820151604083015160008051602062006a87833981519152858408925060008051602062006a87833981519152868308915060008051602062006a87833981519152878208905060008051602062006a8783398151915283840960008051602062006a87833981519152818209905060008051602062006a87833981519152848209935060008051602062006a878339815191528060008051602062006aa7833981519152840960008051602062006a878339815191528060008051602062006a27833981519152870960008051602062006a8783398151915260008051602062006ac783398151915289090808905060008051602062006a878339815191528060008051602062006a67833981519152840960008051602062006a878339815191528060008051602062006b07833981519152870960008051602062006a87833981519152600080516020620069c78339815191528909080860008051602062006a878339815191528060008051602062006ae7833981519152850960008051602062006a878339815191528060008051602062006a07833981519152880960008051602062006a8783398151915260008051602062006a478339815191528a0908089186526020860152604090940193909352505050505050565b80516020820151604083015160008051602062006a87833981519152858408925060008051602062006a87833981519152868308915060008051602062006a87833981519152878208905060008051602062006a8783398151915283840960008051602062006a87833981519152818209905060008051602062006a87833981519152848209935060008051602062006a87833981519152838409905060008051602062006a87833981519152818209905060008051602062006a87833981519152838209925060008051602062006a87833981519152828309905060008051602062006a87833981519152818209905060008051602062006a87833981519152828209915060008051602062006a878339815191528060008051602062006aa7833981519152840960008051602062006a878339815191528060008051602062006a27833981519152870960008051602062006a8783398151915260008051602062006ac783398151915289090808905060008051602062006a878339815191528060008051602062006a67833981519152840960008051602062006a878339815191528060008051602062006b07833981519152870960008051602062006a87833981519152600080516020620069c78339815191528909080860008051602062006a878339815191528060008051602062006ae7833981519152850960008051602062006a878339815191528060008051602062006a07833981519152880960008051602062006a8783398151915260008051602062006a478339815191528a0908089186526020860152604090940193909352505050505050565b60008152836020820152826040820152620009947f08dff3487e8ac99e1f29a058d0fa80b930c728730b7ab36ce879f3890ecf73f57ef1445235f2148c5986587169fc1bcd887b08d4d00868df5696fff40956e8647f0ee9a592ba9a9518d05986d656f40c2114c4993c11bb29938d21d47304cd8e6e84620006b8565b62000a027f0319d062072bef7ecca5eac06f97d4d55952c175ab6b03eae64b44c7dbf11cfa7f2b2ae1acf68b7b8d2416bebf3d4f6234b763fe04b8043ee48b8327bebca16cf27f2f27be690fdaee46c3ce28f7532b13c856c35342c84bda6e20966310fadc01d084620006b8565b62000a707f234ec45ca27727c2e74abd2b2a1494cd6efbd43e340587d6b8fb9e31e65cc6327f2727673b2ccbc903f181bf38e1c1d40d2033865200c352bc150928adddf9cb787f28813dcaebaeaa828a376df87af4a63bc8b7bf27ad49c6298ef7b387bf28526d84620006b8565b62000ade7f1bcd95ffc211fbca600f705fad3fb567ea4eb378f62e1fec97805518a47e4d9c7f0dc8fad6d9e4b35f5ed9a3d186b79ce38e0e8a8d1b58b132d701d4eecf68d1f67f15b52534031ae18f7f862cb2cf7cf760ab10a8150a337b1ccd99ff6e8797d42884620006b8565b62000b4c7f1d9655f652309014d29e00ef35a2089bfff8dc1c816f0dc9ca34bdb5460c87057f1f6d48149b8e7f7d9b257d8ed5fbbaf42932498075fed0ace88a9eb81f5627f67f10520b0ab721cadfe9eff81b016fc34dc76da36c2578937817cb978d069de55984620004d7565b62000bba7f099952b414884454b21200d7ffafdd5f0c9a9dcc06f2708e9fc1d8209b5c75b97f0672d995f8fff640151b3d290cedaf148690a10a8c8424a7f6ec282b6e4be8287f04df5a56ff95bcafb051f7b1cd43a99ba731ff67e47032058fe3d4185697cc7d84620004d7565b62000c287f119b1590f13307af5a1ee651020c07c749c15d60683a8050b963d0a8e4b2bdd17f0b8badee690adb8eb0bd74712b7999af82de55707251ad7716077cb93c464ddc7f052cba2255dfd00c7c483143ba8d469448e43586a9b4cd9183fd0e843a6b9fa684620004d7565b62000c957e5032551e6378c450cfe129a404b3764218cadedac14e2b92d2cd73111bf0f97f2cc6182c5e14546e3cf1951f173912355374efb83d80898abe69cb317c9ea5657f03150b7cd6d5d17b2529d36be0f67b832c4acfc884ef4ee5ce15be0bfb4a8d0984620004d7565b62000d037f0a7b1db13042d396ba05d818a319f25252bcf35ef3aeed91ee1f09b2590fc65b7f05c8f4f4ebd4a6e3c980d31674bfbe6323037f21b34ae5a4e80c2d4c24d602807f233237e3289baa34bb147e972ebcb9516469c399fcc069fb88f9da2cc28276b584620004d7565b62000d717f12c0339ae08374823fabb076707ef479269f3e4d6cb104349015ee046dc93fc07f1ac9b0417abcc9a1935107e9ffc91dc3ec18f2c4dbe7f22976a760bb5c50c4607f2a73b71f9b210cf5b14296572c9d32dbf156e2b086ff47dc5df542365a404ec084620004d7565b62000ddf7f05a6811f8556f014e92674661e217e9bd5206c5c93a07dc145fdb176a716346f7f037c2849e191ca3edb1c5e49f6e8b8917c843e379366f2ea32ab3aa88d7f84487f0b7475b102a165ad7f5b18db4e1e704f52900aa3253baac68246682e56e9a28e84620004d7565b62000e4d7f2e0ba8d94d9ecf4a94ec2050c7371ff1bb50f27799a84b6d4a2a6f2a0982c8877f20439a0c84b322eb45a3857afc18f5826e8c7382c8a1585c507be199981fd22f7f29a795e7d98028946e947b75d54e9f044076e87a7b2883b47b675ef5f38bd66e84620004d7565b62000ebb7f028a305847c683f646fca925c163ff5ae74f348d62c2b670f1426cef9403da537f0c64cbecb1c734b857968dbbdcf813cdf8611659323dbcbfc84323623be9caf17f143fd115ce08fb27ca38eb7cce822b4517822cd2109048d2e6d0ddcca17d71c884620004d7565b62000f287f2ed5f0c91cbd9749187e2fade687e05ee2491b349c039a0bba8a9f4023a0bb387e81c95bc43384e663d79270c956ce3b8925b4f6d033b078b96384f50579400e7f2e4ef510ff0b6fda5fa940ab4c4380f26a6bcb64d89427b824d6755b5db9e30c84620004d7565b62000f967f10b4e7f3ab5df003049514459b6e18eec46bb2213e8e131e170887b47ddcb96c7f1c3f20fd55409a53221b7c4d49a356b9f0a1119fb2067b41a7529094424ec6ad7f30509991f88da3504bbf374ed5aae2f03448a22c76234c8c990f01f33a73520684620004d7565b620010047f07533ec850ba7f98eab9303cace01b4b9e4f2e8b82708cfa9c2fe45a0ae146a07f1c74ee64f15e1db6feddbead56d6d55dba431ebc396c9af95cad0f1315bd5c917f2a1982979c3ff7f43ddd543d891c2abddd80f804c077d775039aa3502e43adef84620004d7565b620010727f2d477e3862d07708a79e8aae946170bc9775a4201318474ae665b0b1b7e2730e7f2f17c0559b8fe79608ad5ca193d62f10bce8384c815f0906743d6930836d4a9e7f21576b438e500449a151e4eeaf17b154285c68f42d42c1808a11abf3764c075084620004d7565b620010e07f2c8fbcb2dd8573dc1dbaf8f4622854776db2eece6d85c4cf4254e7c35e03b07a7f2b4cb233ede9ba48264ecd2c8ae50d1ad7a8596a87f29f8a7777a700923933117f162f5243967064c390e095577984f291afba2266c38f5abcd89be0f5b2747eab84620004d7565b6200114e7f0c4cb9dc3c4fd8174f1149b3c63c3c2f9ecb827cd7dc25534ff8fb75bc79c5027f204b0c397f4ebe71ebc2d8b3df5b913df9e6ac02b68d31324cd49af5c45655297f1d6f347725e4816af2ff453f0cd56b199e1b61e9f601e9ade5e88db870949da984620004d7565b620011bc7f066d04b24331d71cd0ef8054bc60c4ff05202c126a233c1a8242ace360b8a30a7f1a96177bcf4d8d89f759df4ec2f3cde2eaaa28c177cc0fa13a9816d49a38d2ef7f174ad61a1448c899a25416474f4930301e5c49475279e0639a616ddc45bc7b5484620004d7565b6200122a7f1121552fca26061619d24d843dc82769c1b04fcec26f55194c2e3e869acc6a9a7f13ab2d136ccf37d447e9f2e14a7cedc95e727f8446f6d9d7e55afc01219fd6497f2a4c4fc6ec0b0cf52195782871c6dd3b381cc65f72e02ad527037a62aa1bd80484620004d7565b620012977f29f536dcb9dd7682245264659e15d88e395ac3d4dde92d8c46448db979eeba897f0e25483e45a665208b261d8ba74051e6400c776d652595d9845aca35d8a397d37eef653322b13d6c889bc81715c37d77a6cd267d595c4a8909a5546c7c97cff184620004d7565b620013057f151aff5f38b20a0fc0473089aaf0206b83e8e68a764507bfd3d0ab4be74319c57f1c8361c78eb5cf5decfb7a2d17b5c409f2ae2999a46762e8ee416240a8cb9af17f2a56ef9f2c53febadfda33575dbdbd885a124e2780bbea170e456baace0fa5be84620004d7565b620013737f01a5c536273c2d9df578bfbd32c17b7a2ce3664c2a52032c9321ceb1c4e8a8e47f13b37bd80f4d27fb10d84331f6fb6d534b81c61ed15776449e801b7ddc9c29677f04c6187e41ed881dc1b239c88f7f9d43a9f52fc8c8b6cdd1e76e47615b51f10084620004d7565b620013e17f041294d2cc484d228f5784fe7919fd2bb925351240a04b711514c9c80b65af1d7f1d4d8ec291e720db200fe6d686c0d613acaf6af4e95d3bf69f7ed516a597b6467f2ab3561834ca73835ad05f5d7acb950b4a9a2c666b9726da832239065b7c3b0284620004d7565b6200144f7f0955e49e6610c94254a4f84cfbab344598f0e71eaff4a7dd81ed95b50839c82e7f0b339d8acca7d4f83eedd84093aef51050b3684c88f8b0b04524563bc6ea4da47f154ac98e01708c611c4fa715991f004898f57939d126e392042971dd90e81fc684620004d7565b620014bd7f04f6eeca1751f7308ac59eff5beb261e4bb563583ede7bc92a738223d6f76e137f0f18f5a0ecd1423c496f3820c549c27838e5790e2bd0a196ac917c7ff32077fb7f06746a6156eba54426b9e22206f15abca9a6f41e6f535c6f3525401ea065462684620004d7565b6200152b7f2147b424fc48c80a88ee52b91169aacea989f6446471150994257b2fb01c63e97f123769dd49d5b054dcd76b89804b1bcb8e1392b385716a5d83feb65d437f29ef7f2b56973364c4c4f5c1a3ec4da3cdce038811eb116fb3e45bc1768d26fc0b375884620004d7565b620015997f21e4f4ea5f35f85bad7ea52ff742c9e8a642756b6af44203dd8a1f35c1a900357f12373a8251fea004df68abcf0f7786d4bceff28c5dbbe0c3944f685cc0a0b1f27f0fdc1f58548b85701a6c5505ea332a29647e6f34ad4243c2ea54ad897cebe54d84620004d7565b620016077f07ea5e8537cf5dd08886020e23a7f387d468d5525be66f853b672cc96a88969a7f1efbe46dd7a578b4f66f9adbc88b4378abc21566e1a0453ca13a4159cac04ac27f16243916d69d2ca3dfb4722224d4c462b57366492f45e90d8a81934f1bc3b14784620004d7565b620016757f04a12ededa9dfd689672f8c67fee31636dcd8e88d01d49019bd90b33eb33db697f20f057712cc21654fbfe59bd345e8dac3f7818c701b9c7882d9d57b72a32e83f7f05a8c4f9968b8aa3b7b478a30f9a5b63650f19a75e7ce11ca9fe16c0b76c00bc84620004d7565b620016e37f1ed7cc76edf45c7c404241420f729cf394e5942911312a0d6972b8bd53aff2b87f2feed17b84285ed9b8a5c8c5e95a41f66e096619a7703223176c41ee433de4d17f27e88d8c15f37dcee44f1e5425a51decbd136ce5091a6767e49ec9544ccd101a84620004d7565b620017517f25851c3c845d4790f9ddadbdb6057357832e2e7a49775f71ec75a96554d67c777f1aac285387f65e82c895fc6887ddf40577107454c6ec0317284f033f27d0c7857f15742e99b9bfa323157ff8c586f5660eac6783476144cdcadf2874be45466b1a84620004d7565b620017be7e2e6f8d6520cd4713e335b8c0b6d2e647e9a98e12f4cd2558828b5ef6cb4c9b7f2411d57a4813b9980efa7e31a1db5966dcf64f36044277502f15485f28c717277f15a5821565cc2ec2ce78457db197edf353b7ebba2c5523370ddccc3d9f146a6784620004d7565b6200182b7f0a2f53768b8ebf6a86913b0e57c04e011ca408648a4743a87d77adbf0c9c35127eb9831b948525595ee02724471bcd182e9521f6b7bb68f1e93be4febb0d3cbe7f2ff7bc8f4380cde997da00b616b0fcd1af8f0e91e2fe1ed7398834609e0315d284620004d7565b620018987f170a4f55536f7dc970087c7c10d6fad760c952172dd54dd99d1045e4ec34a8087f171d5620b87bfb1328cf8c02ab3f0c9a397196aa6a542c2350eb512a2b2bcda97e248156142fd0373a479f91ff239e960f599ff7e94be69b7f2a290305e1198d84620004d7565b620019067f1dd269799b660fad58f7f4892dfb0b5afeaad869a9c4b44f9c9e1c43bdaf8f097f1e9bc179a4fdd758fdd1bb1945088d47e70d114a03f6a0e8b5ba650369e649737f29aba33f799fe66c2ef3134aea04336ecc37e38c1cd211ba482eca17e2dbfae184620004d7565b620019747f11609e06ad6c8fe2f287f3036037e8851318e8b08a0359a03b304ffca62e82847f0ef042e454771c533a9f57a55c503fcefd3150f52ed94a7cd5ba93b9c7dacefd7f22cdbc8b70117ad1401181d02e15459e7ccd426fe869c7c95d1dd2cb0f24af3884620004d7565b620019e27f3006eb4ffc7a85819a6da492f3a8ac1df51aee5b17b8e89d74bf01cf5f71e9ad7f2de52989431a859593413026354413db177fbf4cd2ac0b56f855a888357ee4667f1166d9e554616dba9e753eea427c17b7fecd58c076dfe42708b08f5b783aa9af84620004d7565b62001a507f1835b786e2e8925e188bea59ae363537b51248c23828f047cff784b97b3fd8007f119e684de476155fe5a6b41a8ebc85db8718ab27889e85e781b214bace4827c37f2af41fbb61ba8a80fdcf6fff9e3f6f422993fe8f0a4639f962344c822514508684620004d7565b62001abe7f0b6f88a3577199526158e61ceea27be811c16df7774dd8519e079564f61fd13b7f083efd7a27d1751094e80fefaf78b000864c82eb571187724a761f88c22cc4e77f28201a34c594dfa34d794996c6433a20d152bac2a7905c926c40e285ab32eeb684620004d7565b62001b2c7f0b520211f904b5e7d09b5d961c6ace7734568c547dd6858b364ce5e47951f1787f2af33e3f866771271ac0c9b3ed2e1142ecd3e74b939cd40d00d937ab84c985917f0ec868e6d15e51d9644f66e1d6471a94589511ca00d29e1014390e6ee4254f5b84620004d7565b62001b9a7f0171eb95dfbf7d1eaea97cd385f780150885c16235a2a6a8da92ceb01e5042337f1f790d4d7f8cf094d980ceb37c2453e957b54a9991ca38bbe0061d1ed6e562d47f0b2d722d0919a1aad8db58f10062a92ea0c56ac4270e822cca228620188a1d4084620004d7565b62001c087f2f1459b65dee441b64ad386a91e8310f282c5a92a89e19921623ef8249711bc07f1162fb28689c27154e5a8228b4e72b377cbcafa589e283c35d3803054407a18d7f0c2d0e3b5fd57549329bf6885da66b9b790b40defd2c8650762305381b16887384620004d7565b62001c767f1f7735706ffe9fc586f976d5bdf223dc680286080b10cea00b9b5de315f9650e7f01ca8be73832b8d0681487d27d157802d741a6f36cdc2a0576881f93264788757f1e6ff3216b688c3d996d74367d5cd4c1bc489d46754eb712c243f70d1b53cfbb84620004d7565b62001ce47f2bc1ae8b8ddbb81fcaac2d44555ed5685d142633e9df905f66d9401093082d597f23f0bee001b1029d5255075ddc957f833418cad4f52b6c3f8ce16c235572575b7f2522b60f4ea3307640a0c2dce041fba921ac10a3d5f096ef4745ca838285f01984620004d7565b62001d527f15871a5cddead976804c803cbaef255eb4815a5e96df8b006dcbbc2767f889487f2360a8eb0cc7defa67b72998de90714e17e75b174a52ee4acb126c8cd995f0a87f0f9406b8296564a37304507b8dba3ed162371273a07b1fc98011fcd6ad72205f84620004d7565b62001dc07f1859954cfeb8695f3e8b635dcb345192892cd11223443ba7b4166e8876c0d1427f2a394a43934f86982f9be56ff4fab1703b2e63c8ad334834e4309805e777ae0f7f193a56766998ee9e0a8652dd2f3b1da0362f4f54f72379544f957ccdeefb420f84620004d7565b62001e2e7f058cbe8a9a5027bdaa4efb623adead6275f08686f1c08984a9d7c5bae9b4f1c07f0fdb253dee83869d40c335ea64de8c5bb10eb82db08b5e8b1f5e5552bfd05f237f04e1181763050e58013444dbcb99f1902b11bc25d90bbdca408d3819f4fed32b84620004d7565b62001e9c7f23f7bfc8720dc296fff33b41f98ff83c6fcab4605db2eb5aaa5bc137aeb70a587f03464990f045c6ee0819ca51fd11b0be7f61b8eb99f14b77e1e6634601d9e8b57f1382edce9971e186497eadb1aeb1f52b23b4b83bef023ab0d15228b4cceca59a84620004d7565b62001f0a7f118872dc832e0eb5476b56648e867ec8b09340f7a7bcb1b4962f0ff9ed1f9d017f06ec54c80381c052b58bf23b312ffd3ce2c4eba065420af8f4c23ed0075fd07b7f0a59a158e3eec2117e6e94e7f0e9decf18c3ffd5e1531a9219636158bbaf62f284620004d7565b62001f787f04ef51591c6ead97ef42f287adce40d93abeb032b922f66ffb7e9a5a7450544d7f169a177f63ea681270b1c6877a73d21bde143942fb71dc55fd8a49f19f10c77b7f13d69fa127d834165ad5c7cba7ad59ed52e0b0f0e42d7fea95e1906b520921b184620004d7565b62001fe67f10998e42dfcd3bbf1c0714bc73eb1bf40443a3fa99bef4a31fd31be182fcc7927f30102d28636abd5fe5f2af412ff6004f75cc360d3205dd2da002813d3e2ceeb27f256e175a1dc079390ecd7ca703fb2e3b19ec61805d4f03ced5f45ee6dd0f69ec84620004d7565b620020547f29383c01ebd3b6ab0c017656ebe658b6a328ec77bc33626e29e2e95b33ea61117f18168afd34f2d915d0368ce80b7b3347d1c7a561ce611425f2664d7aa51f0b5d7f193edd8e9fcf3d7625fa7d24b598a1d89f3362eaf4d582efecad76f879e3686084620004d7565b620020c27f16d685252078c133dc0d3ecad62b5c8830f95bb2e54b59abdffbf018d96fa3367f0beb5e07d1b27145f575f1395a55bf132f90c25b40da7b3864d0242dcb1117fb7f10646d2f2603de39a1f4ae5e7771a64a702db6e86fb76ab600bf573f9010c71184620004d7565b620021307f0980fb233bd456c23974d50e0ebfde4726a423eada4e8f6ffbc7592e3f1b93d67f1a679f5d36eb7b5c8ea12a4c2dedc8feb12dffeec450317270a6f19b34cf18607f0a6abd1d833938f33c74154e0404b4b40a555bbbec21ddfafd672dd62047f01a84620004d7565b6200219e7f1a730d372310ba82320345a29ac4238ed3f07a8a2b4e121bb50ddb9af407f4517f0ada10a90c7f0520950f7d47a60d5e6a493f09787f1564e5d09203db47de1a0b7f161b42232e61b84cbf1810af93a38fc0cece3d5628c9282003ebacb5c312c72b84620004d7565b6200220c7f2cd9ed31f5f8691c8e39e4077a74faa0f400ad8b491eb3f7b47b27fa3fd1cf777f1c7c8824f758753fa57c00789c684217b930e95313bcb73e6e7b8649a4968f707f2c8120f268ef054f817064c369dda7ea908377feaba5c4dffbda10ef58e8c55684620004d7565b6200227a7f188d9c528025d4c2b67660c6b771b90f7c7da6eaa29d3f268a6dd223ec6fc6307f09945a5d147a4f66ceece6405dddd9d0af5a2c5103529407dff1ea58f180426d7f23ff4f9d46813457cf60d92f57618399a5e022ac321ca550854ae23918a22eea84620004d7565b620022e87f1da6d09885432ea9a06d9f37f873d985dae933e351466b2904284da3320d8acc7f15af1169396830a91600ca8102c35c426ceae5461e3f95d89d829518d30afd787f3050e37996596b7f81f68311431d8734dba7d926d3633595e0c0d8ddf4f0f47f84620004d7565b620023567f096d6790d05bb759156a952ba263d672a2d7f9c788f4c831a29dace4c0f8be5f7f202d7dd1da0f6b4b0325c8b3307742f01e15612ec8e9304a7cb0319e01d32d607f2796ea90d269af29f5f8acf33921124e4e4fad3dbe658945e546ee411ddaa9cb84620004d7565b620023c47f21e5241e12564dd6fd9f1cdd2a0de39eedfefc1466cc568ec5ceb745a0506edc7f1b162f83d917e93edb3308c29802deb9d8aa690113b2e14864ccf6e18e4165f17f054efa1f65b0fce283808965275d877b438da23ce5b13e1963798cb1447d25a484620006b8565b620024327f1671522374606992affb0dd7f71b12bec4236aede6290546bcef7e1f515c23207f0f21177e302a771bbae6d8d1ecb373b62c99af346220ac0129c53f666eb241007f1cfb5662e8cf5ac9226a80ee17b36abecb73ab5f87e161927b4349e10e4bdf0884620006b8565b620024a07f102adf8ef74735a27e9128306dcbc3c99f6f7291cd406578ce14ea2adaba68f87f193c0e04e0bd298357cb266c1506080ed36edce85c648cc085e8c57b1ab54bba7f0fa3ec5b9488259c2eb4cf24501bfad9be2ec9e42c5cc8ccd419d2a692cad87084620006b8565b6200250e7f1da55cc900f0d21f4a3e694391918a1b3c23b2ac773c6b3ef88e2e42283251617f216f6717bbc7dedb08536a2220843f4e2da5f1daa9ebdefde8a5ea7344798d227f0fe0af7858e49859e2a54d6f1ad945b1316aa24bfbdd23ae40a6d0cb70c3eab184620006b8565b519392505050565b82805482825590600052602060002090810192821562002554579160200282015b828111156200255457825182559160200191906001019062002537565b506200256292915062002584565b5090565b60405180606001604052806003906020820280368337509192915050565b5b8082111562002562576000815560010162002585565b600060208284031215620025ad578081fd5b5051919050565b60008060008060808587031215620025ca578283fd5b8451602080870151919550906001600160a01b0381168114620025eb578485fd5b60408701519094506001600160401b038082111562002608578485fd5b818801915088601f8301126200261c578485fd5b8151818111156200263157620026316200289f565b838102604051601f19603f830116810181811085821117156200265857620026586200289f565b604052828152858101935084860182860187018d101562002677578889fd5b8895505b838610156200269b5780518552600195909501949386019386016200267b565b5060609a909a0151989b979a5050505050505050565b60008251815b81811015620026d35760208186018101518583015201620026b7565b81811115620026e25782828501525b509190910192915050565b80825b600180861162002701575062002731565b81870482111562002716576200271662002889565b808616156200272457918102915b9490941c938002620026f0565b94509492505050565b60006200274b600019848462002752565b9392505050565b60008262002763575060016200274b565b8162002772575060006200274b565b81600181146200278b57600281146200279657620027ca565b60019150506200274b565b60ff841115620027aa57620027aa62002889565b6001841b915084821115620027c357620027c362002889565b506200274b565b5060208310610133831016604e8410600b841016171562002802575081810a83811115620027fc57620027fc62002889565b6200274b565b620028118484846001620026ed565b80860482111562002826576200282662002889565b02949350505050565b60008160001904831182151516156200284c576200284c62002889565b500290565b60008282101562002866576200286662002889565b500390565b600060001982141562002882576200288262002889565b5060010190565b634e487b7160e01b600052601160045260246000fd5b634e487b7160e01b600052604160045260246000fd5b61410280620028c56000396000f3fe6080604052600436106100915760003560e01c80636e4d6517116100595780636e4d6517146101625780639d3f191c1461018f578063c0ee0b8a146101a2578063d12ad3e1146101c2578063e5e678ea146101d757610091565b806301a5461014610096578063182d9352146100b85780632dc03259146100f25780632e7d754b1461011257806355ba20e31461014d575b600080fd5b3480156100a257600080fd5b506100b66100b1366004613db6565b6101f7565b005b3480156100c457600080fd5b506100d86100d3366004613db6565b610246565b604080519283526020830191909152015b60405180910390f35b3480156100fe57600080fd5b506100b661010d366004613db6565b6102ff565b34801561011e57600080fd5b5061013f61012d366004613db6565b60046020526000908152604090205481565b6040519081526020016100e9565b34801561015957600080fd5b50600a5461013f565b34801561016e57600080fd5b5061018261017d366004613db6565b610355565b6040516100e99190613e1f565b6100b661019d366004613c95565b610438565b3480156101ae57600080fd5b506100b66101bd366004613beb565b610ab9565b3480156101ce57600080fd5b5061013f610c0d565b3480156101e357600080fd5b506101826101f2366004613db6565b610c5e565b600954156102415760405162461bcd60e51b815260206004820152601260248201527141504b20616c72656164792065786973747360701b60448201526064015b60405180910390fd5b600955565b6000818152600b6020526040812054819060ff1615156001146102e45760405162461bcd60e51b815260206004820152604a60248201527f496e76616c696420557365723a2054686520757365722069736e277420696e2060448201527f7468652075736572206c6973742e20546875732c2074686520757365722068616064820152691d99481d1bc81a5b9a5d60b21b608482015260a401610238565b50506000908152600c60205260409020600181015490549091565b6000818152600b602052604090819020805460ff19166001179055517f6409e1b70e6e0c99514729492dd68b3989d4f85d142460dcd280bb9d437d65409061034a9083815260200190565b60405180910390a150565b6060600061036283610c5e565b90506000805467ffffffffffffffff81111561038e57634e487b7160e01b600052604160045260246000fd5b6040519080825280602002602001820160405280156103b7578160200160208202803683370190505b50905060005b825181101561042e578281815181106103e657634e487b7160e01b600052603260045260246000fd5b602002602001015160001c82828151811061041157634e487b7160e01b600052603260045260246000fd5b60209081029190910101528061042681614065565b9150506103bd565b509150505b919050565b6009546104ad5760405162461bcd60e51b815260206004820152603760248201527f496e76616c69642070726f636573733a2041504b20646f6573206e6f7420657860448201527f69737420696e207468652061756469746f72206c6973740000000000000000006064820152608401610238565b60008881526007602052604090205460ff1661051e5760405162461bcd60e51b815260206004820152602a60248201527f496e76616c696420726f6f74203a205468697320726f6f74206973206e6f74206044820152691d985b1a59081c9bdbdd60b21b6064820152608401610238565b60008781526008602052604090205460ff16156105a35760405162461bcd60e51b815260206004820152603760248201527f496e76616c6964206e756c6c69666965723a2054686973206e756c6c6966696560448201527f722068617320616c7265616479206265656e20757365640000000000000000006064820152608401610238565b85516000908152600b602052604090205460ff166106195760405162461bcd60e51b815260206004820152602d60248201527f496e76616c696420557365723a2054686520757365722069736e607420696e2060448201526c1d1a19481d5cd95c881b1a5cdd609a1b6064820152608401610238565b60006040518061028001604052806001815260200160095481526020018a81526020018981526020018860006003811061066357634e487b7160e01b600052603260045260246000fd5b602002015181526020018860016003811061068e57634e487b7160e01b600052603260045260246000fd5b60200201518152602001886002600381106106b957634e487b7160e01b600052603260045260246000fd5b60200201518152602001878152602001600c60008a6000600381106106ee57634e487b7160e01b600052603260045260246000fd5b602002015160001b8152602001908152602001600020600001548152602001600c60008a60006003811061073257634e487b7160e01b600052603260045260246000fd5b602002015160001b81526020019081526020016000206001015481526020018660006002811061077257634e487b7160e01b600052603260045260246000fd5b602002015181526020018660016002811061079d57634e487b7160e01b600052603260045260246000fd5b60200201518152602001856000600281106107c857634e487b7160e01b600052603260045260246000fd5b60200201518152602001856001600281106107f357634e487b7160e01b600052603260045260246000fd5b602002015181526020018460006006811061081e57634e487b7160e01b600052603260045260246000fd5b602002015181526020018460016006811061084957634e487b7160e01b600052603260045260246000fd5b602002015181526020018460026006811061087457634e487b7160e01b600052603260045260246000fd5b602002015181526020018460036006811061089f57634e487b7160e01b600052603260045260246000fd5b60200201518152602001846004600681106108ca57634e487b7160e01b600052603260045260246000fd5b60200201518152602001846005600681106108f557634e487b7160e01b600052603260045260246000fd5b6020020151905290506109088a82612f7a565b6109705760405162461bcd60e51b815260206004820152603360248201527f496e76616c69642070726f6f663a20556e61626c6520746f20766572696679206044820152727468652070726f6f6620636f72726563746c7960681b6064820152608401610238565b61097986613027565b600061098560016130d0565b90506109a9816000818152600760205260409020805460ff19166001179055600a55565b6000898152600860205260408120805460ff191660011790557f08fab86cbd236e7b3b53bf8bdf41680bb72b3a197652667e2888834e8558aeb89082908b908a908c906020020151886000602002015189600160200201518a600260200201518b600360200201518c600460200201518d600560209081029190910151604080519b8c52918b01999099528901969096526060880194909452608087019290925260a086015260c085015260e08401526101008301526101208201526101400160405180910390a1610a7b8584613144565b50506040805180820182528551815260209586015186820190815297516000908152600c909652942093518455505092516001909101555050505050565b604080516080810182526000606082018190526001600160a01b038616825260208201859052918101839052825190919060189084906003908110610b0e57634e487b7160e01b600052603260045260246000fd5b016020015184516001600160f81b031990911690911c60e01c9060109085906002908110610b4c57634e487b7160e01b600052603260045260246000fd5b016020015185516001600160f81b031990911690911c60e01c9060089086906001908110610b8a57634e487b7160e01b600052603260045260246000fd5b016020015186516001600160f81b031990911690911c60e01c908690600090610bc357634e487b7160e01b600052603260045260246000fd5b602091010151610bdc919060e01c63ff00000016613eac565b610be69190613eac565b610bf09190613eac565b60e01b6001600160e01b0319166060929092019190915250505050565b600060095460001415610c575760405162461bcd60e51b8152602060048201526012602482015271105412c8191bd95cc81b9bdd08195e1a5cdd60721b6044820152606401610238565b5060095490565b60606000805467ffffffffffffffff811115610c8a57634e487b7160e01b600052604160045260246000fd5b604051908082528060200260200182016040528015610cb3578160200160208202803683370190505b50905060005b600054811015610d65576001841615610d1157610ce0610cda60018661404e565b826133f1565b828281518110610d0057634e487b7160e01b600052603260045260246000fd5b602002602001018181525050610d4c565b610d1f610cda856001613e94565b828281518110610d3f57634e487b7160e01b600052603260045260246000fd5b6020026020010181815250505b60019390931c9280610d5d81614065565b915050610cb9565b5092915050565b60006000805160206140ad83398151915280838508818182098282848386858609090991507faed26d6a3f5e0ea662411ddfcde3527479de9cee7a56c656ff5f61df13a3940160005260005b605a811215610dee5760206000208060005284878683870808935050838384099150838385848786870909099250600101610db8565b50508184820890508184838784080895945050505050565b60008060028484604051602001610e27929190918252602082015260400190565b60408051601f1981840301815290829052610e4191613de6565b602060405180830381855afa158015610e5e573d6000803e3d6000fd5b5050506040513d601f19601f82011682018060405250810190610e819190613dce565b90506000805160206140ad833981519152806000830895945050505050565b6000610eaa613aa8565b6113fd565b8051602082015160408301516000805160206140ad83398151915285840892506000805160206140ad83398151915286830891506000805160206140ad83398151915287820890506000805160206140ad8339815191528384096000805160206140ad83398151915281820990506000805160206140ad83398151915284820993506000805160206140ad833981519152807f2b90bba00fca0589f617e7dcbfe82e0df706ab640ceb247b791a93b74e36736d84096000805160206140ad833981519152807f16ed41e13bb9c0c66ae119424fddbcbc9314dc9fdbdeea55d6c64543dc4903e087096000805160206140ad8339815191527f109b7f411ba0e4c9b2b70caf5c36a7b194be7c11ad24378bfedb68592ba8118b8909080890506000805160206140ad833981519152807f101071f0032379b697315876690f053d148d4e109f5fb065c8aacc55a0f89bfa84096000805160206140ad833981519152807f2e2419f9ec02ec394c9871c832963dc1b89d743c8c7b964029b2311687b1fe2387096000805160206140ad8339815191527f2969f27eed31a480b9c36c764379dbca2cc8fdd1415c3dded62940bcde0bd771890908086000805160206140ad833981519152807f19a3fc0a56702bf417ba7fee3802593fa644470307043f7773279cd71d25d5e085096000805160206140ad833981519152807f176cc029695ad02582a70eff08a6fd99d057e12e58e7d7b6b16cdfabc8ee291188096000805160206140ad8339815191527f143021ec686a3f330d5f9e654638065ce6cd79e28c5b3753326244ee65a1b1a78a0908089186526020860152604090940193909352505050505050565b8051602082015160408301516000805160206140ad83398151915285840892506000805160206140ad83398151915286830891506000805160206140ad83398151915287820890506000805160206140ad8339815191528384096000805160206140ad83398151915281820990506000805160206140ad83398151915284820993506000805160206140ad83398151915283840990506000805160206140ad83398151915281820990506000805160206140ad83398151915283820992506000805160206140ad83398151915282830990506000805160206140ad83398151915281820990506000805160206140ad83398151915282820991506000805160206140ad833981519152807f2b90bba00fca0589f617e7dcbfe82e0df706ab640ceb247b791a93b74e36736d84096000805160206140ad833981519152807f16ed41e13bb9c0c66ae119424fddbcbc9314dc9fdbdeea55d6c64543dc4903e087096000805160206140ad8339815191527f109b7f411ba0e4c9b2b70caf5c36a7b194be7c11ad24378bfedb68592ba8118b8909080890506000805160206140ad833981519152807f101071f0032379b697315876690f053d148d4e109f5fb065c8aacc55a0f89bfa84096000805160206140ad833981519152807f2e2419f9ec02ec394c9871c832963dc1b89d743c8c7b964029b2311687b1fe2387096000805160206140ad8339815191527f2969f27eed31a480b9c36c764379dbca2cc8fdd1415c3dded62940bcde0bd771890908086000805160206140ad833981519152807f19a3fc0a56702bf417ba7fee3802593fa644470307043f7773279cd71d25d5e085096000805160206140ad833981519152807f176cc029695ad02582a70eff08a6fd99d057e12e58e7d7b6b16cdfabc8ee291188096000805160206140ad8339815191527f143021ec686a3f330d5f9e654638065ce6cd79e28c5b3753326244ee65a1b1a78a0908089186526020860152604090940193909352505050505050565b600081528360208201528260408201526114787f08dff3487e8ac99e1f29a058d0fa80b930c728730b7ab36ce879f3890ecf73f57ef1445235f2148c5986587169fc1bcd887b08d4d00868df5696fff40956e8647f0ee9a592ba9a9518d05986d656f40c2114c4993c11bb29938d21d47304cd8e6e8461111a565b6114e47f0319d062072bef7ecca5eac06f97d4d55952c175ab6b03eae64b44c7dbf11cfa7f2b2ae1acf68b7b8d2416bebf3d4f6234b763fe04b8043ee48b8327bebca16cf27f2f27be690fdaee46c3ce28f7532b13c856c35342c84bda6e20966310fadc01d08461111a565b6115507f234ec45ca27727c2e74abd2b2a1494cd6efbd43e340587d6b8fb9e31e65cc6327f2727673b2ccbc903f181bf38e1c1d40d2033865200c352bc150928adddf9cb787f28813dcaebaeaa828a376df87af4a63bc8b7bf27ad49c6298ef7b387bf28526d8461111a565b6115bc7f1bcd95ffc211fbca600f705fad3fb567ea4eb378f62e1fec97805518a47e4d9c7f0dc8fad6d9e4b35f5ed9a3d186b79ce38e0e8a8d1b58b132d701d4eecf68d1f67f15b52534031ae18f7f862cb2cf7cf760ab10a8150a337b1ccd99ff6e8797d4288461111a565b6116287f1d9655f652309014d29e00ef35a2089bfff8dc1c816f0dc9ca34bdb5460c87057f1f6d48149b8e7f7d9b257d8ed5fbbaf42932498075fed0ace88a9eb81f5627f67f10520b0ab721cadfe9eff81b016fc34dc76da36c2578937817cb978d069de55984610eaf565b6116947f099952b414884454b21200d7ffafdd5f0c9a9dcc06f2708e9fc1d8209b5c75b97f0672d995f8fff640151b3d290cedaf148690a10a8c8424a7f6ec282b6e4be8287f04df5a56ff95bcafb051f7b1cd43a99ba731ff67e47032058fe3d4185697cc7d84610eaf565b6117007f119b1590f13307af5a1ee651020c07c749c15d60683a8050b963d0a8e4b2bdd17f0b8badee690adb8eb0bd74712b7999af82de55707251ad7716077cb93c464ddc7f052cba2255dfd00c7c483143ba8d469448e43586a9b4cd9183fd0e843a6b9fa684610eaf565b61176b7e5032551e6378c450cfe129a404b3764218cadedac14e2b92d2cd73111bf0f97f2cc6182c5e14546e3cf1951f173912355374efb83d80898abe69cb317c9ea5657f03150b7cd6d5d17b2529d36be0f67b832c4acfc884ef4ee5ce15be0bfb4a8d0984610eaf565b6117d77f0a7b1db13042d396ba05d818a319f25252bcf35ef3aeed91ee1f09b2590fc65b7f05c8f4f4ebd4a6e3c980d31674bfbe6323037f21b34ae5a4e80c2d4c24d602807f233237e3289baa34bb147e972ebcb9516469c399fcc069fb88f9da2cc28276b584610eaf565b6118437f12c0339ae08374823fabb076707ef479269f3e4d6cb104349015ee046dc93fc07f1ac9b0417abcc9a1935107e9ffc91dc3ec18f2c4dbe7f22976a760bb5c50c4607f2a73b71f9b210cf5b14296572c9d32dbf156e2b086ff47dc5df542365a404ec084610eaf565b6118af7f05a6811f8556f014e92674661e217e9bd5206c5c93a07dc145fdb176a716346f7f037c2849e191ca3edb1c5e49f6e8b8917c843e379366f2ea32ab3aa88d7f84487f0b7475b102a165ad7f5b18db4e1e704f52900aa3253baac68246682e56e9a28e84610eaf565b61191b7f2e0ba8d94d9ecf4a94ec2050c7371ff1bb50f27799a84b6d4a2a6f2a0982c8877f20439a0c84b322eb45a3857afc18f5826e8c7382c8a1585c507be199981fd22f7f29a795e7d98028946e947b75d54e9f044076e87a7b2883b47b675ef5f38bd66e84610eaf565b6119877f028a305847c683f646fca925c163ff5ae74f348d62c2b670f1426cef9403da537f0c64cbecb1c734b857968dbbdcf813cdf8611659323dbcbfc84323623be9caf17f143fd115ce08fb27ca38eb7cce822b4517822cd2109048d2e6d0ddcca17d71c884610eaf565b6119f27f2ed5f0c91cbd9749187e2fade687e05ee2491b349c039a0bba8a9f4023a0bb387e81c95bc43384e663d79270c956ce3b8925b4f6d033b078b96384f50579400e7f2e4ef510ff0b6fda5fa940ab4c4380f26a6bcb64d89427b824d6755b5db9e30c84610eaf565b611a5e7f10b4e7f3ab5df003049514459b6e18eec46bb2213e8e131e170887b47ddcb96c7f1c3f20fd55409a53221b7c4d49a356b9f0a1119fb2067b41a7529094424ec6ad7f30509991f88da3504bbf374ed5aae2f03448a22c76234c8c990f01f33a73520684610eaf565b611aca7f07533ec850ba7f98eab9303cace01b4b9e4f2e8b82708cfa9c2fe45a0ae146a07f1c74ee64f15e1db6feddbead56d6d55dba431ebc396c9af95cad0f1315bd5c917f2a1982979c3ff7f43ddd543d891c2abddd80f804c077d775039aa3502e43adef84610eaf565b611b367f2d477e3862d07708a79e8aae946170bc9775a4201318474ae665b0b1b7e2730e7f2f17c0559b8fe79608ad5ca193d62f10bce8384c815f0906743d6930836d4a9e7f21576b438e500449a151e4eeaf17b154285c68f42d42c1808a11abf3764c075084610eaf565b611ba27f2c8fbcb2dd8573dc1dbaf8f4622854776db2eece6d85c4cf4254e7c35e03b07a7f2b4cb233ede9ba48264ecd2c8ae50d1ad7a8596a87f29f8a7777a700923933117f162f5243967064c390e095577984f291afba2266c38f5abcd89be0f5b2747eab84610eaf565b611c0e7f0c4cb9dc3c4fd8174f1149b3c63c3c2f9ecb827cd7dc25534ff8fb75bc79c5027f204b0c397f4ebe71ebc2d8b3df5b913df9e6ac02b68d31324cd49af5c45655297f1d6f347725e4816af2ff453f0cd56b199e1b61e9f601e9ade5e88db870949da984610eaf565b611c7a7f066d04b24331d71cd0ef8054bc60c4ff05202c126a233c1a8242ace360b8a30a7f1a96177bcf4d8d89f759df4ec2f3cde2eaaa28c177cc0fa13a9816d49a38d2ef7f174ad61a1448c899a25416474f4930301e5c49475279e0639a616ddc45bc7b5484610eaf565b611ce67f1121552fca26061619d24d843dc82769c1b04fcec26f55194c2e3e869acc6a9a7f13ab2d136ccf37d447e9f2e14a7cedc95e727f8446f6d9d7e55afc01219fd6497f2a4c4fc6ec0b0cf52195782871c6dd3b381cc65f72e02ad527037a62aa1bd80484610eaf565b611d517f29f536dcb9dd7682245264659e15d88e395ac3d4dde92d8c46448db979eeba897f0e25483e45a665208b261d8ba74051e6400c776d652595d9845aca35d8a397d37eef653322b13d6c889bc81715c37d77a6cd267d595c4a8909a5546c7c97cff184610eaf565b611dbd7f151aff5f38b20a0fc0473089aaf0206b83e8e68a764507bfd3d0ab4be74319c57f1c8361c78eb5cf5decfb7a2d17b5c409f2ae2999a46762e8ee416240a8cb9af17f2a56ef9f2c53febadfda33575dbdbd885a124e2780bbea170e456baace0fa5be84610eaf565b611e297f01a5c536273c2d9df578bfbd32c17b7a2ce3664c2a52032c9321ceb1c4e8a8e47f13b37bd80f4d27fb10d84331f6fb6d534b81c61ed15776449e801b7ddc9c29677f04c6187e41ed881dc1b239c88f7f9d43a9f52fc8c8b6cdd1e76e47615b51f10084610eaf565b611e957f041294d2cc484d228f5784fe7919fd2bb925351240a04b711514c9c80b65af1d7f1d4d8ec291e720db200fe6d686c0d613acaf6af4e95d3bf69f7ed516a597b6467f2ab3561834ca73835ad05f5d7acb950b4a9a2c666b9726da832239065b7c3b0284610eaf565b611f017f0955e49e6610c94254a4f84cfbab344598f0e71eaff4a7dd81ed95b50839c82e7f0b339d8acca7d4f83eedd84093aef51050b3684c88f8b0b04524563bc6ea4da47f154ac98e01708c611c4fa715991f004898f57939d126e392042971dd90e81fc684610eaf565b611f6d7f04f6eeca1751f7308ac59eff5beb261e4bb563583ede7bc92a738223d6f76e137f0f18f5a0ecd1423c496f3820c549c27838e5790e2bd0a196ac917c7ff32077fb7f06746a6156eba54426b9e22206f15abca9a6f41e6f535c6f3525401ea065462684610eaf565b611fd97f2147b424fc48c80a88ee52b91169aacea989f6446471150994257b2fb01c63e97f123769dd49d5b054dcd76b89804b1bcb8e1392b385716a5d83feb65d437f29ef7f2b56973364c4c4f5c1a3ec4da3cdce038811eb116fb3e45bc1768d26fc0b375884610eaf565b6120457f21e4f4ea5f35f85bad7ea52ff742c9e8a642756b6af44203dd8a1f35c1a900357f12373a8251fea004df68abcf0f7786d4bceff28c5dbbe0c3944f685cc0a0b1f27f0fdc1f58548b85701a6c5505ea332a29647e6f34ad4243c2ea54ad897cebe54d84610eaf565b6120b17f07ea5e8537cf5dd08886020e23a7f387d468d5525be66f853b672cc96a88969a7f1efbe46dd7a578b4f66f9adbc88b4378abc21566e1a0453ca13a4159cac04ac27f16243916d69d2ca3dfb4722224d4c462b57366492f45e90d8a81934f1bc3b14784610eaf565b61211d7f04a12ededa9dfd689672f8c67fee31636dcd8e88d01d49019bd90b33eb33db697f20f057712cc21654fbfe59bd345e8dac3f7818c701b9c7882d9d57b72a32e83f7f05a8c4f9968b8aa3b7b478a30f9a5b63650f19a75e7ce11ca9fe16c0b76c00bc84610eaf565b6121897f1ed7cc76edf45c7c404241420f729cf394e5942911312a0d6972b8bd53aff2b87f2feed17b84285ed9b8a5c8c5e95a41f66e096619a7703223176c41ee433de4d17f27e88d8c15f37dcee44f1e5425a51decbd136ce5091a6767e49ec9544ccd101a84610eaf565b6121f57f25851c3c845d4790f9ddadbdb6057357832e2e7a49775f71ec75a96554d67c777f1aac285387f65e82c895fc6887ddf40577107454c6ec0317284f033f27d0c7857f15742e99b9bfa323157ff8c586f5660eac6783476144cdcadf2874be45466b1a84610eaf565b6122607e2e6f8d6520cd4713e335b8c0b6d2e647e9a98e12f4cd2558828b5ef6cb4c9b7f2411d57a4813b9980efa7e31a1db5966dcf64f36044277502f15485f28c717277f15a5821565cc2ec2ce78457db197edf353b7ebba2c5523370ddccc3d9f146a6784610eaf565b6122cb7f0a2f53768b8ebf6a86913b0e57c04e011ca408648a4743a87d77adbf0c9c35127eb9831b948525595ee02724471bcd182e9521f6b7bb68f1e93be4febb0d3cbe7f2ff7bc8f4380cde997da00b616b0fcd1af8f0e91e2fe1ed7398834609e0315d284610eaf565b6123367f170a4f55536f7dc970087c7c10d6fad760c952172dd54dd99d1045e4ec34a8087f171d5620b87bfb1328cf8c02ab3f0c9a397196aa6a542c2350eb512a2b2bcda97e248156142fd0373a479f91ff239e960f599ff7e94be69b7f2a290305e1198d84610eaf565b6123a27f1dd269799b660fad58f7f4892dfb0b5afeaad869a9c4b44f9c9e1c43bdaf8f097f1e9bc179a4fdd758fdd1bb1945088d47e70d114a03f6a0e8b5ba650369e649737f29aba33f799fe66c2ef3134aea04336ecc37e38c1cd211ba482eca17e2dbfae184610eaf565b61240e7f11609e06ad6c8fe2f287f3036037e8851318e8b08a0359a03b304ffca62e82847f0ef042e454771c533a9f57a55c503fcefd3150f52ed94a7cd5ba93b9c7dacefd7f22cdbc8b70117ad1401181d02e15459e7ccd426fe869c7c95d1dd2cb0f24af3884610eaf565b61247a7f3006eb4ffc7a85819a6da492f3a8ac1df51aee5b17b8e89d74bf01cf5f71e9ad7f2de52989431a859593413026354413db177fbf4cd2ac0b56f855a888357ee4667f1166d9e554616dba9e753eea427c17b7fecd58c076dfe42708b08f5b783aa9af84610eaf565b6124e67f1835b786e2e8925e188bea59ae363537b51248c23828f047cff784b97b3fd8007f119e684de476155fe5a6b41a8ebc85db8718ab27889e85e781b214bace4827c37f2af41fbb61ba8a80fdcf6fff9e3f6f422993fe8f0a4639f962344c822514508684610eaf565b6125527f0b6f88a3577199526158e61ceea27be811c16df7774dd8519e079564f61fd13b7f083efd7a27d1751094e80fefaf78b000864c82eb571187724a761f88c22cc4e77f28201a34c594dfa34d794996c6433a20d152bac2a7905c926c40e285ab32eeb684610eaf565b6125be7f0b520211f904b5e7d09b5d961c6ace7734568c547dd6858b364ce5e47951f1787f2af33e3f866771271ac0c9b3ed2e1142ecd3e74b939cd40d00d937ab84c985917f0ec868e6d15e51d9644f66e1d6471a94589511ca00d29e1014390e6ee4254f5b84610eaf565b61262a7f0171eb95dfbf7d1eaea97cd385f780150885c16235a2a6a8da92ceb01e5042337f1f790d4d7f8cf094d980ceb37c2453e957b54a9991ca38bbe0061d1ed6e562d47f0b2d722d0919a1aad8db58f10062a92ea0c56ac4270e822cca228620188a1d4084610eaf565b6126967f2f1459b65dee441b64ad386a91e8310f282c5a92a89e19921623ef8249711bc07f1162fb28689c27154e5a8228b4e72b377cbcafa589e283c35d3803054407a18d7f0c2d0e3b5fd57549329bf6885da66b9b790b40defd2c8650762305381b16887384610eaf565b6127027f1f7735706ffe9fc586f976d5bdf223dc680286080b10cea00b9b5de315f9650e7f01ca8be73832b8d0681487d27d157802d741a6f36cdc2a0576881f93264788757f1e6ff3216b688c3d996d74367d5cd4c1bc489d46754eb712c243f70d1b53cfbb84610eaf565b61276e7f2bc1ae8b8ddbb81fcaac2d44555ed5685d142633e9df905f66d9401093082d597f23f0bee001b1029d5255075ddc957f833418cad4f52b6c3f8ce16c235572575b7f2522b60f4ea3307640a0c2dce041fba921ac10a3d5f096ef4745ca838285f01984610eaf565b6127da7f15871a5cddead976804c803cbaef255eb4815a5e96df8b006dcbbc2767f889487f2360a8eb0cc7defa67b72998de90714e17e75b174a52ee4acb126c8cd995f0a87f0f9406b8296564a37304507b8dba3ed162371273a07b1fc98011fcd6ad72205f84610eaf565b6128467f1859954cfeb8695f3e8b635dcb345192892cd11223443ba7b4166e8876c0d1427f2a394a43934f86982f9be56ff4fab1703b2e63c8ad334834e4309805e777ae0f7f193a56766998ee9e0a8652dd2f3b1da0362f4f54f72379544f957ccdeefb420f84610eaf565b6128b27f058cbe8a9a5027bdaa4efb623adead6275f08686f1c08984a9d7c5bae9b4f1c07f0fdb253dee83869d40c335ea64de8c5bb10eb82db08b5e8b1f5e5552bfd05f237f04e1181763050e58013444dbcb99f1902b11bc25d90bbdca408d3819f4fed32b84610eaf565b61291e7f23f7bfc8720dc296fff33b41f98ff83c6fcab4605db2eb5aaa5bc137aeb70a587f03464990f045c6ee0819ca51fd11b0be7f61b8eb99f14b77e1e6634601d9e8b57f1382edce9971e186497eadb1aeb1f52b23b4b83bef023ab0d15228b4cceca59a84610eaf565b61298a7f118872dc832e0eb5476b56648e867ec8b09340f7a7bcb1b4962f0ff9ed1f9d017f06ec54c80381c052b58bf23b312ffd3ce2c4eba065420af8f4c23ed0075fd07b7f0a59a158e3eec2117e6e94e7f0e9decf18c3ffd5e1531a9219636158bbaf62f284610eaf565b6129f67f04ef51591c6ead97ef42f287adce40d93abeb032b922f66ffb7e9a5a7450544d7f169a177f63ea681270b1c6877a73d21bde143942fb71dc55fd8a49f19f10c77b7f13d69fa127d834165ad5c7cba7ad59ed52e0b0f0e42d7fea95e1906b520921b184610eaf565b612a627f10998e42dfcd3bbf1c0714bc73eb1bf40443a3fa99bef4a31fd31be182fcc7927f30102d28636abd5fe5f2af412ff6004f75cc360d3205dd2da002813d3e2ceeb27f256e175a1dc079390ecd7ca703fb2e3b19ec61805d4f03ced5f45ee6dd0f69ec84610eaf565b612ace7f29383c01ebd3b6ab0c017656ebe658b6a328ec77bc33626e29e2e95b33ea61117f18168afd34f2d915d0368ce80b7b3347d1c7a561ce611425f2664d7aa51f0b5d7f193edd8e9fcf3d7625fa7d24b598a1d89f3362eaf4d582efecad76f879e3686084610eaf565b612b3a7f16d685252078c133dc0d3ecad62b5c8830f95bb2e54b59abdffbf018d96fa3367f0beb5e07d1b27145f575f1395a55bf132f90c25b40da7b3864d0242dcb1117fb7f10646d2f2603de39a1f4ae5e7771a64a702db6e86fb76ab600bf573f9010c71184610eaf565b612ba67f0980fb233bd456c23974d50e0ebfde4726a423eada4e8f6ffbc7592e3f1b93d67f1a679f5d36eb7b5c8ea12a4c2dedc8feb12dffeec450317270a6f19b34cf18607f0a6abd1d833938f33c74154e0404b4b40a555bbbec21ddfafd672dd62047f01a84610eaf565b612c127f1a730d372310ba82320345a29ac4238ed3f07a8a2b4e121bb50ddb9af407f4517f0ada10a90c7f0520950f7d47a60d5e6a493f09787f1564e5d09203db47de1a0b7f161b42232e61b84cbf1810af93a38fc0cece3d5628c9282003ebacb5c312c72b84610eaf565b612c7e7f2cd9ed31f5f8691c8e39e4077a74faa0f400ad8b491eb3f7b47b27fa3fd1cf777f1c7c8824f758753fa57c00789c684217b930e95313bcb73e6e7b8649a4968f707f2c8120f268ef054f817064c369dda7ea908377feaba5c4dffbda10ef58e8c55684610eaf565b612cea7f188d9c528025d4c2b67660c6b771b90f7c7da6eaa29d3f268a6dd223ec6fc6307f09945a5d147a4f66ceece6405dddd9d0af5a2c5103529407dff1ea58f180426d7f23ff4f9d46813457cf60d92f57618399a5e022ac321ca550854ae23918a22eea84610eaf565b612d567f1da6d09885432ea9a06d9f37f873d985dae933e351466b2904284da3320d8acc7f15af1169396830a91600ca8102c35c426ceae5461e3f95d89d829518d30afd787f3050e37996596b7f81f68311431d8734dba7d926d3633595e0c0d8ddf4f0f47f84610eaf565b612dc27f096d6790d05bb759156a952ba263d672a2d7f9c788f4c831a29dace4c0f8be5f7f202d7dd1da0f6b4b0325c8b3307742f01e15612ec8e9304a7cb0319e01d32d607f2796ea90d269af29f5f8acf33921124e4e4fad3dbe658945e546ee411ddaa9cb84610eaf565b612e2e7f21e5241e12564dd6fd9f1cdd2a0de39eedfefc1466cc568ec5ceb745a0506edc7f1b162f83d917e93edb3308c29802deb9d8aa690113b2e14864ccf6e18e4165f17f054efa1f65b0fce283808965275d877b438da23ce5b13e1963798cb1447d25a48461111a565b612e9a7f1671522374606992affb0dd7f71b12bec4236aede6290546bcef7e1f515c23207f0f21177e302a771bbae6d8d1ecb373b62c99af346220ac0129c53f666eb241007f1cfb5662e8cf5ac9226a80ee17b36abecb73ab5f87e161927b4349e10e4bdf088461111a565b612f067f102adf8ef74735a27e9128306dcbc3c99f6f7291cd406578ce14ea2adaba68f87f193c0e04e0bd298357cb266c1506080ed36edce85c648cc085e8c57b1ab54bba7f0fa3ec5b9488259c2eb4cf24501bfad9be2ec9e42c5cc8ccd419d2a692cad8708461111a565b612f727f1da55cc900f0d21f4a3e694391918a1b3c23b2ac773c6b3ef88e2e42283251617f216f6717bbc7dedb08536a2220843f4e2da5f1daa9ebdefde8a5ea7344798d227f0fe0af7858e49859e2a54d6f1ad945b1316aa24bfbdd23ae40a6d0cb70c3eab18461111a565b519392505050565b6040805160148082526102a08201909252600091829190602082016102808036833701905050905060005b601481101561301057838160148110612fce57634e487b7160e01b600052603260045260246000fd5b6020020151828281518110612ff357634e487b7160e01b600052603260045260246000fd5b60209081029190910101528061300881614065565b915050612fa5565b5061301d600d85836134be565b9150505b92915050565b600254600654106130885760405162461bcd60e51b815260206004820152602560248201527f426173654d65726b6c65547265653a2043616e6e6f7420617070656e6420616e604482015264796d6f726560d81b6064820152608401610238565b6006805490600061309883614065565b9091555060025460009082906130b09060019061404e565b6130ba9190613e94565b6000908152600460205260409020929092555050565b600654600090816130e1848361404e565b905060005b600054811015613111576130fb818385613900565b935091508061310981614065565b9150506130e6565b50506000805250506004602052507f17ef568e3e12ab5b9c7254a8d58478811de00f9e6eb34345acd53bf8fd09d3ec5490565b81516020830151811561326457600e546001600160a01b0316156131d457600e546040516323b872dd60e01b8152336004820152306024820152604481018490526001600160a01b039091169081906323b872dd90606401600060405180830381600087803b1580156131b657600080fd5b505af11580156131ca573d6000803e3d6000fd5b505050505061325f565b6131e76001670de0b6b3a7640000614027565b6131fb9067ffffffffffffffff1683614008565b915081341461325f5760405162461bcd60e51b815260206004820152602a60248201527f57726f6e67206d73672e76616c75653a2056616c75652070616964206973206e6044820152691bdd0818dbdc9c9958dd60b21b6064820152608401610238565b613304565b341561330457604051600090339034908381818185875af1925050503d80600081146132ac576040519150601f19603f3d011682016040523d82523d6000602084013e6132b1565b606091505b50509050806133025760405162461bcd60e51b815260206004820152601e60248201527f767075625f696e2072657475726e207472616e73666572206661696c656400006044820152606401610238565b505b80156133eb57600e546001600160a01b03161561338957600e5460405163a9059cbb60e01b81526001600160a01b0385811660048301526024820184905290911690819063a9059cbb90604401600060405180830381600087803b15801561336b57600080fd5b505af115801561337f573d6000803e3d6000fd5b50505050506133eb565b61339c6001670de0b6b3a7640000614027565b6133b09067ffffffffffffffff1682614008565b6040519091506001600160a01b0384169082156108fc029083906000818181858888f193505050501580156133e9573d6000803e3d6000fd5b505b50505050565b60008060001b600460008560018660005461340c919061404e565b613417906002613f3a565b613421919061404e565b61342b9190613e94565b8152602001908152602001600020541415613473576005828154811061346157634e487b7160e01b600052603260045260246000fd5b90600052602060002001549050613021565b6004600084600185600054613488919061404e565b613493906002613f3a565b61349d919061404e565b6134a79190613e94565b815260200190815260200160002054905092915050565b600082516010146135115760405162461bcd60e51b815260206004820152601e60248201527f50726f6f662073697a6520696e76616c69642028424c5331322d3338312900006044820152606401610238565b60006001600460148780549050613528919061404e565b6135329190613ed4565b61353c919061404e565b9050808351146135995760405162461bcd60e51b815260206004820152602260248201527f496e707574206c656e67746820646966666572732066726f6d20657870656374604482015261195960f21b6064820152608401610238565b6135a1613ac6565b600160006107d05a89855260208086206014810154875260158101548288015260168101546040880152601781015460608801529350919003906018830190888101908781028a0101608087015b8183101561365357835481526001840154602080830191909152600285015460408301526003850154606083015283516080808401919091526004909501949301928160a0816000600b8af16080896101008b6000600a8bf11696909616956135ef565b50505050506f024aa2b2f08f0a91260805272dc5105160808401527fc6e47ad4fa403b02b4510b647ae3d1770bac0326a805bbefd48056c8c121bdb860a08401526f13e02b6052719f607dacd3a088274f6560c08401527f596bd0d09920b61ab5da61bbdc7f5049334cf11213945d57e5ac7d055d042b7e60e08401526f0d1b3cc2c7027888be51d9ef691d77bc6101008401527fb679afda66c73f17f9ee3837a55024f78c71363275a75d75d86bab79f74782aa6101208401526f13fa4d4a0ad8b1ce186ed5061789213d6101408401527f993923066dddaf1040bc3ff59f825c78df74f2d75467e25e0f55f8a00fa030ed610160840152805461018084015260018101546101a084015260028101546101c084015260038101546101e08401526006810154610200840152600781015461022084015260048101546102408401526005810154610260840152600a810154610280840152600b8101546102a084015260088101546102c084015260098101546102e0840152602087019650865161030084015260208701516103208401526040870151610340840152606087015161036084015260c087015161038084015260e08701516103a084015260808701516103c084015260a08701516103e08401526101408701516104008401526101608701516104208401526101008701516104408401526101208701516104608401526101808701516104808401526101a08701516104a08401526101c08701516104c08401526101e08701516104e0840152600e810154610500840152600f810154610520840152600c810154610540840152600d810154610560840152601281015461058084015260138101546105a084015260108101546105c084015260118101546105e084015260208361060085600060105af150509051600114925050505b9392505050565b6000806000600186600054613915919061404e565b613920906002613f3a565b61392a919061404e565b9050600061393c600119871683613e94565b9050600060018616156139d85760016139558785613e94565b61395f919061404e565b600081815260046020526040902054600580549293506139a7928b90811061399757634e487b7160e01b600052603260045260246000fd5b9060005260206000200154613a61565b6004600060026139b860018661404e565b6139c29190613ed4565b81526020810191909152604001600020556139e5565b6139e28684613e94565b90505b81811115613a30576139f860028261404e565b60008181526004602081905260408220549293506139a79291613a1c856001613e94565b815260200190815260200160002054613a61565b613a3b600288613ed4565b6002613a48886001613e94565b613a529190613ed4565b94509450505050935093915050565b6000600180541415613a7e57613a778383610d6c565b9050613021565b60026001541415613a9357613a778383610e06565b6003600154141561302157613a778383610ea0565b60405180606001604052806003906020820280368337509192915050565b6040518061030001604052806018906020820280368337509192915050565b80356001600160a01b038116811461043357600080fd5b600082601f830112613b0c578081fd5b613b166040613e63565b808385604086011115613b27578384fd5b835b6002811015613b48578135845260209384019390910190600101613b29565b509095945050505050565b600082601f830112613b63578081fd5b613b6d6060613e63565b808385606086011115613b7e578384fd5b835b6003811015613b48578135845260209384019390910190600101613b80565b600082601f830112613baf578081fd5b613bb960c0613e63565b80838560c086011115613bca578384fd5b835b6006811015613b48578135845260209384019390910190600101613bcc565b600080600060608486031215613bff578283fd5b613c0884613ae5565b92506020808501359250604085013567ffffffffffffffff80821115613c2c578384fd5b818701915087601f830112613c3f578384fd5b813581811115613c5157613c51614096565b613c63601f8201601f19168501613e63565b91508082528884828501011115613c78578485fd5b808484018584013784848284010152508093505050509250925092565b60008060008060008060008060006102408a8c031215613cb3578485fd5b67ffffffffffffffff808b351115613cc9578586fd5b8a358b018c601f820112613cdb578687fd5b803582811115613ced57613ced614096565b613cfb602080830201613e63565b925082818452602084019350602083018f60208085028601011115613d1e57898afd5b8993505b82841015613d4157803585526020948501946001949094019301613d22565b509b5050505060208a0135975060408a01359650613d628b60608c01613b53565b955060c08a01359450613d788b60e08c01613afc565b9350613d888b6101208c01613afc565b9250613d988b6101608c01613b9f565b9150613da76102208b01613ae5565b90509295985092959850929598565b600060208284031215613dc7578081fd5b5035919050565b600060208284031215613ddf578081fd5b5051919050565b60008251815b81811015613e065760208186018101518583015201613dec565b81811115613e145782828501525b509190910192915050565b6020808252825182820181905260009190848201906040850190845b81811015613e5757835183529284019291840191600101613e3b565b50909695505050505050565b604051601f8201601f1916810167ffffffffffffffff81118282101715613e8c57613e8c614096565b604052919050565b60008219821115613ea757613ea7614080565b500190565b600063ffffffff808316818516808303821115613ecb57613ecb614080565b01949350505050565b600082613eef57634e487b7160e01b81526012600452602481fd5b500490565b80825b6001808611613f065750613f31565b818704821115613f1857613f18614080565b80861615613f2557918102915b9490941c938002613ef7565b94509492505050565b60006138f96000198484600082613f53575060016138f9565b81613f60575060006138f9565b8160018114613f765760028114613f8057613fad565b60019150506138f9565b60ff841115613f9157613f91614080565b6001841b915084821115613fa757613fa7614080565b506138f9565b5060208310610133831016604e8410600b8410161715613fe0575081810a83811115613fdb57613fdb614080565b6138f9565b613fed8484846001613ef4565b808604821115613fff57613fff614080565b02949350505050565b600081600019048311821515161561402257614022614080565b500290565b600067ffffffffffffffff80831681851681830481118215151615613fff57613fff614080565b60008282101561406057614060614080565b500390565b600060001982141561407957614079614080565b5060010190565b634e487b7160e01b600052601160045260246000fd5b634e487b7160e01b600052604160045260246000fdfe30644e72e131a029b85045b68181585d2833e84879b9709143e1f593f0000001a264697066735822122089a43479735c9739998c418f89b6826cfe2d649a7c710dd5de0a6bf6bce58e1564736f6c634300080200332969f27eed31a480b9c36c764379dbca2cc8fdd1415c3dded62940bcde0bd77117ef568e3e12ab5b9c7254a8d58478811de00f9e6eb34345acd53bf8fd09d3ec176cc029695ad02582a70eff08a6fd99d057e12e58e7d7b6b16cdfabc8ee291116ed41e13bb9c0c66ae119424fddbcbc9314dc9fdbdeea55d6c64543dc4903e0143021ec686a3f330d5f9e654638065ce6cd79e28c5b3753326244ee65a1b1a7101071f0032379b697315876690f053d148d4e109f5fb065c8aacc55a0f89bfa30644e72e131a029b85045b68181585d2833e84879b9709143e1f593f00000012b90bba00fca0589f617e7dcbfe82e0df706ab640ceb247b791a93b74e36736d109b7f411ba0e4c9b2b70caf5c36a7b194be7c11ad24378bfedb68592ba8118b19a3fc0a56702bf417ba7fee3802593fa644470307043f7773279cd71d25d5e02e2419f9ec02ec394c9871c832963dc1b89d743c8c7b964029b2311687b1fe23",
  "immutableReferences": {},
  "source": "// Copyright (c) 2015-2020 Clearmatics Technologies Ltd\n// Copyright (c) 2021-2021 Zkrypto Inc.\n// SPDX-License-Identifier: LGPL-3.0+\n\npragma solidity ^0.8.2;\npragma experimental ABIEncoderV2;\n\nimport \"./BLS12_381MixerBase.sol\";\nimport \"./Groth16BLS12_381.sol\";\n\n/// Instance of BLS12_381MixerBase implementing the Groth16 verifier for the\n/// bls12-381 pairing.\ncontract Groth16BLS12_381Mixer is BLS12_381MixerBase\n{\n    constructor(\n        uint256 mk_depth,\n        address token,\n        uint256[] memory vk,\n        uint256 hash_type\n    )\n        public\n        BLS12_381MixerBase(mk_depth, token, vk, hash_type)\n    {\n    }\n\n    function _verifyZKProof(\n        uint256[] memory proof,\n        uint256[_NUM_INPUTS] memory inputs\n    )\n        internal\n        override\n        returns (bool)\n    {\n        // Convert the statically sized primaryInputs to a dynamic array\n        // expected by the verifier.\n\n        // TODO: mechanism to pass static-sized input arrays to generic\n        // verifier functions to avoid this copy.\n\n        uint256[] memory input_values = new uint256[](_NUM_INPUTS);\n        for (uint256 i = 0 ; i < _NUM_INPUTS; i++) {\n            input_values[i] = inputs[i];\n        }\n        return Groth16BLS12_381._verify(_vk, proof, input_values);\n    }\n}\n",
  "sourcePath": "/Users/kim/azeroth-trade-dev/tradeContract/contracts/Groth16BLS12_381Mixer.sol",
  "compiler": {
    "name": "solc",
    "version": "0.8.2+commit.661d1103.Emscripten.clang"
  },
  "schemaVersion": "3.4.11",
  "updatedAt": "2023-06-27T05:00:51.689Z",
  "devdoc": {
    "kind": "dev",
    "methods": {},
    "version": 1
  },
  "userdoc": {
    "kind": "user",
    "methods": {},
    "notice": "Instance of BLS12_381MixerBase implementing the Groth16 verifier for the bls12-381 pairing.",
    "version": 1
  }
}