{
  "contractName": "RegistDataContract",
  "abi": [
    {
      "inputs": [
        {
          "internalType": "uint256[]",
          "name": "_registData_vk",
          "type": "uint256[]"
        }
      ],
      "stateMutability": "nonpayable",
      "type": "constructor"
    },
    {
      "inputs": [
        {
          "internalType": "uint256[]",
          "name": "proof",
          "type": "uint256[]"
        },
        {
          "internalType": "uint256[5]",
          "name": "inputs",
          "type": "uint256[5]"
        }
      ],
      "name": "registData",
      "outputs": [
        {
          "internalType": "bool",
          "name": "",
          "type": "bool"
        }
      ],
      "stateMutability": "payable",
      "type": "function"
    },
    {
      "inputs": [
        {
          "internalType": "uint256",
          "name": "_hct",
          "type": "uint256"
        }
      ],
      "name": "isRegistered",
      "outputs": [
        {
          "internalType": "bool",
          "name": "",
          "type": "bool"
        }
      ],
      "stateMutability": "view",
      "type": "function"
    }
  ],
  "bytecode": "0x608060405234801561001057600080fd5b50604051610ab5380380610ab583398101604081905261002f916100a9565b8051610042906001906020840190610049565b505061017d565b828054828255906000526020600020908101928215610084579160200282015b82811115610084578251825591602001919060010190610069565b50610090929150610094565b5090565b5b808211156100905760008155600101610095565b600060208083850312156100bb578182fd5b82516001600160401b03808211156100d1578384fd5b818501915085601f8301126100e4578384fd5b8151818111156100f6576100f6610167565b838102604051601f19603f8301168101818110858211171561011a5761011a610167565b604052828152858101935084860182860187018a1015610138578788fd5b8795505b8386101561015a57805185526001959095019493860193860161013c565b5098975050505050505050565b634e487b7160e01b600052604160045260246000fd5b6109298061018c6000396000f3fe6080604052600436106100295760003560e01c806317cfa4881461002e578063579a698814610055575b600080fd5b61004161003c366004610772565b610085565b604051901515815260200160405180910390f35b34801561006157600080fd5b5061004161007036600461082c565b60009081526020819052604090205460ff1690565b6000610095565b60405180910390fd5b606082015160009081526020819052604090205460ff16156100f95760405162461bcd60e51b815260206004820152601760248201527f616c7265616479207265676973746572656420685f6374000000000000000000604482015260640161008c565b60408051600580825260c082019092526000916020820160a08036833701905050905060005b600581101561018a5783816005811061014857634e487b7160e01b600052603260045260246000fd5b602002015182828151811061016d57634e487b7160e01b600052603260045260246000fd5b602090810291909101015280610182816108ac565b91505061011f565b5061019760018583610270565b6101d35760405162461bcd60e51b815260206004820152600d60248201526c34b73b30b634b210383937b7b360991b604482015260640161008c565b6001600080836003815181106101f957634e487b7160e01b600052603260045260246000fd5b6020026020010151815260200190815260200160002060006101000a81548160ff0219169083151502179055506000808260038151811061024a57634e487b7160e01b600052603260045260246000fd5b60209081029190910181015182528101919091526040016000205460ff16949350505050565b600082516008146102c35760405162461bcd60e51b815260206004820152601e60248201527f50726f6f662073697a6520696e76616c69642028414c542d424e313238290000604482015260640161008c565b600060016002600a87805490506102da9190610895565b6102e49190610875565b6102ee9190610895565b90508083511461034b5760405162461bcd60e51b815260206004820152602260248201527f496e707574206c656e67746820646966666572732066726f6d20657870656374604482015261195960f21b606482015260840161008c565b60005b818110156103fe577f30644e72e131a029b85045b68181585d2833e84879b9709143e1f593f000000184828151811061039757634e487b7160e01b600052603260045260246000fd5b6020026020010151106103ec5760405162461bcd60e51b815260206004820152601c60248201527f496e707574206973206e6f7420696e207363616c6172206669656c6400000000604482015260640161008c565b806103f6816108ac565b91505061034e565b506104076106fc565b600160006107d05a03888452602084209150600a820160208801885160200281018254875260018301925082546020880152600183019250604087015b8183101561049357835481526001840193508354602082015260018401935082516040820152602083019250604081606083600060078af160408960808b600060068bf1169690961695610444565b50505050508161050b5760405162461bcd60e51b815260206004820152603960248201527f43616c6c20746f2074686520626e323536416464206f7220626e32353653636160448201527f6c61724d756c20707265636f6d70696c6564206661696c656400000000000000606482015260840161008c565b7f198e9393920d483a7260bfb731fb5d25f1aa493335a9e71297e485b7aef312c260408401527f1800deef121f1e76426a00665e5c4479674322d4f75edadd46debd5cd992f6ed60608401527f275dc4a288d1afb3cbb1ac09187524c7db36395df7be3b99e673b13a075a65ec60808401527f1d9befcd05a5323e6da4d435f3b617cdb3af83285c2df711ef39c01571827f9d60a0840152805460c0840152600181015460e08401526002810154610100840152600381015461012084015260048101546101408401526005810154610160840152602087019650865161018084015260208701516101a084015260408701516101c084015260608701516101e0840152608087015161020084015260a087015161022084015260c087015161024084015260e0870151610260840152600681015461028084015260078101546102a084015260088101546102c084015260098101546102e084015260208361030085600060086107d05a03f19150816106ed5760405162461bcd60e51b815260206004820152603760248201527f43616c6c20746f20626e3235364164642c20626e3235365363616c61724d756c60448201527f206f7220626e32353650616972696e67206661696c6564000000000000000000606482015260840161008c565b50505160011495945050505050565b6040518061030001604052806018906020820280368337509192915050565b600082601f83011261072b578081fd5b61073560a0610844565b80838560a086011115610746578384fd5b835b6005811015610767578135845260209384019390910190600101610748565b509095945050505050565b60008060c08385031215610784578182fd5b823567ffffffffffffffff8082111561079b578384fd5b818501915085601f8301126107ae578384fd5b81356020828211156107c2576107c26108dd565b80820292506107d2818401610844565b8281528181019085830185870184018b10156107ec578889fd5b8896505b8487101561080e5780358352600196909601959183019183016107f0565b50965061081f90508888830161071b565b9450505050509250929050565b60006020828403121561083d578081fd5b5035919050565b604051601f8201601f1916810167ffffffffffffffff8111828210171561086d5761086d6108dd565b604052919050565b60008261089057634e487b7160e01b81526012600452602481fd5b500490565b6000828210156108a7576108a76108c7565b500390565b60006000198214156108c0576108c06108c7565b5060010190565b634e487b7160e01b600052601160045260246000fd5b634e487b7160e01b600052604160045260246000fdfea2646970667358221220bba662173cc490a4e1d126b47d133379a56d424a9d0f5dfecda1de84e0baf79464736f6c63430008020033",
  "immutableReferences": {},
  "source": "// SPDX-License-Identifier: LGPL-3.0+\npragma solidity ^0.8.2;\n\nimport \"./Groth16AltBN128.sol\";\n\ncontract RegistDataContract {\n\n    // h_ct list\n    mapping(uint256 => bool) internal _hCT_list;\n\n    // registData SNARK Proof input num\n    uint256 private constant REGISTDATA_NUM_INPUTS = 5;\n\n    // registDAta SNARK vk\n    uint256[] private registData_vk;\n\n    constructor(uint256[] memory _registData_vk)\n    {\n        registData_vk = _registData_vk;\n    }\n\n\n    /*\n        inputs : [ constant(1) , pk_own , h_k , h_ct , id_data ]\n    */\n    function registData(\n        uint256[] memory proof,\n        uint256[REGISTDATA_NUM_INPUTS] memory inputs\n    ) \n        public \n        payable \n        returns(bool)\n    {   \n        // check input length\n        require( inputs.length == REGISTDATA_NUM_INPUTS, \"invalid Input length\");\n        \n        // check hct\n        require( !_hCT_list[inputs[3]], \"already registered h_ct\");\n\n        uint256[] memory input_values = new uint256[](REGISTDATA_NUM_INPUTS);\n        for (uint256 i = 0 ; i < REGISTDATA_NUM_INPUTS; i++) {\n            input_values[i] = inputs[i];\n        }\n        require( Groth16AltBN128._verify(registData_vk, proof, input_values), \"invalid proof\");\n\n        _hCT_list[input_values[3]] = true;\n        return _hCT_list[input_values[3]];\n    }\n\n    function isRegistered(uint256 _hct) \n        public \n        view \n        returns(bool) \n    {\n        return _hCT_list[_hct];\n    }\n}",
  "sourcePath": "/Users/kim/azeroth-trade-dev/tradeContract/contracts/RegistDataBase.sol",
  "compiler": {
    "name": "solc",
    "version": "0.8.2+commit.661d1103.Emscripten.clang"
  },
  "schemaVersion": "3.4.11",
  "updatedAt": "2023-06-27T05:00:51.701Z",
  "devdoc": {
    "kind": "dev",
    "methods": {},
    "version": 1
  },
  "userdoc": {
    "kind": "user",
    "methods": {},
    "version": 1
  }
}